{
  "contractName": "ColonyAuthority",
  "abi": [
    {
      "constant": true,
      "inputs": [
        {
          "name": "who",
          "type": "address"
        }
      ],
      "name": "getUserRoles",
      "outputs": [
        {
          "name": "",
          "type": "bytes32"
        }
      ],
      "payable": false,
      "stateMutability": "view",
      "type": "function"
    },
    {
      "constant": false,
      "inputs": [
        {
          "name": "owner_",
          "type": "address"
        }
      ],
      "name": "setOwner",
      "outputs": [],
      "payable": false,
      "stateMutability": "nonpayable",
      "type": "function"
    },
    {
      "constant": true,
      "inputs": [
        {
          "name": "code",
          "type": "address"
        },
        {
          "name": "sig",
          "type": "bytes4"
        }
      ],
      "name": "getCapabilityRoles",
      "outputs": [
        {
          "name": "",
          "type": "bytes32"
        }
      ],
      "payable": false,
      "stateMutability": "view",
      "type": "function"
    },
    {
      "constant": true,
      "inputs": [
        {
          "name": "code",
          "type": "address"
        },
        {
          "name": "sig",
          "type": "bytes4"
        }
      ],
      "name": "isCapabilityPublic",
      "outputs": [
        {
          "name": "",
          "type": "bool"
        }
      ],
      "payable": false,
      "stateMutability": "view",
      "type": "function"
    },
    {
      "constant": true,
      "inputs": [
        {
          "name": "who",
          "type": "address"
        },
        {
          "name": "where",
          "type": "uint256"
        }
      ],
      "name": "getUserRoles",
      "outputs": [
        {
          "name": "",
          "type": "bytes32"
        }
      ],
      "payable": false,
      "stateMutability": "view",
      "type": "function"
    },
    {
      "constant": false,
      "inputs": [
        {
          "name": "who",
          "type": "address"
        },
        {
          "name": "role",
          "type": "uint8"
        },
        {
          "name": "enabled",
          "type": "bool"
        }
      ],
      "name": "setUserRole",
      "outputs": [],
      "payable": false,
      "stateMutability": "nonpayable",
      "type": "function"
    },
    {
      "constant": false,
      "inputs": [
        {
          "name": "who",
          "type": "address"
        },
        {
          "name": "where",
          "type": "uint256"
        },
        {
          "name": "role",
          "type": "uint8"
        },
        {
          "name": "enabled",
          "type": "bool"
        }
      ],
      "name": "setUserRole",
      "outputs": [],
      "payable": false,
      "stateMutability": "nonpayable",
      "type": "function"
    },
    {
      "constant": false,
      "inputs": [
        {
          "name": "authority_",
          "type": "address"
        }
      ],
      "name": "setAuthority",
      "outputs": [],
      "payable": false,
      "stateMutability": "nonpayable",
      "type": "function"
    },
    {
      "constant": false,
      "inputs": [
        {
          "name": "role",
          "type": "uint8"
        },
        {
          "name": "code",
          "type": "address"
        },
        {
          "name": "sig",
          "type": "bytes4"
        },
        {
          "name": "enabled",
          "type": "bool"
        }
      ],
      "name": "setRoleCapability",
      "outputs": [],
      "payable": false,
      "stateMutability": "nonpayable",
      "type": "function"
    },
    {
      "constant": true,
      "inputs": [],
      "name": "owner",
      "outputs": [
        {
          "name": "",
          "type": "address"
        }
      ],
      "payable": false,
      "stateMutability": "view",
      "type": "function"
    },
    {
      "constant": true,
      "inputs": [
        {
          "name": "caller",
          "type": "address"
        },
        {
          "name": "where",
          "type": "uint256"
        },
        {
          "name": "code",
          "type": "address"
        },
        {
          "name": "sig",
          "type": "bytes4"
        }
      ],
      "name": "canCall",
      "outputs": [
        {
          "name": "",
          "type": "bool"
        }
      ],
      "payable": false,
      "stateMutability": "view",
      "type": "function"
    },
    {
      "constant": true,
      "inputs": [
        {
          "name": "who",
          "type": "address"
        },
        {
          "name": "role",
          "type": "uint8"
        }
      ],
      "name": "hasUserRole",
      "outputs": [
        {
          "name": "",
          "type": "bool"
        }
      ],
      "payable": false,
      "stateMutability": "view",
      "type": "function"
    },
    {
      "constant": true,
      "inputs": [
        {
          "name": "who",
          "type": "address"
        },
        {
          "name": "where",
          "type": "uint256"
        },
        {
          "name": "role",
          "type": "uint8"
        }
      ],
      "name": "hasUserRole",
      "outputs": [
        {
          "name": "",
          "type": "bool"
        }
      ],
      "payable": false,
      "stateMutability": "view",
      "type": "function"
    },
    {
      "constant": true,
      "inputs": [
        {
          "name": "caller",
          "type": "address"
        },
        {
          "name": "where",
          "type": "uint256"
        },
        {
          "name": "role",
          "type": "uint8"
        },
        {
          "name": "code",
          "type": "address"
        },
        {
          "name": "sig",
          "type": "bytes4"
        }
      ],
      "name": "canCallOnlyBecause",
      "outputs": [
        {
          "name": "",
          "type": "bool"
        }
      ],
      "payable": false,
      "stateMutability": "view",
      "type": "function"
    },
    {
      "constant": true,
      "inputs": [
        {
          "name": "caller",
          "type": "address"
        },
        {
          "name": "code",
          "type": "address"
        },
        {
          "name": "sig",
          "type": "bytes4"
        }
      ],
      "name": "canCall",
      "outputs": [
        {
          "name": "",
          "type": "bool"
        }
      ],
      "payable": false,
      "stateMutability": "view",
      "type": "function"
    },
    {
      "constant": true,
      "inputs": [],
      "name": "authority",
      "outputs": [
        {
          "name": "",
          "type": "address"
        }
      ],
      "payable": false,
      "stateMutability": "view",
      "type": "function"
    },
    {
      "constant": false,
      "inputs": [
        {
          "name": "code",
          "type": "address"
        },
        {
          "name": "sig",
          "type": "bytes4"
        },
        {
          "name": "enabled",
          "type": "bool"
        }
      ],
      "name": "setPublicCapability",
      "outputs": [],
      "payable": false,
      "stateMutability": "nonpayable",
      "type": "function"
    },
    {
      "constant": false,
      "inputs": [
        {
          "name": "who",
          "type": "address"
        },
        {
          "name": "enabled",
          "type": "bool"
        }
      ],
      "name": "setRootUser",
      "outputs": [],
      "payable": false,
      "stateMutability": "nonpayable",
      "type": "function"
    },
    {
      "constant": true,
      "inputs": [
        {
          "name": "who",
          "type": "address"
        }
      ],
      "name": "isUserRoot",
      "outputs": [
        {
          "name": "",
          "type": "bool"
        }
      ],
      "payable": false,
      "stateMutability": "view",
      "type": "function"
    },
    {
      "inputs": [
        {
          "name": "_colony",
          "type": "address"
        }
      ],
      "payable": false,
      "stateMutability": "nonpayable",
      "type": "constructor"
    },
    {
      "anonymous": false,
      "inputs": [
        {
          "indexed": true,
          "name": "authority",
          "type": "address"
        }
      ],
      "name": "LogSetAuthority",
      "type": "event"
    },
    {
      "anonymous": false,
      "inputs": [
        {
          "indexed": true,
          "name": "owner",
          "type": "address"
        }
      ],
      "name": "LogSetOwner",
      "type": "event"
    }
  ],
  "bytecode": "0x60806040523480156200001157600080fd5b5060405160208062001b03833981018060405260208110156200003357600080fd5b5051600180546001600160a01b031916339081179091556040518291907fce241d7ca1f669fee44b6fc00b8eba2df3bb514eed0f6f668f8f89096e81ed9490600090a2620000bd816040518060400160405280601381526020017f656e7465725265636f766572794d6f64652829000000000000000000000000008152506200078960201b60201c565b62000104816040518060400160405280601581526020017f617070726f7665457869745265636f76657279282900000000000000000000008152506200078960201b60201c565b6200012f8160405180606001604052806027815260200162001840602791396200078960201b60201c565b62000176816040518060400160405280601281526020017f657869745265636f766572794d6f6465282900000000000000000000000000008152506200078960201b60201c565b50600780546001600160a01b0319166001600160a01b038316179055620001be6006604051806060016040528060398152602001620018a260399139620007ab60201b60201c565b620001ea6006604051806080016040528060438152602001620017c460439139620007ab60201b60201c565b6200021660066040518060600160405280603481526020016200190360349139620007ab60201b60201c565b62000242600660405180606001604052806031815260200162001ad260319139620007ab60201b60201c565b6200026e60066040518060600160405280603081526020016200179460309139620007ab60201b60201c565b6200029a60066040518060600160405280603981526020016200180760399139620007ab60201b60201c565b620002c66006604051806060016040528060288152602001620019f060289139620007ab60201b60201c565b620002f260056040518060800160405280604d8152602001620019a3604d9139620007ab60201b60201c565b6200031e60036040518060600160405280602281526020016200177260229139620007ab60201b60201c565b6200034b60045b60405180606001604052806039815260200162001a9960399139620007ab60201b60201c565b6200037860045b6040518060600160405280603481526020016200193760349139620007ab60201b60201c565b620003a560045b6040518060600160405280603b815260200162001867603b9139620007ab60201b60201c565b620003ed60016040518060400160405280601981526020017f736574526f6f74526f6c6528616464726573732c626f6f6c2900000000000000815250620007ab60201b60201c565b620003f9600162000325565b62000405600162000352565b6200041160016200037f565b6200045960016040518060400160405280601881526020017f7365745265636f76657279526f6c652861646472657373290000000000000000815250620007ab60201b60201c565b620004a160016040518060400160405280601b81526020017f72656d6f76655265636f76657279526f6c652861646472657373290000000000815250620007ab60201b60201c565b620004cd60016040518060600160405280603c815260200162001a3a603c9139620007ab60201b60201c565b620004f9600160405180606001604052806023815260200162001a7660239139620007ab60201b60201c565b62000525600160405180606001604052806022815260200162001a1860229139620007ab60201b60201c565b6200056d60016040518060400160405280601981526020017f736574526577617264496e76657273652875696e743235362900000000000000815250620007ab60201b60201c565b620005b560016040518060400160405280601381526020017f6d696e74546f6b656e732875696e743235362900000000000000000000000000815250620007ab60201b60201c565b620005fd60016040518060400160405280601081526020017f757067726164652875696e743235362900000000000000000000000000000000815250620007ab60201b60201c565b620006296001604051806060016040528060288152602001620018db60289139620007ab60201b60201c565b6200067160016040518060400160405280601d81526020017f7365744e6574776f726b466565496e76657273652875696e7432353629000000815250620007ab60201b60201c565b620006b960016040518060400160405280601081526020017f616464476c6f62616c536b696c6c282900000000000000000000000000000000815250620007ab60201b60201c565b6200070160016040518060400160405280601d81526020017f646570726563617465476c6f62616c536b696c6c2875696e7432353629000000815250620007ab60201b60201c565b6200074960016040518060400160405280601b81526020017f757064617465436f6c6f6e794f72626974444228737472696e67290000000000815250620007ab60201b60201c565b6200077660015b6040518060600160405280603881526020016200196b60389139620007ab60201b60201c565b62000782600462000750565b5062000ab5565b80516020820120620007a6600084836001620007e160201b60201c565b505050565b600081805190602001209050620007a683600760009054906101000a90046001600160a01b0316836001620007e160201b60201c565b62000817336000357fffffffff00000000000000000000000000000000000000000000000000000000166200098b60201b60201c565b6200088357604080517f08c379a000000000000000000000000000000000000000000000000000000000815260206004820152601460248201527f64732d617574682d756e617574686f72697a6564000000000000000000000000604482015290519081900360640190fd5b6001600160a01b03831660009081526004602090815260408083207fffffffff000000000000000000000000000000000000000000000000000000008616845290915290205460ff851660020a821562000927576001600160a01b03851660009081526004602090815260408083207fffffffff00000000000000000000000000000000000000000000000000000000881684529091529020828217905562000983565b620009388162000aae60201b60201c565b6001600160a01b03861660009081526004602090815260408083207fffffffff0000000000000000000000000000000000000000000000000000000089168452909152902090831690555b505050505050565b60006001600160a01b038316301415620009a85750600162000aa8565b6001546001600160a01b0384811691161415620009c85750600162000aa8565b6000546001600160a01b0316620009e25750600062000aa8565b600054604080517fb70096130000000000000000000000000000000000000000000000000000000081526001600160a01b0386811660048301523060248301527fffffffff00000000000000000000000000000000000000000000000000000000861660448301529151919092169163b7009613916064808301926020929190829003018186803b15801562000a7757600080fd5b505afa15801562000a8c573d6000803e3d6000fd5b505050506040513d602081101562000aa357600080fd5b505190505b92915050565b6000191890565b610cad8062000ac56000396000f3fe608060405234801561001057600080fd5b50600436106101215760003560e01c80638da5cb5b116100ad578063b700961311610071578063b700961314610430578063bf7e214f14610471578063c6b0263e14610479578063d381ba7c146104b7578063fbf80773146104e557610121565b80638da5cb5b146103135780639110fc8f14610337578063a078f7371461037c578063ab2f7ae2146103ab578063ad6a1516146103e057610121565b8063595b03f0116100f4578063595b03f01461020657806367aff484146102325780636f967eb3146102695780637a9e5e4b146102a65780637d40583d146102cc57610121565b806306a36aee1461012657806313af40351461015e57806327538e90146101865780632f47571f146101bc575b600080fd5b61014c6004803603602081101561013c57600080fd5b50356001600160a01b031661050b565b60408051918252519081900360200190f35b6101846004803603602081101561017457600080fd5b50356001600160a01b0316610526565b005b61014c6004803603604081101561019c57600080fd5b5080356001600160a01b031690602001356001600160e01b0319166105ce565b6101f2600480360360408110156101d257600080fd5b5080356001600160a01b031690602001356001600160e01b031916610603565b604080519115158252519081900360200190f35b61014c6004803603604081101561021c57600080fd5b506001600160a01b03813516906020013561063a565b6101846004803603606081101561024857600080fd5b506001600160a01b038135169060ff60208201351690604001351515610662565b6101846004803603608081101561027f57600080fd5b506001600160a01b038135169060208101359060ff604082013516906060013515156106cc565b610184600480360360208110156102bc57600080fd5b50356001600160a01b03166107bc565b610184600480360360808110156102e257600080fd5b5060ff813516906001600160a01b03602082013516906001600160e01b031960408201351690606001351515610860565b61031b61096d565b604080516001600160a01b039092168252519081900360200190f35b6101f26004803603608081101561034d57600080fd5b5080356001600160a01b039081169160208101359160408201351690606001356001600160e01b03191661097c565b6101f26004803603604081101561039257600080fd5b5080356001600160a01b0316906020013560ff166109a7565b6101f2600480360360608110156103c157600080fd5b5080356001600160a01b0316906020810135906040013560ff166109bc565b6101f2600480360360a08110156103f657600080fd5b5080356001600160a01b0390811691602081013591604082013560ff1691606081013590911690608001356001600160e01b0319166109dd565b6101f26004803603606081101561044657600080fd5b5080356001600160a01b0390811691602081013590911690604001356001600160e01b031916610a10565b61031b610a27565b6101846004803603606081101561048f57600080fd5b506001600160a01b03813516906001600160e01b031960208201351690604001351515610a36565b610184600480360360408110156104cd57600080fd5b506001600160a01b0381351690602001351515610acf565b6101f2600480360360208110156104fb57600080fd5b50356001600160a01b0316610b52565b6001600160a01b031660009081526003602052604090205490565b61053c336000356001600160e01b031916610b70565b61057e5760408051600160e51b62461bcd0281526020600482015260146024820152600080516020610c62833981519152604482015290519081900360640190fd5b600180546001600160a01b0319166001600160a01b0383811691909117918290556040519116907fce241d7ca1f669fee44b6fc00b8eba2df3bb514eed0f6f668f8f89096e81ed9490600090a250565b6001600160a01b03821660009081526004602090815260408083206001600160e01b0319851684529091529020545b92915050565b6001600160a01b03821660009081526005602090815260408083206001600160e01b03198516845290915290205460ff1692915050565b6001600160a01b03919091166000908152600660209081526040808320938352929052205490565b610678336000356001600160e01b031916610b70565b6106ba5760408051600160e51b62461bcd0281526020600482015260146024820152600080516020610c62833981519152604482015290519081900360640190fd5b6106c783600184846106cc565b505050565b6106e2336000356001600160e01b031916610b70565b6107245760408051600160e51b62461bcd0281526020600482015260146024820152600080516020610c62833981519152604482015290519081900360640190fd5b6001600160a01b038416600090815260066020908152604080832086845290915290205460ff831660020a8215610782576001600160a01b0386166000908152600660209081526040808320888452909152902082821790556107b4565b61078b81610c5a565b6001600160a01b0387166000908152600660209081526040808320898452909152902090831690555b505050505050565b6107d2336000356001600160e01b031916610b70565b6108145760408051600160e51b62461bcd0281526020600482015260146024820152600080516020610c62833981519152604482015290519081900360640190fd5b600080546001600160a01b0319166001600160a01b03838116919091178083556040519116917f1abebea81bfa2637f28358c371278fb15ede7ea8dd28d2e03b112ff6d936ada491a250565b610876336000356001600160e01b031916610b70565b6108b85760408051600160e51b62461bcd0281526020600482015260146024820152600080516020610c62833981519152604482015290519081900360640190fd5b6001600160a01b03831660009081526004602090815260408083206001600160e01b03198616845290915290205460ff851660020a821561092a576001600160a01b03851660009081526004602090815260408083206001600160e01b031988168452909152902082821790556107b4565b61093381610c5a565b6001600160a01b03861660009081526004602090815260408083206001600160e01b03198916845290915290209083169055505050505050565b6001546001600160a01b031681565b600080610989868661063a565b9050600061099785856105ce565b9190911615159695505050505050565b60006109b5836001846109bc565b9392505050565b6000806109c9858561063a565b60ff841660020a1615159150509392505050565b6000806109ea878761063a565b905060006109f885856105ce565b9190911660ff861660020a1491505095945050505050565b6000610a1f846001858561097c565b949350505050565b6000546001600160a01b031681565b610a4c336000356001600160e01b031916610b70565b610a8e5760408051600160e51b62461bcd0281526020600482015260146024820152600080516020610c62833981519152604482015290519081900360640190fd5b6001600160a01b0390921660009081526005602090815260408083206001600160e01b0319909416835292905220805491151560ff19909216919091179055565b610ae5336000356001600160e01b031916610b70565b610b275760408051600160e51b62461bcd0281526020600482015260146024820152600080516020610c62833981519152604482015290519081900360640190fd5b6001600160a01b03919091166000908152600260205260409020805460ff1916911515919091179055565b6001600160a01b031660009081526002602052604090205460ff1690565b60006001600160a01b038316301415610b8b575060016105fd565b6001546001600160a01b0384811691161415610ba9575060016105fd565b6000546001600160a01b0316610bc1575060006105fd565b60005460408051600160e01b63b70096130281526001600160a01b0386811660048301523060248301526001600160e01b0319861660448301529151919092169163b7009613916064808301926020929190829003018186803b158015610c2757600080fd5b505afa158015610c3b573d6000803e3d6000fd5b505050506040513d6020811015610c5157600080fd5b505190506105fd565b600019189056fe64732d617574682d756e617574686f72697a6564000000000000000000000000a165627a7a72305820fb671f88a4278830cf641f86ea9f4b8ac4d5f7d85595a8fa1e7ca95c53488c160029616464446f6d61696e2875696e743235362c75696e743235362c75696e74323536297365745061796d656e74536b696c6c2875696e743235362c75696e743235362c75696e743235362c75696e74323536296164645061796d656e742875696e743235362c75696e743235362c616464726573732c616464726573732c75696e743235362c75696e743235362c75696e74323536297365745061796d656e745061796f75742875696e743235362c75696e743235362c75696e743235362c616464726573732c75696e743235362973657453746f72616765536c6f745265636f766572792875696e743235362c627974657333322973657441646d696e697374726174696f6e526f6c652875696e743235362c75696e743235362c616464726573732c75696e743235362c626f6f6c296d616b655461736b2875696e743235362c75696e743235362c627974657333322c75696e743235362c75696e743235362c75696e74323536296164644e6574776f726b436f6c6f6e7956657273696f6e2875696e743235362c61646472657373297365745061796d656e74526563697069656e742875696e743235362c75696e743235362c75696e743235362c616464726573732973657446756e64696e67526f6c652875696e743235362c75696e743235362c616464726573732c75696e743235362c626f6f6c297365744172626974726174696f6e526f6c652875696e743235362c75696e743235362c616464726573732c75696e743235362c626f6f6c296d6f766546756e64734265747765656e506f74732875696e743235362c75696e743235362c75696e743235362c75696e743235362c75696e743235362c75696e743235362c616464726573732966696e616c697a655061796d656e742875696e743235362c75696e743235362c75696e74323536297265676973746572436f6c6f6e794c6162656c28737472696e672c737472696e672973746172744e6578745265776172645061796f757428616464726573732c62797465732c62797465732c75696e743235362c627974657333325b5d29626f6f747374726170436f6c6f6e7928616464726573735b5d2c696e743235365b5d29736574417263686974656374757265526f6c652875696e743235362c75696e743235362c616464726573732c75696e743235362c626f6f6c297365745061796d656e74446f6d61696e2875696e743235362c75696e743235362c75696e743235362c75696e7432353629",
  "source": "/*\n  This file is part of The Colony Network.\n\n  The Colony Network is free software: you can redistribute it and/or modify\n  it under the terms of the GNU General Public License as published by\n  the Free Software Foundation, either version 3 of the License, or\n  (at your option) any later version.\n\n  The Colony Network is distributed in the hope that it will be useful,\n  but WITHOUT ANY WARRANTY; without even the implied warranty of\n  MERCHANTABILITY or FITNESS FOR A PARTICULAR PURPOSE.  See the\n  GNU General Public License for more details.\n\n  You should have received a copy of the GNU General Public License\n  along with The Colony Network. If not, see <http://www.gnu.org/licenses/>.\n*/\n\npragma solidity 0.5.8;\n\nimport \"./ColonyDataTypes.sol\";\nimport \"./CommonAuthority.sol\";\n\n\ncontract ColonyAuthority is CommonAuthority {\n  uint8 constant FUNDING_ROLE = uint8(ColonyDataTypes.ColonyRole.Funding);\n  uint8 constant ADMINISTRATION_ROLE = uint8(ColonyDataTypes.ColonyRole.Administration);\n  uint8 constant ARBITRATION_ROLE = uint8(ColonyDataTypes.ColonyRole.Arbitration);\n  uint8 constant ARCHITECTURE_ROLE = uint8(ColonyDataTypes.ColonyRole.Architecture);\n  uint8 constant ARCHITECTURE_SUBDOMAIN_ROLE = uint8(ColonyDataTypes.ColonyRole.ArchitectureSubdomain);\n  uint8 constant ROOT_ROLE = uint8(ColonyDataTypes.ColonyRole.Root);\n\n  address colony;\n\n  constructor(address _colony) public CommonAuthority(_colony) {\n    colony = _colony;\n\n    // Add permissions for the Administration role\n    addRoleCapability(ADMINISTRATION_ROLE, \"makeTask(uint256,uint256,bytes32,uint256,uint256,uint256)\");\n    addRoleCapability(ADMINISTRATION_ROLE, \"addPayment(uint256,uint256,address,address,uint256,uint256,uint256)\");\n    addRoleCapability(ADMINISTRATION_ROLE, \"setPaymentRecipient(uint256,uint256,uint256,address)\");\n    addRoleCapability(ADMINISTRATION_ROLE, \"setPaymentDomain(uint256,uint256,uint256,uint256)\");\n    addRoleCapability(ADMINISTRATION_ROLE, \"setPaymentSkill(uint256,uint256,uint256,uint256)\");\n    addRoleCapability(ADMINISTRATION_ROLE, \"setPaymentPayout(uint256,uint256,uint256,address,uint256)\");\n    addRoleCapability(ADMINISTRATION_ROLE, \"finalizePayment(uint256,uint256,uint256)\");\n\n    // Add permissions for the Funding role\n    addRoleCapability(FUNDING_ROLE, \"moveFundsBetweenPots(uint256,uint256,uint256,uint256,uint256,uint256,address)\");\n\n    // Add permissions for the Architecture role\n    addRoleCapability(ARCHITECTURE_ROLE, \"addDomain(uint256,uint256,uint256)\");\n    addRoleCapability(ARCHITECTURE_SUBDOMAIN_ROLE, \"setArchitectureRole(uint256,uint256,address,uint256,bool)\");\n    addRoleCapability(ARCHITECTURE_SUBDOMAIN_ROLE, \"setFundingRole(uint256,uint256,address,uint256,bool)\");\n    addRoleCapability(ARCHITECTURE_SUBDOMAIN_ROLE, \"setAdministrationRole(uint256,uint256,address,uint256,bool)\");\n\n    // Add permissions for the Root role\n    addRoleCapability(ROOT_ROLE, \"setRootRole(address,bool)\");\n    addRoleCapability(ROOT_ROLE, \"setArchitectureRole(uint256,uint256,address,uint256,bool)\");\n    addRoleCapability(ROOT_ROLE, \"setFundingRole(uint256,uint256,address,uint256,bool)\");\n    addRoleCapability(ROOT_ROLE, \"setAdministrationRole(uint256,uint256,address,uint256,bool)\");\n\n    // Managing recovery roles\n    addRoleCapability(ROOT_ROLE, \"setRecoveryRole(address)\");\n    addRoleCapability(ROOT_ROLE, \"removeRecoveryRole(address)\");\n\n    // Colony functions\n    addRoleCapability(ROOT_ROLE, \"startNextRewardPayout(address,bytes,bytes,uint256,bytes32[])\");\n    addRoleCapability(ROOT_ROLE, \"bootstrapColony(address[],int256[])\");\n    addRoleCapability(ROOT_ROLE, \"registerColonyLabel(string,string)\");\n    addRoleCapability(ROOT_ROLE, \"setRewardInverse(uint256)\");\n    addRoleCapability(ROOT_ROLE, \"mintTokens(uint256)\");\n    addRoleCapability(ROOT_ROLE, \"upgrade(uint256)\");\n\n    //  Meta Colony functions\n    addRoleCapability(ROOT_ROLE, \"addNetworkColonyVersion(uint256,address)\");\n    addRoleCapability(ROOT_ROLE, \"setNetworkFeeInverse(uint256)\");\n    addRoleCapability(ROOT_ROLE, \"addGlobalSkill()\");\n    addRoleCapability(ROOT_ROLE, \"deprecateGlobalSkill(uint256)\");\n\n    // Added in colony v3\n    addRoleCapability(ROOT_ROLE, \"updateColonyOrbitDB(string)\");\n    addRoleCapability(ROOT_ROLE, \"setArbitrationRole(uint256,uint256,address,uint256,bool)\");\n    addRoleCapability(ARCHITECTURE_SUBDOMAIN_ROLE, \"setArbitrationRole(uint256,uint256,address,uint256,bool)\");\n  }\n\n  function addRoleCapability(uint8 role, bytes memory sig) private {\n    bytes4 functionSig = bytes4(keccak256(sig));\n    setRoleCapability(role, colony, functionSig, true);\n  }\n}\n",
  "sourcePath": "/Users/kronosapiens/code/colony/warsaw/les-contracts/contracts/lib/colony/ColonyAuthority.sol",
  "compiler": {
    "name": "solc",
    "version": "0.5.8+commit.23d335f2.Linux.g++"
  },
  "schemaVersion": "3.0.13",
  "updatedAt": "2019-08-24T12:51:17.597Z",
  "devdoc": {
    "methods": {}
  },
  "userdoc": {
    "methods": {}
  }
}