{
  "contractName": "CommonAuthority",
  "abi": [
    {
      "constant": true,
      "inputs": [
        {
          "name": "who",
          "type": "address"
        }
      ],
      "name": "getUserRoles",
      "outputs": [
        {
          "name": "",
          "type": "bytes32"
        }
      ],
      "payable": false,
      "stateMutability": "view",
      "type": "function"
    },
    {
      "constant": false,
      "inputs": [
        {
          "name": "owner_",
          "type": "address"
        }
      ],
      "name": "setOwner",
      "outputs": [],
      "payable": false,
      "stateMutability": "nonpayable",
      "type": "function"
    },
    {
      "constant": true,
      "inputs": [
        {
          "name": "code",
          "type": "address"
        },
        {
          "name": "sig",
          "type": "bytes4"
        }
      ],
      "name": "getCapabilityRoles",
      "outputs": [
        {
          "name": "",
          "type": "bytes32"
        }
      ],
      "payable": false,
      "stateMutability": "view",
      "type": "function"
    },
    {
      "constant": true,
      "inputs": [
        {
          "name": "code",
          "type": "address"
        },
        {
          "name": "sig",
          "type": "bytes4"
        }
      ],
      "name": "isCapabilityPublic",
      "outputs": [
        {
          "name": "",
          "type": "bool"
        }
      ],
      "payable": false,
      "stateMutability": "view",
      "type": "function"
    },
    {
      "constant": true,
      "inputs": [
        {
          "name": "who",
          "type": "address"
        },
        {
          "name": "where",
          "type": "uint256"
        }
      ],
      "name": "getUserRoles",
      "outputs": [
        {
          "name": "",
          "type": "bytes32"
        }
      ],
      "payable": false,
      "stateMutability": "view",
      "type": "function"
    },
    {
      "constant": false,
      "inputs": [
        {
          "name": "who",
          "type": "address"
        },
        {
          "name": "role",
          "type": "uint8"
        },
        {
          "name": "enabled",
          "type": "bool"
        }
      ],
      "name": "setUserRole",
      "outputs": [],
      "payable": false,
      "stateMutability": "nonpayable",
      "type": "function"
    },
    {
      "constant": false,
      "inputs": [
        {
          "name": "who",
          "type": "address"
        },
        {
          "name": "where",
          "type": "uint256"
        },
        {
          "name": "role",
          "type": "uint8"
        },
        {
          "name": "enabled",
          "type": "bool"
        }
      ],
      "name": "setUserRole",
      "outputs": [],
      "payable": false,
      "stateMutability": "nonpayable",
      "type": "function"
    },
    {
      "constant": false,
      "inputs": [
        {
          "name": "authority_",
          "type": "address"
        }
      ],
      "name": "setAuthority",
      "outputs": [],
      "payable": false,
      "stateMutability": "nonpayable",
      "type": "function"
    },
    {
      "constant": false,
      "inputs": [
        {
          "name": "role",
          "type": "uint8"
        },
        {
          "name": "code",
          "type": "address"
        },
        {
          "name": "sig",
          "type": "bytes4"
        },
        {
          "name": "enabled",
          "type": "bool"
        }
      ],
      "name": "setRoleCapability",
      "outputs": [],
      "payable": false,
      "stateMutability": "nonpayable",
      "type": "function"
    },
    {
      "constant": true,
      "inputs": [],
      "name": "owner",
      "outputs": [
        {
          "name": "",
          "type": "address"
        }
      ],
      "payable": false,
      "stateMutability": "view",
      "type": "function"
    },
    {
      "constant": true,
      "inputs": [
        {
          "name": "caller",
          "type": "address"
        },
        {
          "name": "where",
          "type": "uint256"
        },
        {
          "name": "code",
          "type": "address"
        },
        {
          "name": "sig",
          "type": "bytes4"
        }
      ],
      "name": "canCall",
      "outputs": [
        {
          "name": "",
          "type": "bool"
        }
      ],
      "payable": false,
      "stateMutability": "view",
      "type": "function"
    },
    {
      "constant": true,
      "inputs": [
        {
          "name": "who",
          "type": "address"
        },
        {
          "name": "role",
          "type": "uint8"
        }
      ],
      "name": "hasUserRole",
      "outputs": [
        {
          "name": "",
          "type": "bool"
        }
      ],
      "payable": false,
      "stateMutability": "view",
      "type": "function"
    },
    {
      "constant": true,
      "inputs": [
        {
          "name": "who",
          "type": "address"
        },
        {
          "name": "where",
          "type": "uint256"
        },
        {
          "name": "role",
          "type": "uint8"
        }
      ],
      "name": "hasUserRole",
      "outputs": [
        {
          "name": "",
          "type": "bool"
        }
      ],
      "payable": false,
      "stateMutability": "view",
      "type": "function"
    },
    {
      "constant": true,
      "inputs": [
        {
          "name": "caller",
          "type": "address"
        },
        {
          "name": "where",
          "type": "uint256"
        },
        {
          "name": "role",
          "type": "uint8"
        },
        {
          "name": "code",
          "type": "address"
        },
        {
          "name": "sig",
          "type": "bytes4"
        }
      ],
      "name": "canCallOnlyBecause",
      "outputs": [
        {
          "name": "",
          "type": "bool"
        }
      ],
      "payable": false,
      "stateMutability": "view",
      "type": "function"
    },
    {
      "constant": true,
      "inputs": [
        {
          "name": "caller",
          "type": "address"
        },
        {
          "name": "code",
          "type": "address"
        },
        {
          "name": "sig",
          "type": "bytes4"
        }
      ],
      "name": "canCall",
      "outputs": [
        {
          "name": "",
          "type": "bool"
        }
      ],
      "payable": false,
      "stateMutability": "view",
      "type": "function"
    },
    {
      "constant": true,
      "inputs": [],
      "name": "authority",
      "outputs": [
        {
          "name": "",
          "type": "address"
        }
      ],
      "payable": false,
      "stateMutability": "view",
      "type": "function"
    },
    {
      "constant": false,
      "inputs": [
        {
          "name": "code",
          "type": "address"
        },
        {
          "name": "sig",
          "type": "bytes4"
        },
        {
          "name": "enabled",
          "type": "bool"
        }
      ],
      "name": "setPublicCapability",
      "outputs": [],
      "payable": false,
      "stateMutability": "nonpayable",
      "type": "function"
    },
    {
      "constant": false,
      "inputs": [
        {
          "name": "who",
          "type": "address"
        },
        {
          "name": "enabled",
          "type": "bool"
        }
      ],
      "name": "setRootUser",
      "outputs": [],
      "payable": false,
      "stateMutability": "nonpayable",
      "type": "function"
    },
    {
      "constant": true,
      "inputs": [
        {
          "name": "who",
          "type": "address"
        }
      ],
      "name": "isUserRoot",
      "outputs": [
        {
          "name": "",
          "type": "bool"
        }
      ],
      "payable": false,
      "stateMutability": "view",
      "type": "function"
    },
    {
      "inputs": [
        {
          "name": "contractAddress",
          "type": "address"
        }
      ],
      "payable": false,
      "stateMutability": "nonpayable",
      "type": "constructor"
    },
    {
      "anonymous": false,
      "inputs": [
        {
          "indexed": true,
          "name": "authority",
          "type": "address"
        }
      ],
      "name": "LogSetAuthority",
      "type": "event"
    },
    {
      "anonymous": false,
      "inputs": [
        {
          "indexed": true,
          "name": "owner",
          "type": "address"
        }
      ],
      "name": "LogSetOwner",
      "type": "event"
    }
  ],
  "bytecode": "0x60806040523480156200001157600080fd5b5060405160208062001154833981018060405260208110156200003357600080fd5b5051600180546001600160a01b031916339081179091556040517fce241d7ca1f669fee44b6fc00b8eba2df3bb514eed0f6f668f8f89096e81ed9490600090a2620000ba816040518060400160405280601381526020017f656e7465725265636f766572794d6f64652829000000000000000000000000008152506200017a60201b60201c565b62000101816040518060400160405280601581526020017f617070726f7665457869745265636f76657279282900000000000000000000008152506200017a60201b60201c565b6200012c816040518060600160405280602781526020016200112d602791396200017a60201b60201c565b62000173816040518060400160405280601281526020017f657869745265636f766572794d6f6465282900000000000000000000000000008152506200017a60201b60201c565b5062000470565b80516020820120620001976000848360016200019c60201b60201c565b505050565b620001d2336000357fffffffff00000000000000000000000000000000000000000000000000000000166200034660201b60201c565b6200023e57604080517f08c379a000000000000000000000000000000000000000000000000000000000815260206004820152601460248201527f64732d617574682d756e617574686f72697a6564000000000000000000000000604482015290519081900360640190fd5b6001600160a01b03831660009081526004602090815260408083207fffffffff000000000000000000000000000000000000000000000000000000008616845290915290205460ff851660020a8215620002e2576001600160a01b03851660009081526004602090815260408083207fffffffff0000000000000000000000000000000000000000000000000000000088168452909152902082821790556200033e565b620002f3816200046960201b60201c565b6001600160a01b03861660009081526004602090815260408083207fffffffff0000000000000000000000000000000000000000000000000000000089168452909152902090831690555b505050505050565b60006001600160a01b038316301415620003635750600162000463565b6001546001600160a01b0384811691161415620003835750600162000463565b6000546001600160a01b03166200039d5750600062000463565b600054604080517fb70096130000000000000000000000000000000000000000000000000000000081526001600160a01b0386811660048301523060248301527fffffffff00000000000000000000000000000000000000000000000000000000861660448301529151919092169163b7009613916064808301926020929190829003018186803b1580156200043257600080fd5b505afa15801562000447573d6000803e3d6000fd5b505050506040513d60208110156200045e57600080fd5b505190505b92915050565b6000191890565b610cad80620004806000396000f3fe608060405234801561001057600080fd5b50600436106101215760003560e01c80638da5cb5b116100ad578063b700961311610071578063b700961314610430578063bf7e214f14610471578063c6b0263e14610479578063d381ba7c146104b7578063fbf80773146104e557610121565b80638da5cb5b146103135780639110fc8f14610337578063a078f7371461037c578063ab2f7ae2146103ab578063ad6a1516146103e057610121565b8063595b03f0116100f4578063595b03f01461020657806367aff484146102325780636f967eb3146102695780637a9e5e4b146102a65780637d40583d146102cc57610121565b806306a36aee1461012657806313af40351461015e57806327538e90146101865780632f47571f146101bc575b600080fd5b61014c6004803603602081101561013c57600080fd5b50356001600160a01b031661050b565b60408051918252519081900360200190f35b6101846004803603602081101561017457600080fd5b50356001600160a01b0316610526565b005b61014c6004803603604081101561019c57600080fd5b5080356001600160a01b031690602001356001600160e01b0319166105ce565b6101f2600480360360408110156101d257600080fd5b5080356001600160a01b031690602001356001600160e01b031916610603565b604080519115158252519081900360200190f35b61014c6004803603604081101561021c57600080fd5b506001600160a01b03813516906020013561063a565b6101846004803603606081101561024857600080fd5b506001600160a01b038135169060ff60208201351690604001351515610662565b6101846004803603608081101561027f57600080fd5b506001600160a01b038135169060208101359060ff604082013516906060013515156106cc565b610184600480360360208110156102bc57600080fd5b50356001600160a01b03166107bc565b610184600480360360808110156102e257600080fd5b5060ff813516906001600160a01b03602082013516906001600160e01b031960408201351690606001351515610860565b61031b61096d565b604080516001600160a01b039092168252519081900360200190f35b6101f26004803603608081101561034d57600080fd5b5080356001600160a01b039081169160208101359160408201351690606001356001600160e01b03191661097c565b6101f26004803603604081101561039257600080fd5b5080356001600160a01b0316906020013560ff166109a7565b6101f2600480360360608110156103c157600080fd5b5080356001600160a01b0316906020810135906040013560ff166109bc565b6101f2600480360360a08110156103f657600080fd5b5080356001600160a01b0390811691602081013591604082013560ff1691606081013590911690608001356001600160e01b0319166109dd565b6101f26004803603606081101561044657600080fd5b5080356001600160a01b0390811691602081013590911690604001356001600160e01b031916610a10565b61031b610a27565b6101846004803603606081101561048f57600080fd5b506001600160a01b03813516906001600160e01b031960208201351690604001351515610a36565b610184600480360360408110156104cd57600080fd5b506001600160a01b0381351690602001351515610acf565b6101f2600480360360208110156104fb57600080fd5b50356001600160a01b0316610b52565b6001600160a01b031660009081526003602052604090205490565b61053c336000356001600160e01b031916610b70565b61057e5760408051600160e51b62461bcd0281526020600482015260146024820152600080516020610c62833981519152604482015290519081900360640190fd5b600180546001600160a01b0319166001600160a01b0383811691909117918290556040519116907fce241d7ca1f669fee44b6fc00b8eba2df3bb514eed0f6f668f8f89096e81ed9490600090a250565b6001600160a01b03821660009081526004602090815260408083206001600160e01b0319851684529091529020545b92915050565b6001600160a01b03821660009081526005602090815260408083206001600160e01b03198516845290915290205460ff1692915050565b6001600160a01b03919091166000908152600660209081526040808320938352929052205490565b610678336000356001600160e01b031916610b70565b6106ba5760408051600160e51b62461bcd0281526020600482015260146024820152600080516020610c62833981519152604482015290519081900360640190fd5b6106c783600184846106cc565b505050565b6106e2336000356001600160e01b031916610b70565b6107245760408051600160e51b62461bcd0281526020600482015260146024820152600080516020610c62833981519152604482015290519081900360640190fd5b6001600160a01b038416600090815260066020908152604080832086845290915290205460ff831660020a8215610782576001600160a01b0386166000908152600660209081526040808320888452909152902082821790556107b4565b61078b81610c5a565b6001600160a01b0387166000908152600660209081526040808320898452909152902090831690555b505050505050565b6107d2336000356001600160e01b031916610b70565b6108145760408051600160e51b62461bcd0281526020600482015260146024820152600080516020610c62833981519152604482015290519081900360640190fd5b600080546001600160a01b0319166001600160a01b03838116919091178083556040519116917f1abebea81bfa2637f28358c371278fb15ede7ea8dd28d2e03b112ff6d936ada491a250565b610876336000356001600160e01b031916610b70565b6108b85760408051600160e51b62461bcd0281526020600482015260146024820152600080516020610c62833981519152604482015290519081900360640190fd5b6001600160a01b03831660009081526004602090815260408083206001600160e01b03198616845290915290205460ff851660020a821561092a576001600160a01b03851660009081526004602090815260408083206001600160e01b031988168452909152902082821790556107b4565b61093381610c5a565b6001600160a01b03861660009081526004602090815260408083206001600160e01b03198916845290915290209083169055505050505050565b6001546001600160a01b031681565b600080610989868661063a565b9050600061099785856105ce565b9190911615159695505050505050565b60006109b5836001846109bc565b9392505050565b6000806109c9858561063a565b60ff841660020a1615159150509392505050565b6000806109ea878761063a565b905060006109f885856105ce565b9190911660ff861660020a1491505095945050505050565b6000610a1f846001858561097c565b949350505050565b6000546001600160a01b031681565b610a4c336000356001600160e01b031916610b70565b610a8e5760408051600160e51b62461bcd0281526020600482015260146024820152600080516020610c62833981519152604482015290519081900360640190fd5b6001600160a01b0390921660009081526005602090815260408083206001600160e01b0319909416835292905220805491151560ff19909216919091179055565b610ae5336000356001600160e01b031916610b70565b610b275760408051600160e51b62461bcd0281526020600482015260146024820152600080516020610c62833981519152604482015290519081900360640190fd5b6001600160a01b03919091166000908152600260205260409020805460ff1916911515919091179055565b6001600160a01b031660009081526002602052604090205460ff1690565b60006001600160a01b038316301415610b8b575060016105fd565b6001546001600160a01b0384811691161415610ba9575060016105fd565b6000546001600160a01b0316610bc1575060006105fd565b60005460408051600160e01b63b70096130281526001600160a01b0386811660048301523060248301526001600160e01b0319861660448301529151919092169163b7009613916064808301926020929190829003018186803b158015610c2757600080fd5b505afa158015610c3b573d6000803e3d6000fd5b505050506040513d6020811015610c5157600080fd5b505190506105fd565b600019189056fe64732d617574682d756e617574686f72697a6564000000000000000000000000a165627a7a723058202f250dd2a5a88a9fe92bb52a5cd33189f21233e22e19f28803fc5c3ddfa4811d002973657453746f72616765536c6f745265636f766572792875696e743235362c6279746573333229",
  "source": "/*\n  This file is part of The Colony Network.\n\n  The Colony Network is free software: you can redistribute it and/or modify\n  it under the terms of the GNU General Public License as published by\n  the Free Software Foundation, either version 3 of the License, or\n  (at your option) any later version.\n\n  The Colony Network is distributed in the hope that it will be useful,\n  but WITHOUT ANY WARRANTY; without even the implied warranty of\n  MERCHANTABILITY or FITNESS FOR A PARTICULAR PURPOSE.  See the\n  GNU General Public License for more details.\n\n  You should have received a copy of the GNU General Public License\n  along with The Colony Network. If not, see <http://www.gnu.org/licenses/>.\n*/\n\npragma solidity 0.5.8;\n\nimport \"./ColonyDataTypes.sol\";\nimport \"./DomainRoles.sol\";\n\n\ncontract CommonAuthority is DomainRoles {\n  uint8 constant RECOVERY_ROLE = uint8(ColonyDataTypes.ColonyRole.Recovery);\n\n  constructor(address contractAddress) public {\n    setRecoveryRoleCapability(contractAddress, \"enterRecoveryMode()\");\n    setRecoveryRoleCapability(contractAddress, \"approveExitRecovery()\");\n    setRecoveryRoleCapability(contractAddress, \"setStorageSlotRecovery(uint256,bytes32)\");\n    setRecoveryRoleCapability(contractAddress, \"exitRecoveryMode()\");\n  }\n\n  function setRecoveryRoleCapability(address contractAddress, bytes memory sig) private {\n    bytes4 functionSig = bytes4(keccak256(sig));\n    setRoleCapability(RECOVERY_ROLE, contractAddress, functionSig, true);\n  }\n}\n",
  "sourcePath": "/Users/kronosapiens/code/colony/warsaw/les-contracts/contracts/lib/colony/CommonAuthority.sol",
  "compiler": {
    "name": "solc",
    "version": "0.5.8+commit.23d335f2.Linux.g++"
  },
  "schemaVersion": "3.0.13",
  "updatedAt": "2019-08-24T12:51:17.607Z",
  "devdoc": {
    "methods": {}
  },
  "userdoc": {
    "methods": {}
  }
}