{
  "contractName": "DSRoles",
  "abi": [
    {
      "constant": false,
      "inputs": [
        {
          "name": "owner_",
          "type": "address"
        }
      ],
      "name": "setOwner",
      "outputs": [],
      "payable": false,
      "stateMutability": "nonpayable",
      "type": "function"
    },
    {
      "constant": false,
      "inputs": [
        {
          "name": "authority_",
          "type": "address"
        }
      ],
      "name": "setAuthority",
      "outputs": [],
      "payable": false,
      "stateMutability": "nonpayable",
      "type": "function"
    },
    {
      "constant": true,
      "inputs": [],
      "name": "owner",
      "outputs": [
        {
          "name": "",
          "type": "address"
        }
      ],
      "payable": false,
      "stateMutability": "view",
      "type": "function"
    },
    {
      "constant": true,
      "inputs": [],
      "name": "authority",
      "outputs": [
        {
          "name": "",
          "type": "address"
        }
      ],
      "payable": false,
      "stateMutability": "view",
      "type": "function"
    },
    {
      "anonymous": false,
      "inputs": [
        {
          "indexed": true,
          "name": "authority",
          "type": "address"
        }
      ],
      "name": "LogSetAuthority",
      "type": "event"
    },
    {
      "anonymous": false,
      "inputs": [
        {
          "indexed": true,
          "name": "owner",
          "type": "address"
        }
      ],
      "name": "LogSetOwner",
      "type": "event"
    },
    {
      "constant": true,
      "inputs": [
        {
          "name": "who",
          "type": "address"
        }
      ],
      "name": "getUserRoles",
      "outputs": [
        {
          "name": "",
          "type": "bytes32"
        }
      ],
      "payable": false,
      "stateMutability": "view",
      "type": "function"
    },
    {
      "constant": true,
      "inputs": [
        {
          "name": "code",
          "type": "address"
        },
        {
          "name": "sig",
          "type": "bytes4"
        }
      ],
      "name": "getCapabilityRoles",
      "outputs": [
        {
          "name": "",
          "type": "bytes32"
        }
      ],
      "payable": false,
      "stateMutability": "view",
      "type": "function"
    },
    {
      "constant": true,
      "inputs": [
        {
          "name": "who",
          "type": "address"
        }
      ],
      "name": "isUserRoot",
      "outputs": [
        {
          "name": "",
          "type": "bool"
        }
      ],
      "payable": false,
      "stateMutability": "view",
      "type": "function"
    },
    {
      "constant": true,
      "inputs": [
        {
          "name": "code",
          "type": "address"
        },
        {
          "name": "sig",
          "type": "bytes4"
        }
      ],
      "name": "isCapabilityPublic",
      "outputs": [
        {
          "name": "",
          "type": "bool"
        }
      ],
      "payable": false,
      "stateMutability": "view",
      "type": "function"
    },
    {
      "constant": true,
      "inputs": [
        {
          "name": "who",
          "type": "address"
        },
        {
          "name": "role",
          "type": "uint8"
        }
      ],
      "name": "hasUserRole",
      "outputs": [
        {
          "name": "",
          "type": "bool"
        }
      ],
      "payable": false,
      "stateMutability": "view",
      "type": "function"
    },
    {
      "constant": true,
      "inputs": [
        {
          "name": "caller",
          "type": "address"
        },
        {
          "name": "code",
          "type": "address"
        },
        {
          "name": "sig",
          "type": "bytes4"
        }
      ],
      "name": "canCall",
      "outputs": [
        {
          "name": "",
          "type": "bool"
        }
      ],
      "payable": false,
      "stateMutability": "view",
      "type": "function"
    },
    {
      "constant": false,
      "inputs": [
        {
          "name": "who",
          "type": "address"
        },
        {
          "name": "enabled",
          "type": "bool"
        }
      ],
      "name": "setRootUser",
      "outputs": [],
      "payable": false,
      "stateMutability": "nonpayable",
      "type": "function"
    },
    {
      "constant": false,
      "inputs": [
        {
          "name": "who",
          "type": "address"
        },
        {
          "name": "role",
          "type": "uint8"
        },
        {
          "name": "enabled",
          "type": "bool"
        }
      ],
      "name": "setUserRole",
      "outputs": [],
      "payable": false,
      "stateMutability": "nonpayable",
      "type": "function"
    },
    {
      "constant": false,
      "inputs": [
        {
          "name": "code",
          "type": "address"
        },
        {
          "name": "sig",
          "type": "bytes4"
        },
        {
          "name": "enabled",
          "type": "bool"
        }
      ],
      "name": "setPublicCapability",
      "outputs": [],
      "payable": false,
      "stateMutability": "nonpayable",
      "type": "function"
    },
    {
      "constant": false,
      "inputs": [
        {
          "name": "role",
          "type": "uint8"
        },
        {
          "name": "code",
          "type": "address"
        },
        {
          "name": "sig",
          "type": "bytes4"
        },
        {
          "name": "enabled",
          "type": "bool"
        }
      ],
      "name": "setRoleCapability",
      "outputs": [],
      "payable": false,
      "stateMutability": "nonpayable",
      "type": "function"
    }
  ],
  "bytecode": "0x60806040819052600180546001600160a01b03191633908117909155907fce241d7ca1f669fee44b6fc00b8eba2df3bb514eed0f6f668f8f89096e81ed9490600090a2610a5b806100516000396000f3fe608060405234801561001057600080fd5b50600436106100ea5760003560e01c80638da5cb5b1161008c578063bf7e214f11610066578063bf7e214f14610307578063c6b0263e1461030f578063d381ba7c1461034d578063fbf807731461037b576100ea565b80638da5cb5b14610273578063a078f73714610297578063b7009613146102c6576100ea565b80632f47571f116100c85780632f47571f1461018557806367aff484146101cf5780637a9e5e4b146102065780637d40583d1461022c576100ea565b806306a36aee146100ef57806313af40351461012757806327538e901461014f575b600080fd5b6101156004803603602081101561010557600080fd5b50356001600160a01b03166103a1565b60408051918252519081900360200190f35b61014d6004803603602081101561013d57600080fd5b50356001600160a01b03166103bc565b005b6101156004803603604081101561016557600080fd5b5080356001600160a01b031690602001356001600160e01b031916610464565b6101bb6004803603604081101561019b57600080fd5b5080356001600160a01b031690602001356001600160e01b031916610499565b604080519115158252519081900360200190f35b61014d600480360360608110156101e557600080fd5b506001600160a01b038135169060ff602082013516906040013515156104d0565b61014d6004803603602081101561021c57600080fd5b50356001600160a01b031661059e565b61014d6004803603608081101561024257600080fd5b5060ff813516906001600160a01b03602082013516906001600160e01b031960408201351690606001351515610642565b61027b610750565b604080516001600160a01b039092168252519081900360200190f35b6101bb600480360360408110156102ad57600080fd5b5080356001600160a01b0316906020013560ff1661075f565b6101bb600480360360608110156102dc57600080fd5b5080356001600160a01b0390811691602081013590911690604001356001600160e01b03191661077e565b61027b6107d5565b61014d6004803603606081101561032557600080fd5b506001600160a01b03813516906001600160e01b0319602082013516906040013515156107e4565b61014d6004803603604081101561036357600080fd5b506001600160a01b038135169060200135151561087d565b6101bb6004803603602081101561039157600080fd5b50356001600160a01b0316610900565b6001600160a01b031660009081526003602052604090205490565b6103d2336000356001600160e01b03191661091e565b6104145760408051600160e51b62461bcd0281526020600482015260146024820152600080516020610a10833981519152604482015290519081900360640190fd5b600180546001600160a01b0319166001600160a01b0383811691909117918290556040519116907fce241d7ca1f669fee44b6fc00b8eba2df3bb514eed0f6f668f8f89096e81ed9490600090a250565b6001600160a01b03821660009081526004602090815260408083206001600160e01b0319851684529091529020545b92915050565b6001600160a01b03821660009081526005602090815260408083206001600160e01b03198516845290915290205460ff1692915050565b6104e6336000356001600160e01b03191661091e565b6105285760408051600160e51b62461bcd0281526020600482015260146024820152600080516020610a10833981519152604482015290519081900360640190fd5b6001600160a01b03831660009081526003602052604090205460ff831660020a8215610570576001600160a01b03851660009081526003602052604090208282179055610597565b61057981610a08565b6001600160a01b038616600090815260036020526040902090831690555b5050505050565b6105b4336000356001600160e01b03191661091e565b6105f65760408051600160e51b62461bcd0281526020600482015260146024820152600080516020610a10833981519152604482015290519081900360640190fd5b600080546001600160a01b0319166001600160a01b03838116919091178083556040519116917f1abebea81bfa2637f28358c371278fb15ede7ea8dd28d2e03b112ff6d936ada491a250565b610658336000356001600160e01b03191661091e565b61069a5760408051600160e51b62461bcd0281526020600482015260146024820152600080516020610a10833981519152604482015290519081900360640190fd5b6001600160a01b03831660009081526004602090815260408083206001600160e01b03198616845290915290205460ff851660020a821561070c576001600160a01b03851660009081526004602090815260408083206001600160e01b03198816845290915290208282179055610748565b61071581610a08565b6001600160a01b03861660009081526004602090815260408083206001600160e01b031989168452909152902090831690555b505050505050565b6001546001600160a01b031681565b60008061076b846103a1565b60ff841660020a16151591505092915050565b600061078984610900565b8061079957506107998383610499565b156107a6575060016107ce565b60006107b1856103a1565b905060006107bf8585610464565b91909116151591506107ce9050565b9392505050565b6000546001600160a01b031681565b6107fa336000356001600160e01b03191661091e565b61083c5760408051600160e51b62461bcd0281526020600482015260146024820152600080516020610a10833981519152604482015290519081900360640190fd5b6001600160a01b0390921660009081526005602090815260408083206001600160e01b0319909416835292905220805491151560ff19909216919091179055565b610893336000356001600160e01b03191661091e565b6108d55760408051600160e51b62461bcd0281526020600482015260146024820152600080516020610a10833981519152604482015290519081900360640190fd5b6001600160a01b03919091166000908152600260205260409020805460ff1916911515919091179055565b6001600160a01b031660009081526002602052604090205460ff1690565b60006001600160a01b03831630141561093957506001610493565b6001546001600160a01b038481169116141561095757506001610493565b6000546001600160a01b031661096f57506000610493565b60005460408051600160e01b63b70096130281526001600160a01b0386811660048301523060248301526001600160e01b0319861660448301529151919092169163b7009613916064808301926020929190829003018186803b1580156109d557600080fd5b505afa1580156109e9573d6000803e3d6000fd5b505050506040513d60208110156109ff57600080fd5b50519050610493565b600019189056fe64732d617574682d756e617574686f72697a6564000000000000000000000000a165627a7a7230582079926b0841912e0167e13a11783f24ee41162c45009870afdce161e644d8454d0029",
  "source": "// roles.sol - roled based authentication\n\n// Copyright (C) 2017  DappHub, LLC\n\n// This program is free software: you can redistribute it and/or modify\n// it under the terms of the GNU General Public License as published by\n// the Free Software Foundation, either version 3 of the License, or\n// (at your option) any later version.\n\n// This program is distributed in the hope that it will be useful,\n// but WITHOUT ANY WARRANTY; without even the implied warranty of\n// MERCHANTABILITY or FITNESS FOR A PARTICULAR PURPOSE.  See the\n// GNU General Public License for more details.\n\n// You should have received a copy of the GNU General Public License\n// along with this program.  If not, see <http://www.gnu.org/licenses/>.\n\npragma solidity >=0.4.23;\n\nimport \"./auth.sol\";\n\ncontract DSRoles is DSAuth, DSAuthority\n{\n    mapping(address=>bool) _root_users;\n    mapping(address=>bytes32) _user_roles;\n    mapping(address=>mapping(bytes4=>bytes32)) _capability_roles;\n    mapping(address=>mapping(bytes4=>bool)) _public_capabilities;\n\n    function getUserRoles(address who)\n        public\n        view\n        returns (bytes32)\n    {\n        return _user_roles[who];\n    }\n\n    function getCapabilityRoles(address code, bytes4 sig)\n        public\n        view\n        returns (bytes32)\n    {\n        return _capability_roles[code][sig];\n    }\n\n    function isUserRoot(address who)\n        public\n        view\n        returns (bool)\n    {\n        return _root_users[who];\n    }\n\n    function isCapabilityPublic(address code, bytes4 sig)\n        public\n        view\n        returns (bool)\n    {\n        return _public_capabilities[code][sig];\n    }\n\n    function hasUserRole(address who, uint8 role)\n        public\n        view\n        returns (bool)\n    {\n        bytes32 roles = getUserRoles(who);\n        bytes32 shifted = bytes32(uint256(uint256(2) ** uint256(role)));\n        return bytes32(0) != roles & shifted;\n    }\n\n    function canCall(address caller, address code, bytes4 sig)\n        public\n        view\n        returns (bool)\n    {\n        if( isUserRoot(caller) || isCapabilityPublic(code, sig) ) {\n            return true;\n        } else {\n            bytes32 has_roles = getUserRoles(caller);\n            bytes32 needs_one_of = getCapabilityRoles(code, sig);\n            return bytes32(0) != has_roles & needs_one_of;\n        }\n    }\n\n    function BITNOT(bytes32 input) internal pure returns (bytes32 output) {\n        return (input ^ bytes32(uint(-1)));\n    }\n\n    function setRootUser(address who, bool enabled)\n        public\n        auth\n    {\n        _root_users[who] = enabled;\n    }\n\n    function setUserRole(address who, uint8 role, bool enabled)\n        public\n        auth\n    {\n        bytes32 last_roles = _user_roles[who];\n        bytes32 shifted = bytes32(uint256(uint256(2) ** uint256(role)));\n        if( enabled ) {\n            _user_roles[who] = last_roles | shifted;\n        } else {\n            _user_roles[who] = last_roles & BITNOT(shifted);\n        }\n    }\n\n    function setPublicCapability(address code, bytes4 sig, bool enabled)\n        public\n        auth\n    {\n        _public_capabilities[code][sig] = enabled;\n    }\n\n    function setRoleCapability(uint8 role, address code, bytes4 sig, bool enabled)\n        public\n        auth\n    {\n        bytes32 last_roles = _capability_roles[code][sig];\n        bytes32 shifted = bytes32(uint256(uint256(2) ** uint256(role)));\n        if( enabled ) {\n            _capability_roles[code][sig] = last_roles | shifted;\n        } else {\n            _capability_roles[code][sig] = last_roles & BITNOT(shifted);\n        }\n\n    }\n\n}\n",
  "sourcePath": "/Users/kronosapiens/code/colony/warsaw/les-contracts/contracts/lib/dappsys/roles.sol",
  "compiler": {
    "name": "solc",
    "version": "0.5.8+commit.23d335f2.Linux.g++"
  },
  "schemaVersion": "3.0.13",
  "updatedAt": "2019-08-24T12:51:17.645Z",
  "devdoc": {
    "methods": {}
  },
  "userdoc": {
    "methods": {}
  }
}