{
  "contractName": "OneTxPayment",
  "abi": [
    {
      "inputs": [
        {
          "name": "_colony",
          "type": "address"
        }
      ],
      "payable": false,
      "stateMutability": "nonpayable",
      "type": "constructor"
    },
    {
      "constant": false,
      "inputs": [
        {
          "name": "_permissionDomainId",
          "type": "uint256"
        },
        {
          "name": "_childSkillIndex",
          "type": "uint256"
        },
        {
          "name": "_callerPermissionDomainId",
          "type": "uint256"
        },
        {
          "name": "_callerChildSkillIndex",
          "type": "uint256"
        },
        {
          "name": "_worker",
          "type": "address"
        },
        {
          "name": "_token",
          "type": "address"
        },
        {
          "name": "_amount",
          "type": "uint256"
        },
        {
          "name": "_domainId",
          "type": "uint256"
        },
        {
          "name": "_skillId",
          "type": "uint256"
        }
      ],
      "name": "makePayment",
      "outputs": [],
      "payable": false,
      "stateMutability": "nonpayable",
      "type": "function"
    },
    {
      "constant": false,
      "inputs": [
        {
          "name": "_permissionDomainId",
          "type": "uint256"
        },
        {
          "name": "_childSkillIndex",
          "type": "uint256"
        },
        {
          "name": "_callerPermissionDomainId",
          "type": "uint256"
        },
        {
          "name": "_callerChildSkillIndex",
          "type": "uint256"
        },
        {
          "name": "_worker",
          "type": "address"
        },
        {
          "name": "_token",
          "type": "address"
        },
        {
          "name": "_amount",
          "type": "uint256"
        },
        {
          "name": "_domainId",
          "type": "uint256"
        },
        {
          "name": "_skillId",
          "type": "uint256"
        }
      ],
      "name": "makePaymentFundedFromDomain",
      "outputs": [],
      "payable": false,
      "stateMutability": "nonpayable",
      "type": "function"
    }
  ],
  "bytecode": "0x60806040523480156200001157600080fd5b50604051602080620016df83398101806040526200003391908101906200011e565b600080546001600160a01b0319166001600160a01b038381169190911791829055604080517f4e5e839500000000000000000000000000000000000000000000000000000000815290519290911691634e5e839591600480820192602092909190829003018186803b158015620000a957600080fd5b505afa158015620000be573d6000803e3d6000fd5b505050506040513d601f19601f82011682018060405250620000e491908101906200011e565b600180546001600160a01b0319166001600160a01b03929092169190911790555062000173565b8051620001188162000159565b92915050565b6000602082840312156200013157600080fd5b60006200013f84846200010b565b949350505050565b60006001600160a01b03821662000118565b620001648162000147565b81146200017057600080fd5b50565b61155c80620001836000396000f3fe608060405234801561001057600080fd5b50600436106100365760003560e01c806360c627be1461003b578063f23efb5014610050575b600080fd5b61004e610049366004610e8a565b610063565b005b61004e61005e366004610e8a565b610383565b61006e878784610768565b60008054604051600160e01b634f8df6430281526001600160a01b0390911690634f8df643906100ae908d908d908b908b908b908b908b9060040161139d565b602060405180830381600087803b1580156100c857600080fd5b505af11580156100dc573d6000803e3d6000fd5b505050506040513d601f19601f820116820180604052506101009190810190610e6c565b905061010a610be3565b600054604051600160e11b631940541b0281526001600160a01b0390911690633280a8369061013d908590600401611352565b60006040518083038186803b15801561015557600080fd5b505afa158015610169573d6000803e3d6000fd5b505050506040513d6000823e601f3d908101601f191682016040526101919190810190610e37565b905061019b610c1d565b600054604051600160e11b630d3d4c710281526001600160a01b0390911690631a7a98e2906101ce908890600401611352565b604080518083038186803b1580156101e557600080fd5b505afa1580156101f9573d6000803e3d6000fd5b505050506040513d601f19601f8201168201806040525061021d9190810190610e19565b90506000809054906101000a90046001600160a01b03166001600160a01b031663c68d19ea8d8d8e856020015187604001518c8e6040518863ffffffff1660e01b81526004016102739796959493929190611421565b600060405180830381600087803b15801561028d57600080fd5b505af11580156102a1573d6000803e3d6000fd5b5050600054604051600160e51b6306cb0d210281526001600160a01b03909116925063d961a42091506102dc908f908f9088906004016113f9565b600060405180830381600087803b1580156102f657600080fd5b505af115801561030a573d6000803e3d6000fd5b5050600054604051600160e01b630f4c52f30281526001600160a01b039091169250630f4c52f391506103439086908b90600401611360565b600060405180830381600087803b15801561035d57600080fd5b505af1158015610371573d6000803e3d6000fd5b50505050505050505050505050505050565b61038e878784610768565b6000809054906101000a90046001600160a01b03166001600160a01b031663bf7e214f6040518163ffffffff1660e01b815260040160206040518083038186803b1580156103db57600080fd5b505afa1580156103ef573d6000803e3d6000fd5b505050506040513d601f19601f820116820180604052506104139190810190610dd5565b6001600160a01b0316639110fc8f3360016000809054906101000a90046001600160a01b031660405161044590611236565b60405190819003812063ffffffff861660e01b825261046994939291600401611241565b60206040518083038186803b15801561048157600080fd5b505afa158015610495573d6000803e3d6000fd5b505050506040513d601f19601f820116820180604052506104b99190810190610dfb565b6104e157604051600160e51b62461bcd0281526004016104d890611312565b60405180910390fd5b60008054604051600160e01b634f8df6430281526001600160a01b0390911690634f8df64390610521908d908d908b908b908b908b908b9060040161139d565b602060405180830381600087803b15801561053b57600080fd5b505af115801561054f573d6000803e3d6000fd5b505050506040513d601f19601f820116820180604052506105739190810190610e6c565b905061057d610be3565b600054604051600160e11b631940541b0281526001600160a01b0390911690633280a836906105b0908590600401611352565b60006040518083038186803b1580156105c857600080fd5b505afa1580156105dc573d6000803e3d6000fd5b505050506040513d6000823e601f3d908101601f191682016040526106049190810190610e37565b90506000809054906101000a90046001600160a01b03166001600160a01b031663c68d19ea600160008d600186604001518b8d6040518863ffffffff1660e01b8152600401610659979695949392919061129a565b600060405180830381600087803b15801561067357600080fd5b505af1158015610687573d6000803e3d6000fd5b5050600054604051600160e51b6306cb0d210281526001600160a01b03909116925063d961a42091506106c2908e908e9087906004016113f9565b600060405180830381600087803b1580156106dc57600080fd5b505af11580156106f0573d6000803e3d6000fd5b5050600054604051600160e01b630f4c52f30281526001600160a01b039091169250630f4c52f391506107299085908a90600401611360565b600060405180830381600087803b15801561074357600080fd5b505af1158015610757573d6000803e3d6000fd5b505050505050505050505050505050565b6000809054906101000a90046001600160a01b03166001600160a01b031663bf7e214f6040518163ffffffff1660e01b815260040160206040518083038186803b1580156107b557600080fd5b505afa1580156107c9573d6000803e3d6000fd5b505050506040513d601f19601f820116820180604052506107ed9190810190610dd5565b6001600160a01b0316639110fc8f33856000809054906101000a90046001600160a01b031660405161081e9061122b565b60405190819003812063ffffffff861660e01b82526108429493929160040161127f565b60206040518083038186803b15801561085a57600080fd5b505afa15801561086e573d6000803e3d6000fd5b505050506040513d601f19601f820116820180604052506108929190810190610dfb565b6108b157604051600160e51b62461bcd0281526004016104d890611302565b6000809054906101000a90046001600160a01b03166001600160a01b031663bf7e214f6040518163ffffffff1660e01b815260040160206040518083038186803b1580156108fe57600080fd5b505afa158015610912573d6000803e3d6000fd5b505050506040513d601f19601f820116820180604052506109369190810190610dd5565b6001600160a01b0316639110fc8f33856000809054906101000a90046001600160a01b031660405161096790611236565b60405190819003812063ffffffff861660e01b825261098b9493929160040161127f565b60206040518083038186803b1580156109a357600080fd5b505afa1580156109b7573d6000803e3d6000fd5b505050506040513d601f19601f820116820180604052506109db9190810190610dfb565b6109fa57604051600160e51b62461bcd0281526004016104d890611342565b808314610bde5760008054604051600160e11b630d3d4c710281526001600160a01b0390911690631a7a98e290610a35908790600401611352565b604080518083038186803b158015610a4c57600080fd5b505afa158015610a60573d6000803e3d6000fd5b505050506040513d601f19601f82011682018060405250610a849190810190610e19565b5160008054604051600160e11b630d3d4c7102815292935090916001600160a01b0390911690631a7a98e290610abe908690600401611352565b604080518083038186803b158015610ad557600080fd5b505afa158015610ae9573d6000803e3d6000fd5b505050506040513d601f19601f82011682018060405250610b0d9190810190610e19565b51905080610b3057604051600160e51b62461bcd0281526004016104d890611322565b600154604051600160e11b6304e8852f0281526000916001600160a01b0316906309d10a5e90610b669086908990600401611382565b60206040518083038186803b158015610b7e57600080fd5b505afa158015610b92573d6000803e3d6000fd5b505050506040513d601f19601f82011682018060405250610bb69190810190610e6c565b9050818114610bda57604051600160e51b62461bcd0281526004016104d890611332565b5050505b505050565b6040518060a0016040528060006001600160a01b031681526020016000151581526020016000815260200160008152602001606081525090565b604051806040016040528060008152602001600081525090565b8035610c42816114f9565b92915050565b8051610c42816114f9565b600082601f830112610c6457600080fd5b8151610c77610c728261147d565b611456565b91508181835260208401935060208101905083856020840282011115610c9c57600080fd5b60005b83811015610cc85781610cb28882610dca565b8452506020928301929190910190600101610c9f565b5050505092915050565b8051610c4281611510565b600060408284031215610cef57600080fd5b610cf96040611456565b90506000610d078484610dca565b8252506020610d1884848301610dca565b60208301525092915050565b600060a08284031215610d3657600080fd5b610d4060a0611456565b90506000610d4e8484610c48565b8252506020610d5f84848301610cd2565b6020830152506040610d7384828501610dca565b6040830152506060610d8784828501610dca565b606083015250608082015167ffffffffffffffff811115610da757600080fd5b610db384828501610c53565b60808301525092915050565b8035610c4281611519565b8051610c4281611519565b600060208284031215610de757600080fd5b6000610df38484610c48565b949350505050565b600060208284031215610e0d57600080fd5b6000610df38484610cd2565b600060408284031215610e2b57600080fd5b6000610df38484610cdd565b600060208284031215610e4957600080fd5b815167ffffffffffffffff811115610e6057600080fd5b610df384828501610d24565b600060208284031215610e7e57600080fd5b6000610df38484610dca565b60008060008060008060008060006101208a8c031215610ea957600080fd5b6000610eb58c8c610dbf565b9950506020610ec68c828d01610dbf565b9850506040610ed78c828d01610dbf565b9750506060610ee88c828d01610dbf565b9650506080610ef98c828d01610c37565b95505060a0610f0a8c828d01610c37565b94505060c0610f1b8c828d01610dbf565b93505060e0610f2c8c828d01610dbf565b925050610100610f3e8c828d01610dbf565b9150509295985092959850929598565b610f57816114d8565b82525050565b610f57816114ac565b610f57816114bc565b610f57816114e3565b6000610f856043836114a7565b7f6164645061796d656e742875696e743235362c75696e743235362c616464726581527f73732c616464726573732c75696e743235362c75696e743235362c75696e74326020820152600160e81b6235362902604082015260430192915050565b6000610ff360338361149e565b7f636f6c6f6e792d6f6e652d74782d7061796d656e742d61646d696e697374726181527f74696f6e2d6e6f742d617574686f72697a656400000000000000000000000000602082015260400192915050565b600061105260318361149e565b7f636f6c6f6e792d6f6e652d74782d7061796d656e742d726f6f742d66756e646981527f6e672d6e6f742d617574686f72697a6564000000000000000000000000000000602082015260400192915050565b60006110b1604d836114a7565b7f6d6f766546756e64734265747765656e506f74732875696e743235362c75696e81527f743235362c75696e743235362c75696e743235362c75696e743235362c75696e60208201527f743235362c6164647265737329000000000000000000000000000000000000006040820152604d0192915050565b6000611136602b8361149e565b7f636f6c6f6e792d6f6e652d74782d7061796d656e742d646f6d61696e2d646f658152600160aa1b6a1ccb5b9bdd0b595e1a5cdd02602082015260400192915050565b600061118660258361149e565b7f636f6c6f6e792d6f6e652d74782d7061796d656e742d6261642d6368696c642d8152600160da1b641cdada5b1b02602082015260400192915050565b60006111d0602c8361149e565b7f636f6c6f6e792d6f6e652d74782d7061796d656e742d66756e64696e672d6e6f81527f742d617574686f72697a65640000000000000000000000000000000000000000602082015260400192915050565b610f57816114d5565b6000610c4282610f78565b6000610c42826110a4565b6080810161124f8287610f4e565b61125c6020830186610f6f565b6112696040830185610f5d565b6112766060830184610f66565b95945050505050565b6080810161128d8287610f4e565b61125c6020830186611222565b60e081016112a8828a610f6f565b6112b56020830189610f6f565b6112c26040830188611222565b6112cf6060830187610f6f565b6112dc6080830186611222565b6112e960a0830185611222565b6112f660c0830184610f5d565b98975050505050505050565b60208082528101610c4281610fe6565b60208082528101610c4281611045565b60208082528101610c4281611129565b60208082528101610c4281611179565b60208082528101610c42816111c3565b60208101610c428284611222565b6040810161136e8285611222565b61137b6020830184610f5d565b9392505050565b604081016113908285611222565b61137b6020830184611222565b60e081016113ab828a611222565b6113b86020830189611222565b6113c56040830188610f5d565b6113d26060830187610f5d565b6113df6080830186611222565b6113ec60a0830185611222565b6112f660c0830184611222565b606081016114078286611222565b6114146020830185611222565b610df36040830184611222565b60e0810161142f828a611222565b61143c6020830189611222565b6114496040830188611222565b6112cf6060830187611222565b60405181810167ffffffffffffffff8111828210171561147557600080fd5b604052919050565b600067ffffffffffffffff82111561149457600080fd5b5060209081020190565b90815260200190565b919050565b6000610c42826114c9565b151590565b6001600160e01b03191690565b6001600160a01b031690565b90565b6000610c42826114ee565b6000610c42826114d5565b6000610c42826114ac565b611502816114ac565b811461150d57600080fd5b50565b611502816114b7565b611502816114d556fea265627a7a72305820e793ad9953477779b4ba947d4e2dc2b9c11f1cb3d97469b886d96b8235c581016c6578706572696d656e74616cf50037",
  "source": "/*\n  This file is part of The Colony Network.\n\n  The Colony Network is free software: you can redistribute it and/or modify\n  it under the terms of the GNU General Public License as published by\n  the Free Software Foundation, either version 3 of the License, or\n  (at your option) any later version.\n\n  The Colony Network is distributed in the hope that it will be useful,\n  but WITHOUT ANY WARRANTY; without even the implied warranty of\n  MERCHANTABILITY or FITNESS FOR A PARTICULAR PURPOSE.  See the\n  GNU General Public License for more details.\n\n  You should have received a copy of the GNU General Public License\n  along with The Colony Network. If not, see <http://www.gnu.org/licenses/>.\n*/\n\npragma solidity 0.5.8;\npragma experimental ABIEncoderV2;\n\nimport \"./ColonyAuthority.sol\";\nimport \"./ColonyDataTypes.sol\";\nimport \"./IColony.sol\";\nimport \"./IColonyNetwork.sol\";\n\n\ncontract OneTxPayment {\n  bytes4 constant ADD_PAYMENT_SIG = bytes4(keccak256(\"addPayment(uint256,uint256,address,address,uint256,uint256,uint256)\"));\n  bytes4 constant MOVE_FUNDS_SIG = bytes4(keccak256(\"moveFundsBetweenPots(uint256,uint256,uint256,uint256,uint256,uint256,address)\"));\n\n  IColony colony;\n  IColonyNetwork colonyNetwork;\n\n  constructor(address _colony) public {\n    colony = IColony(_colony);\n    colonyNetwork = IColonyNetwork(colony.getColonyNetwork());\n  }\n\n  /// @notice Completes a colony payment in a single transaction\n  /// @dev Assumes that each entity holds administration and funding roles in the same domain,\n  /// although contract and caller can have the permissions in different domains.\n  /// Payment is taken from root domain, and the caller must have funding permission explicitly in the root domain\n  /// @param _permissionDomainId The domainId in which the _contract_ has permissions to add a payment and fund it\n  /// @param _childSkillIndex Index of the _permissionDomainId skill.children array to get\n  /// @param _callerPermissionDomainId The domainId in which the _caller_ has permissions to add a payment and fund it\n  /// @param _callerChildSkillIndex Index of the _callerPermissionDomainId skill.children array to get\n  /// @param _worker The address of the recipient of the payment\n  /// @param _token The address of the token the payment is being made in. 0x00 for Ether.\n  /// @param _amount The amount of the token being paid out\n  /// @param _domainId The Id of the domain the payment should be coming from\n  /// @param _skillId The Id of the skill that the payment should be marked with, possibly awarding reputation in this skill.\n  function makePayment(\n    uint256 _permissionDomainId,\n    uint256 _childSkillIndex,\n    uint256 _callerPermissionDomainId,\n    uint256 _callerChildSkillIndex,\n    address payable _worker,\n    address _token,\n    uint256 _amount,\n    uint256 _domainId,\n    uint256 _skillId) public\n  {\n    // Check caller is able to call {add,finalize}Payment and moveFundsBetweenPots on the colony in the domain in question\n    validateCallerPermissions(_callerPermissionDomainId, _callerChildSkillIndex, _domainId);\n    // In addition, check the caller is able to call moveFundsBetweenPots from the root domain\n    require(\n      ColonyAuthority(colony.authority()).canCall(msg.sender, 1, address(colony), MOVE_FUNDS_SIG),\n      \"colony-one-tx-payment-root-funding-not-authorized\"\n    );\n\n    // Add a new payment\n    uint256 paymentId = colony.addPayment(_permissionDomainId, _childSkillIndex, _worker, _token, _amount, _domainId, _skillId);\n    ColonyDataTypes.Payment memory payment = colony.getPayment(paymentId);\n\n    // Fund the payment\n    colony.moveFundsBetweenPots(\n      1, // Root domain always 1\n      0, // Not used, this extension contract must have funding permission in the root for this function to work\n      _childSkillIndex,\n      1, // Root domain funding pot is always 1\n      payment.fundingPotId,\n      _amount,\n      _token\n    );\n    colony.finalizePayment(_permissionDomainId, _childSkillIndex, paymentId);\n\n    // Claim payout on behalf of the recipient\n    colony.claimPayment(paymentId, _token);\n  }\n\n\n  /// @notice Completes a colony payment in a single transaction\n  /// @dev Assumes that each entity holds administration and funding roles in the same domain,\n  /// although contract and caller can have the permissions in different domains.\n  /// Payment is taken from domain funds - if the domain does not have sufficient funds, call will fail.\n  /// @param _permissionDomainId The domainId in which the _contract_ has permissions to add a payment and fund it\n  /// @param _childSkillIndex Index of the _permissionDomainId skill.children array to get\n  /// @param _callerPermissionDomainId The domainId in which the _caller_ has permissions to add a payment and fund it\n  /// @param _callerChildSkillIndex Index of the _callerPermissionDomainId skill.children array to get\n  /// @param _worker The address of the recipient of the payment\n  /// @param _token The address of the token the payment is being made in. 0x00 for Ether.\n  /// @param _amount The amount of the token being paid out\n  /// @param _domainId The Id of the domain the payment should be coming from\n  /// @param _skillId The Id of the skill that the payment should be marked with, possibly awarding reputation in this skill.\n  function makePaymentFundedFromDomain(\n    uint256 _permissionDomainId,\n    uint256 _childSkillIndex,\n    uint256 _callerPermissionDomainId,\n    uint256 _callerChildSkillIndex,\n    address payable _worker,\n    address _token,\n    uint256 _amount,\n    uint256 _domainId,\n    uint256 _skillId) public\n  {\n    // Check caller is able to call {add,finalize}Payment and moveFundsBetweenPots on the colony\n    validateCallerPermissions(_callerPermissionDomainId, _callerChildSkillIndex, _domainId);\n\n    // Add a new payment\n    uint256 paymentId = colony.addPayment(_permissionDomainId, _childSkillIndex, _worker, _token, _amount, _domainId, _skillId);\n    ColonyDataTypes.Payment memory payment = colony.getPayment(paymentId);\n    ColonyDataTypes.Domain memory domain = colony.getDomain(_domainId);\n\n    // Fund the payment\n    colony.moveFundsBetweenPots(\n      _permissionDomainId,\n      _childSkillIndex,\n      _childSkillIndex,\n      domain.fundingPotId,\n      payment.fundingPotId,\n      _amount,\n      _token\n    );\n    colony.finalizePayment(_permissionDomainId, _childSkillIndex, paymentId);\n\n    // Claim payout on behalf of the recipient\n    colony.claimPayment(paymentId, _token);\n  }\n\n  function validateCallerPermissions(\n    uint256 _callerPermissionDomainId,\n    uint256 _callerChildSkillIndex,\n    uint256 _domainId) internal view\n  {\n    require(\n      ColonyAuthority(colony.authority()).canCall(msg.sender, _callerPermissionDomainId, address(colony), ADD_PAYMENT_SIG),\n      \"colony-one-tx-payment-administration-not-authorized\"\n    );\n    require(\n      ColonyAuthority(colony.authority()).canCall(msg.sender, _callerPermissionDomainId, address(colony), MOVE_FUNDS_SIG),\n      \"colony-one-tx-payment-funding-not-authorized\"\n    );\n\n    if (_callerPermissionDomainId != _domainId) {\n      uint256 permissionSkillId = colony.getDomain(_callerPermissionDomainId).skillId;\n      uint256 domainSkillId = colony.getDomain(_domainId).skillId;\n      require(domainSkillId > 0, \"colony-one-tx-payment-domain-does-not-exist\");\n\n      uint256 childSkillId = colonyNetwork.getChildSkillId(permissionSkillId, _callerChildSkillIndex);\n      require(childSkillId == domainSkillId, \"colony-one-tx-payment-bad-child-skill\");\n    }\n  }\n}\n",
  "sourcePath": "/Users/kronosapiens/code/colony/warsaw/les-contracts/contracts/lib/colony/OneTxPayment.sol",
  "compiler": {
    "name": "solc",
    "version": "0.5.8+commit.23d335f2.Linux.g++"
  },
  "schemaVersion": "3.0.13",
  "updatedAt": "2019-08-24T12:51:17.626Z",
  "devdoc": {
    "methods": {
      "makePayment(uint256,uint256,uint256,uint256,address,address,uint256,uint256,uint256)": {
        "details": "Assumes that each entity holds administration and funding roles in the same domain, although contract and caller can have the permissions in different domains. Payment is taken from root domain, and the caller must have funding permission explicitly in the root domain",
        "params": {
          "_amount": "The amount of the token being paid out",
          "_callerChildSkillIndex": "Index of the _callerPermissionDomainId skill.children array to get",
          "_callerPermissionDomainId": "The domainId in which the _caller_ has permissions to add a payment and fund it",
          "_childSkillIndex": "Index of the _permissionDomainId skill.children array to get",
          "_domainId": "The Id of the domain the payment should be coming from",
          "_permissionDomainId": "The domainId in which the _contract_ has permissions to add a payment and fund it",
          "_skillId": "The Id of the skill that the payment should be marked with, possibly awarding reputation in this skill.",
          "_token": "The address of the token the payment is being made in. 0x00 for Ether.",
          "_worker": "The address of the recipient of the payment"
        }
      },
      "makePaymentFundedFromDomain(uint256,uint256,uint256,uint256,address,address,uint256,uint256,uint256)": {
        "details": "Assumes that each entity holds administration and funding roles in the same domain, although contract and caller can have the permissions in different domains. Payment is taken from domain funds - if the domain does not have sufficient funds, call will fail.",
        "params": {
          "_amount": "The amount of the token being paid out",
          "_callerChildSkillIndex": "Index of the _callerPermissionDomainId skill.children array to get",
          "_callerPermissionDomainId": "The domainId in which the _caller_ has permissions to add a payment and fund it",
          "_childSkillIndex": "Index of the _permissionDomainId skill.children array to get",
          "_domainId": "The Id of the domain the payment should be coming from",
          "_permissionDomainId": "The domainId in which the _contract_ has permissions to add a payment and fund it",
          "_skillId": "The Id of the skill that the payment should be marked with, possibly awarding reputation in this skill.",
          "_token": "The address of the token the payment is being made in. 0x00 for Ether.",
          "_worker": "The address of the recipient of the payment"
        }
      }
    }
  },
  "userdoc": {
    "methods": {
      "makePayment(uint256,uint256,uint256,uint256,address,address,uint256,uint256,uint256)": {
        "notice": "Completes a colony payment in a single transaction"
      },
      "makePaymentFundedFromDomain(uint256,uint256,uint256,uint256,address,address,uint256,uint256,uint256)": {
        "notice": "Completes a colony payment in a single transaction"
      }
    }
  }
}