{
  "contractName": "Warsaw",
  "abi": [
    {
      "inputs": [
        {
          "name": "colonyAddress",
          "type": "address"
        },
        {
          "name": "oneTxPaymentAddress",
          "type": "address"
        },
        {
          "name": "uniswapFactoryAddress",
          "type": "address"
        }
      ],
      "payable": false,
      "stateMutability": "nonpayable",
      "type": "constructor"
    },
    {
      "anonymous": false,
      "inputs": [
        {
          "indexed": true,
          "name": "depositor",
          "type": "address"
        },
        {
          "indexed": true,
          "name": "token",
          "type": "address"
        },
        {
          "indexed": false,
          "name": "amount",
          "type": "uint256"
        }
      ],
      "name": "TokensDeposited",
      "type": "event"
    },
    {
      "anonymous": false,
      "inputs": [
        {
          "indexed": true,
          "name": "depositor",
          "type": "address"
        },
        {
          "indexed": true,
          "name": "token",
          "type": "address"
        },
        {
          "indexed": false,
          "name": "amount",
          "type": "uint256"
        }
      ],
      "name": "TokensComposted",
      "type": "event"
    },
    {
      "constant": false,
      "inputs": [
        {
          "name": "newOwner",
          "type": "address"
        }
      ],
      "name": "transferOwner",
      "outputs": [],
      "payable": false,
      "stateMutability": "nonpayable",
      "type": "function"
    },
    {
      "constant": false,
      "inputs": [
        {
          "name": "interval",
          "type": "uint256"
        }
      ],
      "name": "setSalePeriod",
      "outputs": [],
      "payable": false,
      "stateMutability": "nonpayable",
      "type": "function"
    },
    {
      "constant": false,
      "inputs": [
        {
          "name": "wad",
          "type": "uint256"
        }
      ],
      "name": "setSaleAmount",
      "outputs": [],
      "payable": false,
      "stateMutability": "nonpayable",
      "type": "function"
    },
    {
      "constant": false,
      "inputs": [
        {
          "name": "wad",
          "type": "uint256"
        }
      ],
      "name": "setDailyMint",
      "outputs": [],
      "payable": false,
      "stateMutability": "nonpayable",
      "type": "function"
    },
    {
      "constant": false,
      "inputs": [
        {
          "name": "frequency",
          "type": "uint256"
        }
      ],
      "name": "setPayoutFrequency",
      "outputs": [],
      "payable": false,
      "stateMutability": "nonpayable",
      "type": "function"
    },
    {
      "constant": false,
      "inputs": [
        {
          "name": "status",
          "type": "bool"
        }
      ],
      "name": "setDeprecated",
      "outputs": [],
      "payable": false,
      "stateMutability": "nonpayable",
      "type": "function"
    },
    {
      "constant": false,
      "inputs": [
        {
          "name": "token",
          "type": "address"
        },
        {
          "name": "wad",
          "type": "uint256"
        }
      ],
      "name": "depositTokens",
      "outputs": [],
      "payable": false,
      "stateMutability": "nonpayable",
      "type": "function"
    },
    {
      "constant": false,
      "inputs": [
        {
          "name": "token",
          "type": "address"
        }
      ],
      "name": "sellTokens",
      "outputs": [],
      "payable": false,
      "stateMutability": "nonpayable",
      "type": "function"
    },
    {
      "constant": true,
      "inputs": [],
      "name": "getCurrentPeriod",
      "outputs": [
        {
          "name": "period",
          "type": "uint256"
        }
      ],
      "payable": false,
      "stateMutability": "view",
      "type": "function"
    },
    {
      "constant": true,
      "inputs": [],
      "name": "getDailyIncome",
      "outputs": [
        {
          "name": "total",
          "type": "uint256"
        }
      ],
      "payable": false,
      "stateMutability": "view",
      "type": "function"
    },
    {
      "constant": true,
      "inputs": [],
      "name": "getPeriodIncomes",
      "outputs": [
        {
          "name": "periodIncomes",
          "type": "uint256[]"
        }
      ],
      "payable": false,
      "stateMutability": "view",
      "type": "function"
    },
    {
      "constant": true,
      "inputs": [
        {
          "name": "token",
          "type": "address"
        }
      ],
      "name": "getNumDeposits",
      "outputs": [
        {
          "name": "numDeposits",
          "type": "uint256"
        }
      ],
      "payable": false,
      "stateMutability": "view",
      "type": "function"
    },
    {
      "constant": true,
      "inputs": [
        {
          "name": "token",
          "type": "address"
        },
        {
          "name": "id",
          "type": "uint256"
        }
      ],
      "name": "getDeposit",
      "outputs": [
        {
          "components": [
            {
              "name": "depositor",
              "type": "address"
            },
            {
              "name": "balance",
              "type": "uint256"
            }
          ],
          "name": "deposit",
          "type": "tuple"
        }
      ],
      "payable": false,
      "stateMutability": "view",
      "type": "function"
    },
    {
      "constant": true,
      "inputs": [],
      "name": "getNumPeriodsPerDay",
      "outputs": [
        {
          "name": "numPeriodsPerDay",
          "type": "uint256"
        }
      ],
      "payable": false,
      "stateMutability": "view",
      "type": "function"
    },
    {
      "constant": true,
      "inputs": [],
      "name": "getTimeToPayout",
      "outputs": [
        {
          "name": "timeToPayout",
          "type": "uint256"
        }
      ],
      "payable": false,
      "stateMutability": "view",
      "type": "function"
    },
    {
      "constant": false,
      "inputs": [
        {
          "name": "key",
          "type": "bytes"
        },
        {
          "name": "value",
          "type": "bytes"
        },
        {
          "name": "branchMask",
          "type": "uint256"
        },
        {
          "name": "siblings",
          "type": "bytes32[]"
        }
      ],
      "name": "initiateRewardPayout",
      "outputs": [],
      "payable": false,
      "stateMutability": "nonpayable",
      "type": "function"
    },
    {
      "constant": false,
      "inputs": [
        {
          "name": "token",
          "type": "address"
        },
        {
          "name": "wad",
          "type": "uint256"
        }
      ],
      "name": "executeSale",
      "outputs": [
        {
          "name": "etherValue",
          "type": "uint256"
        }
      ],
      "payable": false,
      "stateMutability": "nonpayable",
      "type": "function"
    },
    {
      "constant": false,
      "inputs": [
        {
          "name": "recipient",
          "type": "address"
        },
        {
          "name": "amount",
          "type": "uint256"
        }
      ],
      "name": "mintAndSendTokens",
      "outputs": [],
      "payable": false,
      "stateMutability": "nonpayable",
      "type": "function"
    },
    {
      "constant": false,
      "inputs": [
        {
          "name": "amount",
          "type": "uint256"
        }
      ],
      "name": "sendEtherToRewardsPot",
      "outputs": [],
      "payable": false,
      "stateMutability": "nonpayable",
      "type": "function"
    }
  ],
  "bytecode": "0x60806040523480156200001157600080fd5b50604051606080620033c983398101806040526200003391908101906200051f565b33600360006101000a81548173ffffffffffffffffffffffffffffffffffffffff021916908373ffffffffffffffffffffffffffffffffffffffff160217905550826000806101000a81548173ffffffffffffffffffffffffffffffffffffffff021916908373ffffffffffffffffffffffffffffffffffffffff16021790555081600160006101000a81548173ffffffffffffffffffffffffffffffffffffffff021916908373ffffffffffffffffffffffffffffffffffffffff16021790555080600260006101000a81548173ffffffffffffffffffffffffffffffffffffffff021916908373ffffffffffffffffffffffffffffffffffffffff1602179055506200014f670de0b6b3a7640000620001b860201b60201c565b62000162610e106200025560201b60201c565b6200017e670de0b6b3a76400006064026200034f60201b60201c565b6200019262093a80620003ec60201b60201c565b42600981905550620001a96200049a60201b60201c565b60108190555050505062000700565b3373ffffffffffffffffffffffffffffffffffffffff16600360009054906101000a900473ffffffffffffffffffffffffffffffffffffffff1673ffffffffffffffffffffffffffffffffffffffff16146200024b576040517f08c379a000000000000000000000000000000000000000000000000000000000815260040162000242906200063b565b60405180910390fd5b8060068190555050565b3373ffffffffffffffffffffffffffffffffffffffff16600360009054906101000a900473ffffffffffffffffffffffffffffffffffffffff1673ffffffffffffffffffffffffffffffffffffffff1614620002e8576040517f08c379a0000000000000000000000000000000000000000000000000000000008152600401620002df906200063b565b60405180910390fd5b6201518081111562000331576040517f08c379a000000000000000000000000000000000000000000000000000000000815260040162000328906200065d565b60405180910390fd5b806004819055508062015180816200034557fe5b0460058190555050565b3373ffffffffffffffffffffffffffffffffffffffff16600360009054906101000a900473ffffffffffffffffffffffffffffffffffffffff1673ffffffffffffffffffffffffffffffffffffffff1614620003e2576040517f08c379a0000000000000000000000000000000000000000000000000000000008152600401620003d9906200063b565b60405180910390fd5b8060078190555050565b3373ffffffffffffffffffffffffffffffffffffffff16600360009054906101000a900473ffffffffffffffffffffffffffffffffffffffff1673ffffffffffffffffffffffffffffffffffffffff16146200047f576040517f08c379a000000000000000000000000000000000000000000000000000000000815260040162000476906200063b565b60405180910390fd5b620151808110156200049057600080fd5b8060088190555050565b600080620151804281620004aa57fe5b0690506004548181620004b957fe5b04915060055482111562000504576040517f08c379a0000000000000000000000000000000000000000000000000000000008152600401620004fb906200067f565b60405180910390fd5b5090565b6000815190506200051981620006e6565b92915050565b6000806000606084860312156200053557600080fd5b6000620005458682870162000508565b9350506020620005588682870162000508565b92505060406200056b8682870162000508565b9150509250925092565b600062000584600a83620006a1565b91507f6f6e6c792d6f776e6572000000000000000000000000000000000000000000006000830152602082019050919050565b6000620005c6601183620006a1565b91507f696e74657276616c2d746f6f2d6c6f6e670000000000000000000000000000006000830152602082019050919050565b600062000608600e83620006a1565b91507f696e76616c69642d706572696f640000000000000000000000000000000000006000830152602082019050919050565b60006020820190508181036000830152620006568162000575565b9050919050565b600060208201905081810360008301526200067881620005b7565b9050919050565b600060208201905081810360008301526200069a81620005f9565b9050919050565b600082825260208201905092915050565b6000620006bf82620006c6565b9050919050565b600073ffffffffffffffffffffffffffffffffffffffff82169050919050565b620006f181620006b2565b8114620006fd57600080fd5b50565b612cb980620007106000396000f3fe608060405234801561001057600080fd5b50600436106101215760003560e01c80637bed7232116100ad578063d848dee711610071578063d848dee7146102f2578063da2d265b1461030e578063dd4b44f21461032c578063deff30c614610348578063df53d9fd1461036457610121565b80637bed72321461023c5780639821f0651461026c5780639a2bcd2714610288578063bcffb2ce146102a4578063d6e91e91146102c257610121565b80634565af50116100f45780634565af50146101ac5780634fb2e45d146101c857806366168bd7146101e45780636654edca146102005780636e02de4c1461021e57610121565b8063086146d214610126578063089419ef146101445780632726b506146101605780633a6b01e114610190575b600080fd5b61012e610380565b60405161013b919061298f565b60405180910390f35b61015e600480360361015991908101906120ab565b6103e9565b005b61017a60048036036101759190810190611f72565b61071a565b6040516101879190612974565b60405180910390f35b6101aa60048036036101a59190810190612000565b6107e5565b005b6101c660048036036101c19190810190611f36565b6108d1565b005b6101e260048036036101dd9190810190611ee4565b610cc4565b005b6101fe60048036036101f99190810190611f72565b610d98565b005b610208611042565b604051610215919061298f565b60405180910390f35b61022661104c565b60405161023391906126d6565b60405180910390f35b61025660048036036102519190810190611f72565b6110cc565b604051610263919061298f565b60405180910390f35b610286600480360361028191908101906120ab565b61133e565b005b6102a2600480360361029d91908101906120ab565b611431565b005b6102ac6114cb565b6040516102b9919061298f565b60405180910390f35b6102dc60048036036102d79190810190611ee4565b6114ec565b6040516102e9919061298f565b60405180910390f35b61030c60048036036103079190810190611fae565b61157d565b005b61031661162a565b604051610323919061298f565b60405180910390f35b610346600480360361034191908101906120ab565b611661565b005b610362600480360361035d9190810190611ee4565b61170b565b005b61037e600480360361037991908101906120ab565b611aaf565b005b60008062015180428161038f57fe5b069050600454818161039d57fe5b0491506005548211156103e5576040517f08c379a00000000000000000000000000000000000000000000000000000000081526004016103dc90612934565b60405180910390fd5b5090565b3373ffffffffffffffffffffffffffffffffffffffff16600360009054906101000a900473ffffffffffffffffffffffffffffffffffffffff1673ffffffffffffffffffffffffffffffffffffffff1614610479576040517f08c379a000000000000000000000000000000000000000000000000000000000815260040161047090612854565b60405180910390fd5b7fffffffffffffffffffffffffffffffffffffffffffffffffffffffffffffffff6000809054906101000a900473ffffffffffffffffffffffffffffffffffffffff1673ffffffffffffffffffffffffffffffffffffffff16634cb164c76040518163ffffffff1660e01b815260040160206040518083038186803b15801561050157600080fd5b505afa158015610515573d6000803e3d6000fd5b505050506040513d601f19601f8201168201806040525061053991908101906120d4565b14610579576040517f08c379a0000000000000000000000000000000000000000000000000000000008152600401610570906128f4565b60405180910390fd5b60008060009054906101000a900473ffffffffffffffffffffffffffffffffffffffff16905060008190508073ffffffffffffffffffffffffffffffffffffffff166108fc849081150290604051600060405180830381858888f193505050501580156105ea573d6000803e3d6000fd5b506000809054906101000a900473ffffffffffffffffffffffffffffffffffffffff1673ffffffffffffffffffffffffffffffffffffffff166389224a1e60006040518263ffffffff1660e01b815260040161064691906125f3565b600060405180830381600087803b15801561066057600080fd5b505af1158015610674573d6000803e3d6000fd5b505050506000809054906101000a900473ffffffffffffffffffffffffffffffffffffffff1673ffffffffffffffffffffffffffffffffffffffff1663c68d19ea6001600080600160008960006040518863ffffffff1660e01b81526004016106e397969594939291906126f8565b600060405180830381600087803b1580156106fd57600080fd5b505af1158015610711573d6000803e3d6000fd5b50505050505050565b610722611d35565b600a60008473ffffffffffffffffffffffffffffffffffffffff1673ffffffffffffffffffffffffffffffffffffffff16815260200190815260200160002060008381526020019081526020016000206040518060400160405290816000820160009054906101000a900473ffffffffffffffffffffffffffffffffffffffff1673ffffffffffffffffffffffffffffffffffffffff1673ffffffffffffffffffffffffffffffffffffffff168152602001600182015481525050905092915050565b60006107ef6114cb565b1461082f576040517f08c379a0000000000000000000000000000000000000000000000000000000008152600401610826906128b4565b60405180910390fd5b426009819055506000809054906101000a900473ffffffffffffffffffffffffffffffffffffffff1673ffffffffffffffffffffffffffffffffffffffff1663e6f519ce6000868686866040518663ffffffff1660e01b8152600401610899959493929190612645565b600060405180830381600087803b1580156108b357600080fd5b505af11580156108c7573d6000803e3d6000fd5b5050505050505050565b3373ffffffffffffffffffffffffffffffffffffffff16600360009054906101000a900473ffffffffffffffffffffffffffffffffffffffff1673ffffffffffffffffffffffffffffffffffffffff1614610961576040517f08c379a000000000000000000000000000000000000000000000000000000000815260040161095890612854565b60405180910390fd5b7fffffffffffffffffffffffffffffffffffffffffffffffffffffffffffffffff6000809054906101000a900473ffffffffffffffffffffffffffffffffffffffff1673ffffffffffffffffffffffffffffffffffffffff16634cb164c76040518163ffffffff1660e01b815260040160206040518083038186803b1580156109e957600080fd5b505afa1580156109fd573d6000803e3d6000fd5b505050506040513d601f19601f82011682018060405250610a2191908101906120d4565b14610a61576040517f08c379a0000000000000000000000000000000000000000000000000000000008152600401610a58906128f4565b60405180910390fd5b60008060009054906101000a900473ffffffffffffffffffffffffffffffffffffffff1673ffffffffffffffffffffffffffffffffffffffff166321df0da76040518163ffffffff1660e01b815260040160206040518083038186803b158015610aca57600080fd5b505afa158015610ade573d6000803e3d6000fd5b505050506040513d601f19601f82011682018060405250610b029190810190611f0d565b90506000809054906101000a900473ffffffffffffffffffffffffffffffffffffffff1673ffffffffffffffffffffffffffffffffffffffff166397304ced836040518263ffffffff1660e01b8152600401610b5e919061298f565b600060405180830381600087803b158015610b7857600080fd5b505af1158015610b8c573d6000803e3d6000fd5b505050506000809054906101000a900473ffffffffffffffffffffffffffffffffffffffff1673ffffffffffffffffffffffffffffffffffffffff166389224a1e826040518263ffffffff1660e01b8152600401610bea91906125d8565b600060405180830381600087803b158015610c0457600080fd5b505af1158015610c18573d6000803e3d6000fd5b50505050600160009054906101000a900473ffffffffffffffffffffffffffffffffffffffff1673ffffffffffffffffffffffffffffffffffffffff1663f23efb506001600060016000888789600160006040518a63ffffffff1660e01b8152600401610c8d99989796959493929190612767565b600060405180830381600087803b158015610ca757600080fd5b505af1158015610cbb573d6000803e3d6000fd5b50505050505050565b3373ffffffffffffffffffffffffffffffffffffffff16600360009054906101000a900473ffffffffffffffffffffffffffffffffffffffff1673ffffffffffffffffffffffffffffffffffffffff1614610d54576040517f08c379a0000000000000000000000000000000000000000000000000000000008152600401610d4b90612854565b60405180910390fd5b80600360006101000a81548173ffffffffffffffffffffffffffffffffffffffff021916908373ffffffffffffffffffffffffffffffffffffffff16021790555050565b600654811015610ddd576040517f08c379a0000000000000000000000000000000000000000000000000000000008152600401610dd4906128d4565b60405180910390fd5b600360149054906101000a900460ff1615610e2d576040517f08c379a0000000000000000000000000000000000000000000000000000000008152600401610e2490612954565b60405180910390fd5b8173ffffffffffffffffffffffffffffffffffffffff166323b872dd3330846040518463ffffffff1660e01b8152600401610e6a9392919061260e565b602060405180830381600087803b158015610e8457600080fd5b505af1158015610e98573d6000803e3d6000fd5b505050506040513d601f19601f82011682018060405250610ebc9190810190611fd7565b5060405180604001604052803373ffffffffffffffffffffffffffffffffffffffff16815260200182815250600a60008473ffffffffffffffffffffffffffffffffffffffff1673ffffffffffffffffffffffffffffffffffffffff1681526020019081526020016000206000600c60008673ffffffffffffffffffffffffffffffffffffffff1673ffffffffffffffffffffffffffffffffffffffff168152602001908152602001600020600081548092919060010191905055815260200190815260200160002060008201518160000160006101000a81548173ffffffffffffffffffffffffffffffffffffffff021916908373ffffffffffffffffffffffffffffffffffffffff160217905550602082015181600101559050508173ffffffffffffffffffffffffffffffffffffffff163373ffffffffffffffffffffffffffffffffffffffff167fcbc4a4091b012bb1329c38bbbb15455f5cac5aa3673da0a7f38cd61a4f49551783604051611036919061298f565b60405180910390a35050565b6000600554905090565b606060055460405190808252806020026020018201604052801561107f5781602001602082028038833980820191505090505b50905060005b6005548110156110c857600e6000828152602001908152602001600020548282815181106110af57fe5b6020026020010181815250508080600101915050611085565b5090565b60003373ffffffffffffffffffffffffffffffffffffffff16600360009054906101000a900473ffffffffffffffffffffffffffffffffffffffff1673ffffffffffffffffffffffffffffffffffffffff161461115e576040517f08c379a000000000000000000000000000000000000000000000000000000000815260040161115590612854565b60405180910390fd5b6000600260009054906101000a900473ffffffffffffffffffffffffffffffffffffffff1673ffffffffffffffffffffffffffffffffffffffff166306f2bf62856040518263ffffffff1660e01b81526004016111bb91906125d8565b60206040518083038186803b1580156111d357600080fd5b505afa1580156111e7573d6000803e3d6000fd5b505050506040513d601f19601f8201168201806040525061120b9190810190611f0d565b905060008190508473ffffffffffffffffffffffffffffffffffffffff1663095ea7b383866040518363ffffffff1660e01b815260040161124d9291906126ad565b602060405180830381600087803b15801561126757600080fd5b505af115801561127b573d6000803e3d6000fd5b505050506040513d601f19601f8201168201806040525061129f9190810190611fd7565b508073ffffffffffffffffffffffffffffffffffffffff166395e3c50b856001610e1042016040518463ffffffff1660e01b81526004016112e2939291906129aa565b602060405180830381600087803b1580156112fc57600080fd5b505af1158015611310573d6000803e3d6000fd5b505050506040513d601f19601f8201168201806040525061133491908101906120d4565b9250505092915050565b3373ffffffffffffffffffffffffffffffffffffffff16600360009054906101000a900473ffffffffffffffffffffffffffffffffffffffff1673ffffffffffffffffffffffffffffffffffffffff16146113ce576040517f08c379a00000000000000000000000000000000000000000000000000000000081526004016113c590612854565b60405180910390fd5b62015180811115611414576040517f08c379a000000000000000000000000000000000000000000000000000000000815260040161140b90612914565b60405180910390fd5b8060048190555080620151808161142757fe5b0460058190555050565b3373ffffffffffffffffffffffffffffffffffffffff16600360009054906101000a900473ffffffffffffffffffffffffffffffffffffffff1673ffffffffffffffffffffffffffffffffffffffff16146114c1576040517f08c379a00000000000000000000000000000000000000000000000000000000081526004016114b890612854565b60405180910390fd5b8060068190555050565b60006114e76000426114e1600954600854611b49565b03611b99565b905090565b6000611576600c60008473ffffffffffffffffffffffffffffffffffffffff1673ffffffffffffffffffffffffffffffffffffffff16815260200190815260200160002054600b60008573ffffffffffffffffffffffffffffffffffffffff1673ffffffffffffffffffffffffffffffffffffffff16815260200190815260200160002054611bb3565b9050919050565b3373ffffffffffffffffffffffffffffffffffffffff16600360009054906101000a900473ffffffffffffffffffffffffffffffffffffffff1673ffffffffffffffffffffffffffffffffffffffff161461160d576040517f08c379a000000000000000000000000000000000000000000000000000000000815260040161160490612854565b60405180910390fd5b80600360146101000a81548160ff02191690831515021790555050565b6000805b60055481101561165d57600e60008281526020019081526020016000205482019150808060010191505061162e565b5090565b3373ffffffffffffffffffffffffffffffffffffffff16600360009054906101000a900473ffffffffffffffffffffffffffffffffffffffff1673ffffffffffffffffffffffffffffffffffffffff16146116f1576040517f08c379a00000000000000000000000000000000000000000000000000000000081526004016116e890612854565b60405180910390fd5b6201518081101561170157600080fd5b8060088190555050565b6000611716826114ec565b11611756576040517f08c379a000000000000000000000000000000000000000000000000000000000815260040161174d90612834565b60405180910390fd5b6117a1600d60008373ffffffffffffffffffffffffffffffffffffffff1673ffffffffffffffffffffffffffffffffffffffff16815260200190815260200160002054600454611b49565b4210156117e3576040517f08c379a00000000000000000000000000000000000000000000000000000000081526004016117da90612814565b60405180910390fd5b42600d60008373ffffffffffffffffffffffffffffffffffffffff1673ffffffffffffffffffffffffffffffffffffffff168152602001908152602001600020819055506000600a60008373ffffffffffffffffffffffffffffffffffffffff1673ffffffffffffffffffffffffffffffffffffffff1681526020019081526020016000206000600b60008573ffffffffffffffffffffffffffffffffffffffff1673ffffffffffffffffffffffffffffffffffffffff168152602001908152602001600020548152602001908152602001600020905060008160000160009054906101000a900473ffffffffffffffffffffffffffffffffffffffff16905060006006549050808360010160008282540392505081905550600654836001015410156119e357826001015481019050600a60008573ffffffffffffffffffffffffffffffffffffffff1673ffffffffffffffffffffffffffffffffffffffff1681526020019081526020016000206000600b60008773ffffffffffffffffffffffffffffffffffffffff1673ffffffffffffffffffffffffffffffffffffffff1681526020019081526020016000206000815480929190600101919050558152602001908152602001600020600080820160006101000a81549073ffffffffffffffffffffffffffffffffffffffff0219169055600182016000905550505b60006119ef85836110cc565b90506119fa816103e9565b611a0381611c03565b6000611a16611a1061162a565b83611b49565b90506000611a248383611c5b565b90506000611a3482600754611c93565b9050611a4086826108d1565b8773ffffffffffffffffffffffffffffffffffffffff168673ffffffffffffffffffffffffffffffffffffffff167fc510044739924ca21e51c52c5a40ffed601c2ae0051fe28e7df192e8d7b399db87604051611a9d919061298f565b60405180910390a35050505050505050565b3373ffffffffffffffffffffffffffffffffffffffff16600360009054906101000a900473ffffffffffffffffffffffffffffffffffffffff1673ffffffffffffffffffffffffffffffffffffffff1614611b3f576040517f08c379a0000000000000000000000000000000000000000000000000000000008152600401611b3690612854565b60405180910390fd5b8060078190555050565b6000828284019150811015611b93576040517f08c379a0000000000000000000000000000000000000000000000000000000008152600401611b8a90612894565b60405180910390fd5b92915050565b600081831015611ba95781611bab565b825b905092915050565b6000828284039150811115611bfd576040517f08c379a0000000000000000000000000000000000000000000000000000000008152600401611bf4906127f4565b60405180910390fd5b92915050565b6000611c0d610380565b9050601054811415611c2e5781600f60008282540192505081905550611c57565b600f54600e60008381526020019081526020016000208190555081600f81905550806010819055505b5050565b600081611c83611c7385670de0b6b3a7640000611cd3565b60028581611c7d57fe5b04611b49565b81611c8a57fe5b04905092915050565b6000670de0b6b3a7640000611cc3611cab8585611cd3565b6002670de0b6b3a764000081611cbd57fe5b04611b49565b81611cca57fe5b04905092915050565b600080821480611cf05750828283850292508281611ced57fe5b04145b611d2f576040517f08c379a0000000000000000000000000000000000000000000000000000000008152600401611d2690612874565b60405180910390fd5b92915050565b6040518060400160405280600073ffffffffffffffffffffffffffffffffffffffff168152602001600081525090565b600081359050611d7481612c0c565b92915050565b600081519050611d8981612c0c565b92915050565b600081359050611d9e81612c23565b92915050565b600082601f830112611db557600080fd5b8135611dc8611dc382612a0e565b6129e1565b91508181835260208401935060208101905083856020840282011115611ded57600080fd5b60005b83811015611e1d5781611e038882611e51565b845260208401935060208301925050600181019050611df0565b5050505092915050565b600081359050611e3681612c3a565b92915050565b600081519050611e4b81612c3a565b92915050565b600081359050611e6081612c51565b92915050565b600082601f830112611e7757600080fd5b8135611e8a611e8582612a36565b6129e1565b91508082526020830160208301858383011115611ea657600080fd5b611eb1838284612bb9565b50505092915050565b600081359050611ec981612c68565b92915050565b600081519050611ede81612c68565b92915050565b600060208284031215611ef657600080fd5b6000611f0484828501611d65565b91505092915050565b600060208284031215611f1f57600080fd5b6000611f2d84828501611d7a565b91505092915050565b60008060408385031215611f4957600080fd5b6000611f5785828601611d8f565b9250506020611f6885828601611eba565b9150509250929050565b60008060408385031215611f8557600080fd5b6000611f9385828601611d65565b9250506020611fa485828601611eba565b9150509250929050565b600060208284031215611fc057600080fd5b6000611fce84828501611e27565b91505092915050565b600060208284031215611fe957600080fd5b6000611ff784828501611e3c565b91505092915050565b6000806000806080858703121561201657600080fd5b600085013567ffffffffffffffff81111561203057600080fd5b61203c87828801611e66565b945050602085013567ffffffffffffffff81111561205957600080fd5b61206587828801611e66565b935050604061207687828801611eba565b925050606085013567ffffffffffffffff81111561209357600080fd5b61209f87828801611da4565b91505092959194509250565b6000602082840312156120bd57600080fd5b60006120cb84828501611eba565b91505092915050565b6000602082840312156120e657600080fd5b60006120f484828501611ecf565b91505092915050565b60006121098383612225565b60208301905092915050565b600061212183836125ba565b60208301905092915050565b61213681612b5f565b82525050565b61214581612b0d565b82525050565b61215481612b0d565b82525050565b61216381612afb565b82525050565b600061217482612a7c565b61217e8185612ab7565b935061218983612a62565b8060005b838110156121ba5781516121a188826120fd565b97506121ac83612a9d565b92505060018101905061218d565b5085935050505092915050565b60006121d282612a87565b6121dc8185612ac8565b93506121e783612a6f565b8060005b838110156122185781516121ff8882612115565b975061220a83612aaa565b9250506001810190506121eb565b5085935050505092915050565b61222e81612b2b565b82525050565b600061223f82612a92565b6122498185612ad9565b9350612259818560208601612bc8565b61226281612bfb565b840191505092915050565b61227681612b71565b82525050565b61228581612b83565b82525050565b6000612298601583612aea565b91507f64732d6d6174682d7375622d756e646572666c6f7700000000000000000000006000830152602082019050919050565b60006122d8600d83612aea565b91507f73616c652d746f6f2d736f6f6e000000000000000000000000000000000000006000830152602082019050919050565b6000612318601183612aea565b91507f6e6f2d746f6b656e2d6465706f736974730000000000000000000000000000006000830152602082019050919050565b6000612358600a83612aea565b91507f6f6e6c792d6f776e6572000000000000000000000000000000000000000000006000830152602082019050919050565b6000612398601483612aea565b91507f64732d6d6174682d6d756c2d6f766572666c6f770000000000000000000000006000830152602082019050919050565b60006123d8601483612aea565b91507f64732d6d6174682d6164642d6f766572666c6f770000000000000000000000006000830152602082019050919050565b6000612418600f83612aea565b91507f7061796f75742d746f6f2d736f6f6e00000000000000000000000000000000006000830152602082019050919050565b6000612458601183612aea565b91507f6465706f7369742d746f6f2d736d616c6c0000000000000000000000000000006000830152602082019050919050565b6000612498601983612aea565b91507f636f6c6f6e792d6261642d7265776172642d696e7665727365000000000000006000830152602082019050919050565b60006124d8601183612aea565b91507f696e74657276616c2d746f6f2d6c6f6e670000000000000000000000000000006000830152602082019050919050565b6000612518600e83612aea565b91507f696e76616c69642d706572696f640000000000000000000000000000000000006000830152602082019050919050565b6000612558601383612aea565b91507f636f6e74726163742d64657072656361746564000000000000000000000000006000830152602082019050919050565b6040820160008201516125a1600085018261213c565b5060208201516125b460208501826125ba565b50505050565b6125c381612b55565b82525050565b6125d281612b55565b82525050565b60006020820190506125ed600083018461215a565b92915050565b6000602082019050612608600083018461212d565b92915050565b6000606082019050612623600083018661212d565b612630602083018561215a565b61263d60408301846125c9565b949350505050565b600060a08201905061265a600083018861212d565b818103602083015261266c8187612234565b905081810360408301526126808186612234565b905061268f60608301856125c9565b81810360808301526126a18184612169565b90509695505050505050565b60006040820190506126c2600083018561215a565b6126cf60208301846125c9565b9392505050565b600060208201905081810360008301526126f081846121c7565b905092915050565b600060e08201905061270d600083018a61227c565b61271a602083018961226d565b612727604083018861226d565b61273460608301876125c9565b61274160808301866125c9565b61274e60a08301856125c9565b61275b60c083018461212d565b98975050505050505050565b60006101208201905061277d600083018c61227c565b61278a602083018b61226d565b612797604083018a61227c565b6127a4606083018961226d565b6127b1608083018861214b565b6127be60a083018761215a565b6127cb60c08301866125c9565b6127d860e08301856125c9565b6127e661010083018461226d565b9a9950505050505050505050565b6000602082019050818103600083015261280d8161228b565b9050919050565b6000602082019050818103600083015261282d816122cb565b9050919050565b6000602082019050818103600083015261284d8161230b565b9050919050565b6000602082019050818103600083015261286d8161234b565b9050919050565b6000602082019050818103600083015261288d8161238b565b9050919050565b600060208201905081810360008301526128ad816123cb565b9050919050565b600060208201905081810360008301526128cd8161240b565b9050919050565b600060208201905081810360008301526128ed8161244b565b9050919050565b6000602082019050818103600083015261290d8161248b565b9050919050565b6000602082019050818103600083015261292d816124cb565b9050919050565b6000602082019050818103600083015261294d8161250b565b9050919050565b6000602082019050818103600083015261296d8161254b565b9050919050565b6000604082019050612989600083018461258b565b92915050565b60006020820190506129a460008301846125c9565b92915050565b60006060820190506129bf60008301866125c9565b6129cc602083018561227c565b6129d960408301846125c9565b949350505050565b6000604051905081810181811067ffffffffffffffff82111715612a0457600080fd5b8060405250919050565b600067ffffffffffffffff821115612a2557600080fd5b602082029050602081019050919050565b600067ffffffffffffffff821115612a4d57600080fd5b601f19601f8301169050602081019050919050565b6000602082019050919050565b6000602082019050919050565b600081519050919050565b600081519050919050565b600081519050919050565b6000602082019050919050565b6000602082019050919050565b600082825260208201905092915050565b600082825260208201905092915050565b600082825260208201905092915050565b600082825260208201905092915050565b6000612b0682612b35565b9050919050565b6000612b1882612b35565b9050919050565b60008115159050919050565b6000819050919050565b600073ffffffffffffffffffffffffffffffffffffffff82169050919050565b6000819050919050565b6000612b6a82612b95565b9050919050565b6000612b7c82612b55565b9050919050565b6000612b8e82612b55565b9050919050565b6000612ba082612ba7565b9050919050565b6000612bb282612b35565b9050919050565b82818337600083830152505050565b60005b83811015612be6578082015181840152602081019050612bcb565b83811115612bf5576000848401525b50505050565b6000601f19601f8301169050919050565b612c1581612afb565b8114612c2057600080fd5b50565b612c2c81612b0d565b8114612c3757600080fd5b50565b612c4381612b1f565b8114612c4e57600080fd5b50565b612c5a81612b2b565b8114612c6557600080fd5b50565b612c7181612b55565b8114612c7c57600080fd5b5056fea265627a7a7230582019c3f92cadd9b69bfb80f25562f55270c83b71b3c31c0293629121056f955edd6c6578706572696d656e74616cf50037",
  "source": "/*\n  This file is part of The Colony Network.\n\n  The Colony Network is free software: you can redistribute it and/or modify\n  it under the terms of the GNU General Public License as published by\n  the Free Software Foundation, either version 3 of the License, or\n  (at your option) any later version.\n\n  The Colony Network is distributed in the hope that it will be useful,\n  but WITHOUT ANY WARRANTY; without even the implied warranty of\n  MERCHANTABILITY or FITNESS FOR A PARTICULAR PURPOSE.  See the\n  GNU General Public License for more details.\n\n  You should have received a copy of the GNU General Public License\n  along with The Colony Network. If not, see <http://www.gnu.org/licenses/>.\n*/\n\npragma solidity 0.5.8;\npragma experimental ABIEncoderV2;\n\nimport \"./lib/colony/IColony.sol\";\nimport \"./lib/colony/OneTxPayment.sol\";\nimport \"./lib/colony/Token.sol\";\nimport \"./lib/dappsys/math.sol\";\nimport \"./lib/uniswap/UniswapFactoryInterface.sol\";\nimport \"./lib/uniswap/UniswapExchangeInterface.sol\";\n\n\ncontract Warsaw is DSMath {\n  uint256 constant UINT256_MAX = 2**256 - 1;\n  uint256 constant ROOT_DOMAIN = 1;\n  uint256 constant ROOT_POT = 1;\n  uint256 constant REWARDS_POT = 0;\n\n  IColony colony;\n  OneTxPayment oneTxPayment;\n  UniswapFactoryInterface uniswapFactory;\n\n  address owner;\n  bool deprecated;\n\n  uint256 salePeriod;\n  uint256 periodsPerDay;\n  uint256 saleAmount;\n\n  uint256 dailyMint;\n  uint256 payoutFrequency;\n  uint256 lastRewardPayout;\n\n  mapping (address => mapping (uint256 => Deposit)) deposits;\n  mapping (address => uint256) heads;\n  mapping (address => uint256) tails;\n  mapping (address => uint256) lastSale;\n\n  mapping (uint256 => uint256) periodIncome;\n  uint256 activePeriodIncome;\n  uint256 activePeriod;\n\n  struct Deposit {\n    address payable depositor;\n    uint256 balance;\n  }\n\n  event TokensDeposited(address indexed depositor, address indexed token, uint256 amount);\n  event TokensComposted(address indexed depositor, address indexed token, uint256 amount);\n\n  modifier onlyOwner() {\n    require(owner == msg.sender, \"only-owner\");\n    _;\n  }\n\n  // Note: contract assumes root, funding, and administration permissions in root domain\n  // Note: oneTxPayment assumes funding and administration permissions in root domain\n  // Note: needs reward inverse set to UINT256_MAX (i.e. 0 automatic rewards claims)\n  constructor(address colonyAddress, address oneTxPaymentAddress, address uniswapFactoryAddress) public {\n    owner = msg.sender;\n    colony = IColony(colonyAddress);\n    oneTxPayment = OneTxPayment(oneTxPaymentAddress);\n    uniswapFactory = UniswapFactoryInterface(uniswapFactoryAddress);\n\n    // Defaults!\n    setSaleAmount(WAD);\n    setSalePeriod(1 hours);\n    setDailyMint(100 * WAD);\n    setPayoutFrequency(7 days);\n\n    // Initialize!\n    lastRewardPayout = now;\n    activePeriod = getCurrentPeriod();\n  }\n\n  // Administrative functions\n\n  function transferOwner(address newOwner) public onlyOwner {\n    owner = newOwner;\n  }\n\n  function setSalePeriod(uint256 interval) public onlyOwner {\n    require(interval <= 24 hours, \"interval-too-long\");\n    salePeriod = interval;\n    periodsPerDay = 24 hours / interval;\n  }\n\n  function setSaleAmount(uint256 wad) public onlyOwner {\n    saleAmount = wad;\n  }\n\n  function setDailyMint(uint256 wad) public onlyOwner {\n    dailyMint = wad;\n  }\n\n  function setPayoutFrequency(uint256 frequency) public onlyOwner {\n    require(frequency >= 1 days);\n    payoutFrequency = frequency;\n  }\n\n  function setDeprecated(bool status) public onlyOwner {\n    deprecated = status;\n  }\n\n  // Public functions\n\n  function depositTokens(address token, uint256 wad) public {\n    require(wad >= saleAmount, \"deposit-too-small\");\n    require(!deprecated, \"contract-deprecated\");\n\n    Token(token).transferFrom(msg.sender, address(this), wad);\n    deposits[token][tails[token]++] = Deposit({ depositor: msg.sender, balance: wad});\n\n    emit TokensDeposited(msg.sender, token, wad);\n  }\n\n  function sellTokens(address token) public {\n    require(getNumDeposits(token) > 0, \"no-token-deposits\");\n    require(now >= add(lastSale[token], salePeriod), \"sale-too-soon\");\n    lastSale[token] = now;\n\n    Deposit storage deposit = deposits[token][heads[token]];\n    address payable depositor = deposit.depositor;\n    uint256 amount = saleAmount;\n\n    // Subtract from balance\n    deposit.balance -= amount;\n\n    // If *remaining* balance is too small, liquidate and move to next\n    if (deposit.balance < saleAmount) {\n      amount += deposit.balance;\n      delete deposits[token][heads[token]++];\n    }\n\n    // Do the sale\n    uint256 etherValue = executeSale(token, amount);\n    sendEtherToRewardsPot(etherValue);\n\n    // Update active period income\n    updateActivePeriodIncome(etherValue);\n\n    // Get daily income (excluding current period, including current tx)\n    uint256 dailyIncome = add(getDailyIncome(), etherValue);\n\n    // // Figure out percent of daily income depositor gets\n    uint256 percentContribution = wdiv(etherValue, dailyIncome);\n    uint256 tokensToMint = wmul(percentContribution, dailyMint);\n    mintAndSendTokens(depositor, tokensToMint);\n\n    emit TokensComposted(depositor, token, amount);\n  }\n\n  // Public view functions\n\n  function getCurrentPeriod() public view returns(uint256 period) {\n    uint256 secondInDay = now % 24 hours;\n    period = secondInDay / salePeriod;\n    require(period <= periodsPerDay, \"invalid-period\");\n  }\n\n  function getDailyIncome() public view returns(uint256 total) {\n    for (uint256 i; i < periodsPerDay; i++) {\n      total += periodIncome[i];\n    }\n  }\n\n  function getPeriodIncomes() public view returns(uint256[] memory periodIncomes) {\n    periodIncomes = new uint256[](periodsPerDay);\n    for (uint256 i; i < periodsPerDay; i++) {\n      periodIncomes[i] = periodIncome[i];\n    }\n  }\n\n  function getNumDeposits(address token) public view returns(uint256 numDeposits) {\n    numDeposits = sub(tails[token], heads[token]);\n  }\n\n  function getDeposit(address token, uint256 id) public view returns(Deposit memory deposit) {\n    deposit = deposits[token][id];\n  }\n\n  function getNumPeriodsPerDay() public view returns(uint256 numPeriodsPerDay) {\n    numPeriodsPerDay = periodsPerDay;\n  }\n\n  function getTimeToPayout() public view returns(uint256 timeToPayout) {\n    timeToPayout = max(0, add(lastRewardPayout, payoutFrequency) - now);\n  }\n\n  // Internal functions\n\n  function updateActivePeriodIncome(uint256 income) internal {\n    uint256 currentPeriod = getCurrentPeriod();\n    if (currentPeriod == activePeriod) {\n      // Still in the same period, increment running total\n      activePeriodIncome += income;\n    } else {\n      // In a new period, so save and restart\n      periodIncome[currentPeriod] = activePeriodIncome;\n      activePeriodIncome = income;\n      activePeriod = currentPeriod;\n    }\n  }\n\n  // REAL IMPLEMENTATIONS\n\n  function initiateRewardPayout(\n    bytes memory key,\n    bytes memory value,\n    uint256 branchMask,\n    bytes32[] memory siblings\n  )\n    public\n  {\n    require(getTimeToPayout() == 0, \"payout-too-soon\");\n\n    lastRewardPayout = now;\n    colony.startNextRewardPayout(address(0x0), key, value, branchMask, siblings);\n  }\n\n  function executeSale(address token, uint256 wad) public onlyOwner returns(uint256 etherValue) {\n    address uniswapExchangeAddress = uniswapFactory.getExchange(token);\n    UniswapExchangeInterface uniswapExchange = UniswapExchangeInterface(uniswapExchangeAddress);\n\n    Token(token).approve(uniswapExchangeAddress, wad);\n    etherValue = uniswapExchange.tokenToEthSwapInput(wad, 1, now + 1 hours); // Conservative\n  }\n\n  function mintAndSendTokens(address payable recipient, uint256 amount) public onlyOwner {\n    require(colony.getRewardInverse() == UINT256_MAX, \"colony-bad-reward-inverse\");\n\n    address token = colony.getToken();\n    colony.mintTokens(amount);\n    colony.claimColonyFunds(token);\n    oneTxPayment.makePayment(1, 0, 1, 0, recipient, token, amount, ROOT_DOMAIN, 0);\n  }\n\n  function sendEtherToRewardsPot(uint256 amount) public onlyOwner {\n    require(colony.getRewardInverse() == UINT256_MAX, \"colony-bad-reward-inverse\");\n\n    // Well this is ratchet\n    address colonyAddress = address(colony);\n    address payable colonyAddressPayable = (address(uint160(colonyAddress)));\n    colonyAddressPayable.transfer(amount);\n\n    colony.claimColonyFunds(address(0x0));\n    colony.moveFundsBetweenPots(1, 0, 0, ROOT_POT, REWARDS_POT, amount, address(0x0));\n  }\n\n  // TEST MOCKS\n\n  // function initiateRewardPayout(\n  //   bytes memory key,\n  //   bytes memory value,\n  //   uint256 branchMask,\n  //   bytes32[] memory siblings\n  // )\n  //   public\n  // {\n  //   // Calls to colony\n  // }\n\n  // function executeSale(address token, uint256 wad) internal returns(uint256 etherValue) {\n  //   // Calls to uniswap\n  //   return WAD;\n  // }\n\n  // function mintAndSendTokens(address payable recipient, uint256 amount) internal {\n  //   // Calls to colony\n  // }\n\n  // function sendEtherToRewardsPot(uint256 amount) internal {\n  //   // Calls to colony\n  // }\n\n}\n",
  "sourcePath": "/Users/kronosapiens/code/colony/warsaw/les-contracts/contracts/Warsaw.sol",
  "compiler": {
    "name": "solc",
    "version": "0.5.8+commit.23d335f2.Linux.g++"
  },
  "schemaVersion": "3.0.13",
  "updatedAt": "2019-08-25T05:16:59.354Z",
  "devdoc": {
    "methods": {}
  },
  "userdoc": {
    "methods": {}
  }
}