{
  "contractName": "Warsaw",
  "abi": [
    {
      "inputs": [
        {
          "name": "colonyAddress",
          "type": "address"
        },
        {
          "name": "oneTxPaymentAddress",
          "type": "address"
        },
        {
          "name": "uniswapFactoryAddress",
          "type": "address"
        }
      ],
      "payable": false,
      "stateMutability": "nonpayable",
      "type": "constructor"
    },
    {
      "anonymous": false,
      "inputs": [
        {
          "indexed": true,
          "name": "depositor",
          "type": "address"
        },
        {
          "indexed": true,
          "name": "token",
          "type": "address"
        },
        {
          "indexed": false,
          "name": "amount",
          "type": "uint256"
        }
      ],
      "name": "TokensDeposited",
      "type": "event"
    },
    {
      "anonymous": false,
      "inputs": [
        {
          "indexed": true,
          "name": "depositor",
          "type": "address"
        },
        {
          "indexed": true,
          "name": "token",
          "type": "address"
        },
        {
          "indexed": false,
          "name": "amount",
          "type": "uint256"
        }
      ],
      "name": "TokensComposted",
      "type": "event"
    },
    {
      "constant": false,
      "inputs": [
        {
          "name": "newOwner",
          "type": "address"
        }
      ],
      "name": "transferOwner",
      "outputs": [],
      "payable": false,
      "stateMutability": "nonpayable",
      "type": "function"
    },
    {
      "constant": false,
      "inputs": [
        {
          "name": "interval",
          "type": "uint256"
        }
      ],
      "name": "setSalePeriod",
      "outputs": [],
      "payable": false,
      "stateMutability": "nonpayable",
      "type": "function"
    },
    {
      "constant": false,
      "inputs": [
        {
          "name": "wad",
          "type": "uint256"
        }
      ],
      "name": "setSaleAmount",
      "outputs": [],
      "payable": false,
      "stateMutability": "nonpayable",
      "type": "function"
    },
    {
      "constant": false,
      "inputs": [
        {
          "name": "wad",
          "type": "uint256"
        }
      ],
      "name": "setDailyMint",
      "outputs": [],
      "payable": false,
      "stateMutability": "nonpayable",
      "type": "function"
    },
    {
      "constant": false,
      "inputs": [
        {
          "name": "frequency",
          "type": "uint256"
        }
      ],
      "name": "setPayoutFrequency",
      "outputs": [],
      "payable": false,
      "stateMutability": "nonpayable",
      "type": "function"
    },
    {
      "constant": false,
      "inputs": [
        {
          "name": "token",
          "type": "address"
        },
        {
          "name": "wad",
          "type": "uint256"
        }
      ],
      "name": "depositTokens",
      "outputs": [],
      "payable": false,
      "stateMutability": "nonpayable",
      "type": "function"
    },
    {
      "constant": false,
      "inputs": [
        {
          "name": "token",
          "type": "address"
        }
      ],
      "name": "sellTokens",
      "outputs": [],
      "payable": false,
      "stateMutability": "nonpayable",
      "type": "function"
    },
    {
      "constant": true,
      "inputs": [],
      "name": "getCurrentPeriod",
      "outputs": [
        {
          "name": "period",
          "type": "uint256"
        }
      ],
      "payable": false,
      "stateMutability": "view",
      "type": "function"
    },
    {
      "constant": true,
      "inputs": [],
      "name": "getDailyIncome",
      "outputs": [
        {
          "name": "total",
          "type": "uint256"
        }
      ],
      "payable": false,
      "stateMutability": "view",
      "type": "function"
    },
    {
      "constant": true,
      "inputs": [],
      "name": "getPeriodIncomes",
      "outputs": [
        {
          "name": "periodIncomes",
          "type": "uint256[]"
        }
      ],
      "payable": false,
      "stateMutability": "view",
      "type": "function"
    },
    {
      "constant": true,
      "inputs": [
        {
          "name": "token",
          "type": "address"
        }
      ],
      "name": "getNumDeposits",
      "outputs": [
        {
          "name": "numDeposits",
          "type": "uint256"
        }
      ],
      "payable": false,
      "stateMutability": "view",
      "type": "function"
    },
    {
      "constant": true,
      "inputs": [
        {
          "name": "token",
          "type": "address"
        },
        {
          "name": "id",
          "type": "uint256"
        }
      ],
      "name": "getDeposit",
      "outputs": [
        {
          "components": [
            {
              "name": "depositor",
              "type": "address"
            },
            {
              "name": "balance",
              "type": "uint256"
            }
          ],
          "name": "deposit",
          "type": "tuple"
        }
      ],
      "payable": false,
      "stateMutability": "view",
      "type": "function"
    },
    {
      "constant": true,
      "inputs": [],
      "name": "getNumPeriodsPerDay",
      "outputs": [
        {
          "name": "numPeriodsPerDay",
          "type": "uint256"
        }
      ],
      "payable": false,
      "stateMutability": "view",
      "type": "function"
    },
    {
      "constant": true,
      "inputs": [],
      "name": "getTimeToPayout",
      "outputs": [
        {
          "name": "timeToPayout",
          "type": "uint256"
        }
      ],
      "payable": false,
      "stateMutability": "view",
      "type": "function"
    },
    {
      "constant": false,
      "inputs": [
        {
          "name": "key",
          "type": "bytes"
        },
        {
          "name": "value",
          "type": "bytes"
        },
        {
          "name": "branchMask",
          "type": "uint256"
        },
        {
          "name": "siblings",
          "type": "bytes32[]"
        }
      ],
      "name": "initiateRewardPayout",
      "outputs": [],
      "payable": false,
      "stateMutability": "nonpayable",
      "type": "function"
    }
  ],
  "bytecode": "0x60806040523480156200001157600080fd5b5060405160608062002eaf83398101806040526200003391908101906200051f565b33600360006101000a81548173ffffffffffffffffffffffffffffffffffffffff021916908373ffffffffffffffffffffffffffffffffffffffff160217905550826000806101000a81548173ffffffffffffffffffffffffffffffffffffffff021916908373ffffffffffffffffffffffffffffffffffffffff16021790555081600160006101000a81548173ffffffffffffffffffffffffffffffffffffffff021916908373ffffffffffffffffffffffffffffffffffffffff16021790555080600260006101000a81548173ffffffffffffffffffffffffffffffffffffffff021916908373ffffffffffffffffffffffffffffffffffffffff1602179055506200014f670de0b6b3a7640000620001b860201b60201c565b62000162610e106200025560201b60201c565b6200017e670de0b6b3a76400006064026200034f60201b60201c565b6200019262093a80620003ec60201b60201c565b42600981905550620001a96200049a60201b60201c565b60108190555050505062000700565b3373ffffffffffffffffffffffffffffffffffffffff16600360009054906101000a900473ffffffffffffffffffffffffffffffffffffffff1673ffffffffffffffffffffffffffffffffffffffff16146200024b576040517f08c379a000000000000000000000000000000000000000000000000000000000815260040162000242906200063b565b60405180910390fd5b8060068190555050565b3373ffffffffffffffffffffffffffffffffffffffff16600360009054906101000a900473ffffffffffffffffffffffffffffffffffffffff1673ffffffffffffffffffffffffffffffffffffffff1614620002e8576040517f08c379a0000000000000000000000000000000000000000000000000000000008152600401620002df906200063b565b60405180910390fd5b6201518081111562000331576040517f08c379a000000000000000000000000000000000000000000000000000000000815260040162000328906200065d565b60405180910390fd5b806004819055508062015180816200034557fe5b0460058190555050565b3373ffffffffffffffffffffffffffffffffffffffff16600360009054906101000a900473ffffffffffffffffffffffffffffffffffffffff1673ffffffffffffffffffffffffffffffffffffffff1614620003e2576040517f08c379a0000000000000000000000000000000000000000000000000000000008152600401620003d9906200063b565b60405180910390fd5b8060078190555050565b3373ffffffffffffffffffffffffffffffffffffffff16600360009054906101000a900473ffffffffffffffffffffffffffffffffffffffff1673ffffffffffffffffffffffffffffffffffffffff16146200047f576040517f08c379a000000000000000000000000000000000000000000000000000000000815260040162000476906200063b565b60405180910390fd5b620151808110156200049057600080fd5b8060088190555050565b600080620151804281620004aa57fe5b0690506004548181620004b957fe5b04915060055482111562000504576040517f08c379a0000000000000000000000000000000000000000000000000000000008152600401620004fb906200067f565b60405180910390fd5b5090565b6000815190506200051981620006e6565b92915050565b6000806000606084860312156200053557600080fd5b6000620005458682870162000508565b9350506020620005588682870162000508565b92505060406200056b8682870162000508565b9150509250925092565b600062000584600a83620006a1565b91507f6f6e6c792d6f776e6572000000000000000000000000000000000000000000006000830152602082019050919050565b6000620005c6601183620006a1565b91507f696e74657276616c2d746f6f2d6c6f6e670000000000000000000000000000006000830152602082019050919050565b600062000608600e83620006a1565b91507f696e76616c69642d706572696f640000000000000000000000000000000000006000830152602082019050919050565b60006020820190508181036000830152620006568162000575565b9050919050565b600060208201905081810360008301526200067881620005b7565b9050919050565b600060208201905081810360008301526200069a81620005f9565b9050919050565b600082825260208201905092915050565b6000620006bf82620006c6565b9050919050565b600073ffffffffffffffffffffffffffffffffffffffff82169050919050565b620006f181620006b2565b8114620006fd57600080fd5b50565b61279f80620007106000396000f3fe608060405234801561001057600080fd5b50600436106100f55760003560e01c80639821f06511610097578063da2d265b11610066578063da2d265b1461025e578063dd4b44f21461027c578063deff30c614610298578063df53d9fd146102b4576100f5565b80639821f065146101d85780639a2bcd27146101f4578063bcffb2ce14610210578063d6e91e911461022e576100f5565b80634fb2e45d116100d35780634fb2e45d1461016457806366168bd7146101805780636654edca1461019c5780636e02de4c146101ba576100f5565b8063086146d2146100fa5780632726b506146101185780633a6b01e114610148575b600080fd5b6101026102d0565b60405161010f919061248c565b60405180910390f35b610132600480360361012d9190810190611b21565b610339565b60405161013f9190612471565b60405180910390f35b610162600480360361015d9190810190611b86565b610404565b005b61017e60048036036101799190810190611acf565b6104f0565b005b61019a60048036036101959190810190611b21565b6105c4565b005b6101a461081e565b6040516101b1919061248c565b60405180910390f35b6101c2610828565b6040516101cf91906121f3565b60405180910390f35b6101f260048036036101ed9190810190611c31565b6108a8565b005b61020e60048036036102099190810190611c31565b61099b565b005b610218610a35565b604051610225919061248c565b60405180910390f35b61024860048036036102439190810190611acf565b610a56565b604051610255919061248c565b60405180910390f35b610266610ae7565b604051610273919061248c565b60405180910390f35b61029660048036036102919190810190611c31565b610b1e565b005b6102b260048036036102ad9190810190611acf565b610bc8565b005b6102ce60048036036102c99190810190611c31565b610f6c565b005b6000806201518042816102df57fe5b06905060045481816102ed57fe5b049150600554821115610335576040517f08c379a000000000000000000000000000000000000000000000000000000000815260040161032c90612451565b60405180910390fd5b5090565b61034161194a565b600a60008473ffffffffffffffffffffffffffffffffffffffff1673ffffffffffffffffffffffffffffffffffffffff16815260200190815260200160002060008381526020019081526020016000206040518060400160405290816000820160009054906101000a900473ffffffffffffffffffffffffffffffffffffffff1673ffffffffffffffffffffffffffffffffffffffff1673ffffffffffffffffffffffffffffffffffffffff168152602001600182015481525050905092915050565b600061040e610a35565b1461044e576040517f08c379a0000000000000000000000000000000000000000000000000000000008152600401610445906123d1565b60405180910390fd5b426009819055506000809054906101000a900473ffffffffffffffffffffffffffffffffffffffff1673ffffffffffffffffffffffffffffffffffffffff1663e6f519ce6000868686866040518663ffffffff1660e01b81526004016104b895949392919061218b565b600060405180830381600087803b1580156104d257600080fd5b505af11580156104e6573d6000803e3d6000fd5b5050505050505050565b3373ffffffffffffffffffffffffffffffffffffffff16600360009054906101000a900473ffffffffffffffffffffffffffffffffffffffff1673ffffffffffffffffffffffffffffffffffffffff1614610580576040517f08c379a000000000000000000000000000000000000000000000000000000000815260040161057790612371565b60405180910390fd5b80600360006101000a81548173ffffffffffffffffffffffffffffffffffffffff021916908373ffffffffffffffffffffffffffffffffffffffff16021790555050565b600654811015610609576040517f08c379a0000000000000000000000000000000000000000000000000000000008152600401610600906123f1565b60405180910390fd5b8173ffffffffffffffffffffffffffffffffffffffff166323b872dd3330846040518463ffffffff1660e01b815260040161064693929190612154565b602060405180830381600087803b15801561066057600080fd5b505af1158015610674573d6000803e3d6000fd5b505050506040513d601f19601f820116820180604052506106989190810190611b5d565b5060405180604001604052803373ffffffffffffffffffffffffffffffffffffffff16815260200182815250600a60008473ffffffffffffffffffffffffffffffffffffffff1673ffffffffffffffffffffffffffffffffffffffff1681526020019081526020016000206000600c60008673ffffffffffffffffffffffffffffffffffffffff1673ffffffffffffffffffffffffffffffffffffffff168152602001908152602001600020600081548092919060010191905055815260200190815260200160002060008201518160000160006101000a81548173ffffffffffffffffffffffffffffffffffffffff021916908373ffffffffffffffffffffffffffffffffffffffff160217905550602082015181600101559050508173ffffffffffffffffffffffffffffffffffffffff163373ffffffffffffffffffffffffffffffffffffffff167fcbc4a4091b012bb1329c38bbbb15455f5cac5aa3673da0a7f38cd61a4f49551783604051610812919061248c565b60405180910390a35050565b6000600554905090565b606060055460405190808252806020026020018201604052801561085b5781602001602082028038833980820191505090505b50905060005b6005548110156108a457600e60008281526020019081526020016000205482828151811061088b57fe5b6020026020010181815250508080600101915050610861565b5090565b3373ffffffffffffffffffffffffffffffffffffffff16600360009054906101000a900473ffffffffffffffffffffffffffffffffffffffff1673ffffffffffffffffffffffffffffffffffffffff1614610938576040517f08c379a000000000000000000000000000000000000000000000000000000000815260040161092f90612371565b60405180910390fd5b6201518081111561097e576040517f08c379a000000000000000000000000000000000000000000000000000000000815260040161097590612431565b60405180910390fd5b8060048190555080620151808161099157fe5b0460058190555050565b3373ffffffffffffffffffffffffffffffffffffffff16600360009054906101000a900473ffffffffffffffffffffffffffffffffffffffff1673ffffffffffffffffffffffffffffffffffffffff1614610a2b576040517f08c379a0000000000000000000000000000000000000000000000000000000008152600401610a2290612371565b60405180910390fd5b8060068190555050565b6000610a51600042610a4b600954600854611006565b03611056565b905090565b6000610ae0600c60008473ffffffffffffffffffffffffffffffffffffffff1673ffffffffffffffffffffffffffffffffffffffff16815260200190815260200160002054600b60008573ffffffffffffffffffffffffffffffffffffffff1673ffffffffffffffffffffffffffffffffffffffff16815260200190815260200160002054611070565b9050919050565b6000805b600554811015610b1a57600e600082815260200190815260200160002054820191508080600101915050610aeb565b5090565b3373ffffffffffffffffffffffffffffffffffffffff16600360009054906101000a900473ffffffffffffffffffffffffffffffffffffffff1673ffffffffffffffffffffffffffffffffffffffff1614610bae576040517f08c379a0000000000000000000000000000000000000000000000000000000008152600401610ba590612371565b60405180910390fd5b62015180811015610bbe57600080fd5b8060088190555050565b6000610bd382610a56565b11610c13576040517f08c379a0000000000000000000000000000000000000000000000000000000008152600401610c0a90612351565b60405180910390fd5b610c5e600d60008373ffffffffffffffffffffffffffffffffffffffff1673ffffffffffffffffffffffffffffffffffffffff16815260200190815260200160002054600454611006565b421015610ca0576040517f08c379a0000000000000000000000000000000000000000000000000000000008152600401610c9790612331565b60405180910390fd5b42600d60008373ffffffffffffffffffffffffffffffffffffffff1673ffffffffffffffffffffffffffffffffffffffff168152602001908152602001600020819055506000600a60008373ffffffffffffffffffffffffffffffffffffffff1673ffffffffffffffffffffffffffffffffffffffff1681526020019081526020016000206000600b60008573ffffffffffffffffffffffffffffffffffffffff1673ffffffffffffffffffffffffffffffffffffffff168152602001908152602001600020548152602001908152602001600020905060008160000160009054906101000a900473ffffffffffffffffffffffffffffffffffffffff1690506000600654905080836001016000828254039250508190555060065483600101541015610ea057826001015481019050600a60008573ffffffffffffffffffffffffffffffffffffffff1673ffffffffffffffffffffffffffffffffffffffff1681526020019081526020016000206000600b60008773ffffffffffffffffffffffffffffffffffffffff1673ffffffffffffffffffffffffffffffffffffffff1681526020019081526020016000206000815480929190600101919050558152602001908152602001600020600080820160006101000a81549073ffffffffffffffffffffffffffffffffffffffff0219169055600182016000905550505b6000610eac85836110c0565b9050610eb781611214565b610ec0816114b5565b6000610ed3610ecd610ae7565b83611006565b90506000610ee1838361150d565b90506000610ef182600754611545565b9050610efd8682611585565b8773ffffffffffffffffffffffffffffffffffffffff168673ffffffffffffffffffffffffffffffffffffffff167fc510044739924ca21e51c52c5a40ffed601c2ae0051fe28e7df192e8d7b399db87604051610f5a919061248c565b60405180910390a35050505050505050565b3373ffffffffffffffffffffffffffffffffffffffff16600360009054906101000a900473ffffffffffffffffffffffffffffffffffffffff1673ffffffffffffffffffffffffffffffffffffffff1614610ffc576040517f08c379a0000000000000000000000000000000000000000000000000000000008152600401610ff390612371565b60405180910390fd5b8060078190555050565b6000828284019150811015611050576040517f08c379a0000000000000000000000000000000000000000000000000000000008152600401611047906123b1565b60405180910390fd5b92915050565b6000818311156110665781611068565b825b905092915050565b60008282840391508111156110ba576040517f08c379a00000000000000000000000000000000000000000000000000000000081526004016110b190612311565b60405180910390fd5b92915050565b600080600260009054906101000a900473ffffffffffffffffffffffffffffffffffffffff1673ffffffffffffffffffffffffffffffffffffffff166306f2bf62856040518263ffffffff1660e01b815260040161111e919061211e565b60206040518083038186803b15801561113657600080fd5b505afa15801561114a573d6000803e3d6000fd5b505050506040513d601f19601f8201168201806040525061116e9190810190611af8565b905060008190508073ffffffffffffffffffffffffffffffffffffffff166395e3c50b8560006201518042016040518463ffffffff1660e01b81526004016111b8939291906124a7565b602060405180830381600087803b1580156111d257600080fd5b505af11580156111e6573d6000803e3d6000fd5b505050506040513d601f19601f8201168201806040525061120a9190810190611c5a565b9250505092915050565b7fffffffffffffffffffffffffffffffffffffffffffffffffffffffffffffffff6000809054906101000a900473ffffffffffffffffffffffffffffffffffffffff1673ffffffffffffffffffffffffffffffffffffffff16634cb164c76040518163ffffffff1660e01b815260040160206040518083038186803b15801561129c57600080fd5b505afa1580156112b0573d6000803e3d6000fd5b505050506040513d601f19601f820116820180604052506112d49190810190611c5a565b14611314576040517f08c379a000000000000000000000000000000000000000000000000000000000815260040161130b90612411565b60405180910390fd5b60008060009054906101000a900473ffffffffffffffffffffffffffffffffffffffff16905060008190508073ffffffffffffffffffffffffffffffffffffffff166108fc849081150290604051600060405180830381858888f19350505050158015611385573d6000803e3d6000fd5b506000809054906101000a900473ffffffffffffffffffffffffffffffffffffffff1673ffffffffffffffffffffffffffffffffffffffff166389224a1e60006040518263ffffffff1660e01b81526004016113e19190612139565b600060405180830381600087803b1580156113fb57600080fd5b505af115801561140f573d6000803e3d6000fd5b505050506000809054906101000a900473ffffffffffffffffffffffffffffffffffffffff1673ffffffffffffffffffffffffffffffffffffffff1663c68d19ea6001600080600160008960006040518863ffffffff1660e01b815260040161147e9796959493929190612215565b600060405180830381600087803b15801561149857600080fd5b505af11580156114ac573d6000803e3d6000fd5b50505050505050565b60006114bf6102d0565b90506010548114156114e05781600f60008282540192505081905550611509565b600f54600e60008381526020019081526020016000208190555081600f81905550806010819055505b5050565b60008161153561152585670de0b6b3a76400006118e8565b6002858161152f57fe5b04611006565b8161153c57fe5b04905092915050565b6000670de0b6b3a764000061157561155d85856118e8565b6002670de0b6b3a76400008161156f57fe5b04611006565b8161157c57fe5b04905092915050565b7fffffffffffffffffffffffffffffffffffffffffffffffffffffffffffffffff6000809054906101000a900473ffffffffffffffffffffffffffffffffffffffff1673ffffffffffffffffffffffffffffffffffffffff16634cb164c76040518163ffffffff1660e01b815260040160206040518083038186803b15801561160d57600080fd5b505afa158015611621573d6000803e3d6000fd5b505050506040513d601f19601f820116820180604052506116459190810190611c5a565b14611685576040517f08c379a000000000000000000000000000000000000000000000000000000000815260040161167c90612411565b60405180910390fd5b60008060009054906101000a900473ffffffffffffffffffffffffffffffffffffffff1673ffffffffffffffffffffffffffffffffffffffff166321df0da76040518163ffffffff1660e01b815260040160206040518083038186803b1580156116ee57600080fd5b505afa158015611702573d6000803e3d6000fd5b505050506040513d601f19601f820116820180604052506117269190810190611af8565b90506000809054906101000a900473ffffffffffffffffffffffffffffffffffffffff1673ffffffffffffffffffffffffffffffffffffffff166397304ced836040518263ffffffff1660e01b8152600401611782919061248c565b600060405180830381600087803b15801561179c57600080fd5b505af11580156117b0573d6000803e3d6000fd5b505050506000809054906101000a900473ffffffffffffffffffffffffffffffffffffffff1673ffffffffffffffffffffffffffffffffffffffff166389224a1e826040518263ffffffff1660e01b815260040161180e919061211e565b600060405180830381600087803b15801561182857600080fd5b505af115801561183c573d6000803e3d6000fd5b50505050600160009054906101000a900473ffffffffffffffffffffffffffffffffffffffff1673ffffffffffffffffffffffffffffffffffffffff1663f23efb506001600060016000888789600160006040518a63ffffffff1660e01b81526004016118b199989796959493929190612284565b600060405180830381600087803b1580156118cb57600080fd5b505af11580156118df573d6000803e3d6000fd5b50505050505050565b600080821480611905575082828385029250828161190257fe5b04145b611944576040517f08c379a000000000000000000000000000000000000000000000000000000000815260040161193b90612391565b60405180910390fd5b92915050565b6040518060400160405280600073ffffffffffffffffffffffffffffffffffffffff168152602001600081525090565b60008135905061198981612709565b92915050565b60008151905061199e81612709565b92915050565b600082601f8301126119b557600080fd5b81356119c86119c38261250b565b6124de565b915081818352602084019350602081019050838560208402820111156119ed57600080fd5b60005b83811015611a1d5781611a038882611a3c565b8452602084019350602083019250506001810190506119f0565b5050505092915050565b600081519050611a3681612720565b92915050565b600081359050611a4b81612737565b92915050565b600082601f830112611a6257600080fd5b8135611a75611a7082612533565b6124de565b91508082526020830160208301858383011115611a9157600080fd5b611a9c8382846126b6565b50505092915050565b600081359050611ab48161274e565b92915050565b600081519050611ac98161274e565b92915050565b600060208284031215611ae157600080fd5b6000611aef8482850161197a565b91505092915050565b600060208284031215611b0a57600080fd5b6000611b188482850161198f565b91505092915050565b60008060408385031215611b3457600080fd5b6000611b428582860161197a565b9250506020611b5385828601611aa5565b9150509250929050565b600060208284031215611b6f57600080fd5b6000611b7d84828501611a27565b91505092915050565b60008060008060808587031215611b9c57600080fd5b600085013567ffffffffffffffff811115611bb657600080fd5b611bc287828801611a51565b945050602085013567ffffffffffffffff811115611bdf57600080fd5b611beb87828801611a51565b9350506040611bfc87828801611aa5565b925050606085013567ffffffffffffffff811115611c1957600080fd5b611c25878288016119a4565b91505092959194509250565b600060208284031215611c4357600080fd5b6000611c5184828501611aa5565b91505092915050565b600060208284031215611c6c57600080fd5b6000611c7a84828501611aba565b91505092915050565b6000611c8f8383611dab565b60208301905092915050565b6000611ca78383612100565b60208301905092915050565b611cbc8161265c565b82525050565b611ccb8161260a565b82525050565b611cda8161260a565b82525050565b611ce9816125f8565b82525050565b6000611cfa82612579565b611d0481856125b4565b9350611d0f8361255f565b8060005b83811015611d40578151611d278882611c83565b9750611d328361259a565b925050600181019050611d13565b5085935050505092915050565b6000611d5882612584565b611d6281856125c5565b9350611d6d8361256c565b8060005b83811015611d9e578151611d858882611c9b565b9750611d90836125a7565b925050600181019050611d71565b5085935050505092915050565b611db481612628565b82525050565b6000611dc58261258f565b611dcf81856125d6565b9350611ddf8185602086016126c5565b611de8816126f8565b840191505092915050565b611dfc8161266e565b82525050565b611e0b81612680565b82525050565b6000611e1e6015836125e7565b91507f64732d6d6174682d7375622d756e646572666c6f7700000000000000000000006000830152602082019050919050565b6000611e5e600d836125e7565b91507f73616c652d746f6f2d736f6f6e000000000000000000000000000000000000006000830152602082019050919050565b6000611e9e6011836125e7565b91507f6e6f2d746f6b656e2d6465706f736974730000000000000000000000000000006000830152602082019050919050565b6000611ede600a836125e7565b91507f6f6e6c792d6f776e6572000000000000000000000000000000000000000000006000830152602082019050919050565b6000611f1e6014836125e7565b91507f64732d6d6174682d6d756c2d6f766572666c6f770000000000000000000000006000830152602082019050919050565b6000611f5e6014836125e7565b91507f64732d6d6174682d6164642d6f766572666c6f770000000000000000000000006000830152602082019050919050565b6000611f9e600f836125e7565b91507f7061796f75742d746f6f2d736f6f6e00000000000000000000000000000000006000830152602082019050919050565b6000611fde6011836125e7565b91507f6465706f7369742d746f6f2d736d616c6c0000000000000000000000000000006000830152602082019050919050565b600061201e6019836125e7565b91507f636f6c6f6e792d6261642d7265776172642d696e7665727365000000000000006000830152602082019050919050565b600061205e6011836125e7565b91507f696e74657276616c2d746f6f2d6c6f6e670000000000000000000000000000006000830152602082019050919050565b600061209e600e836125e7565b91507f696e76616c69642d706572696f640000000000000000000000000000000000006000830152602082019050919050565b6040820160008201516120e76000850182611cc2565b5060208201516120fa6020850182612100565b50505050565b61210981612652565b82525050565b61211881612652565b82525050565b60006020820190506121336000830184611ce0565b92915050565b600060208201905061214e6000830184611cb3565b92915050565b60006060820190506121696000830186611cb3565b6121766020830185611ce0565b612183604083018461210f565b949350505050565b600060a0820190506121a06000830188611cb3565b81810360208301526121b28187611dba565b905081810360408301526121c68186611dba565b90506121d5606083018561210f565b81810360808301526121e78184611cef565b90509695505050505050565b6000602082019050818103600083015261220d8184611d4d565b905092915050565b600060e08201905061222a600083018a611e02565b6122376020830189611df3565b6122446040830188611df3565b612251606083018761210f565b61225e608083018661210f565b61226b60a083018561210f565b61227860c0830184611cb3565b98975050505050505050565b60006101208201905061229a600083018c611e02565b6122a7602083018b611df3565b6122b4604083018a611e02565b6122c16060830189611df3565b6122ce6080830188611cd1565b6122db60a0830187611ce0565b6122e860c083018661210f565b6122f560e083018561210f565b612303610100830184611df3565b9a9950505050505050505050565b6000602082019050818103600083015261232a81611e11565b9050919050565b6000602082019050818103600083015261234a81611e51565b9050919050565b6000602082019050818103600083015261236a81611e91565b9050919050565b6000602082019050818103600083015261238a81611ed1565b9050919050565b600060208201905081810360008301526123aa81611f11565b9050919050565b600060208201905081810360008301526123ca81611f51565b9050919050565b600060208201905081810360008301526123ea81611f91565b9050919050565b6000602082019050818103600083015261240a81611fd1565b9050919050565b6000602082019050818103600083015261242a81612011565b9050919050565b6000602082019050818103600083015261244a81612051565b9050919050565b6000602082019050818103600083015261246a81612091565b9050919050565b600060408201905061248660008301846120d1565b92915050565b60006020820190506124a1600083018461210f565b92915050565b60006060820190506124bc600083018661210f565b6124c96020830185611df3565b6124d6604083018461210f565b949350505050565b6000604051905081810181811067ffffffffffffffff8211171561250157600080fd5b8060405250919050565b600067ffffffffffffffff82111561252257600080fd5b602082029050602081019050919050565b600067ffffffffffffffff82111561254a57600080fd5b601f19601f8301169050602081019050919050565b6000602082019050919050565b6000602082019050919050565b600081519050919050565b600081519050919050565b600081519050919050565b6000602082019050919050565b6000602082019050919050565b600082825260208201905092915050565b600082825260208201905092915050565b600082825260208201905092915050565b600082825260208201905092915050565b600061260382612632565b9050919050565b600061261582612632565b9050919050565b60008115159050919050565b6000819050919050565b600073ffffffffffffffffffffffffffffffffffffffff82169050919050565b6000819050919050565b600061266782612692565b9050919050565b600061267982612652565b9050919050565b600061268b82612652565b9050919050565b600061269d826126a4565b9050919050565b60006126af82612632565b9050919050565b82818337600083830152505050565b60005b838110156126e35780820151818401526020810190506126c8565b838111156126f2576000848401525b50505050565b6000601f19601f8301169050919050565b612712816125f8565b811461271d57600080fd5b50565b6127298161261c565b811461273457600080fd5b50565b61274081612628565b811461274b57600080fd5b50565b61275781612652565b811461276257600080fd5b5056fea265627a7a723058202e7551ec2ef8f312742d301586f3ec042a823e4fa4eca5db32af8cda062fec576c6578706572696d656e74616cf50037",
  "source": "/*\n  This file is part of The Colony Network.\n\n  The Colony Network is free software: you can redistribute it and/or modify\n  it under the terms of the GNU General Public License as published by\n  the Free Software Foundation, either version 3 of the License, or\n  (at your option) any later version.\n\n  The Colony Network is distributed in the hope that it will be useful,\n  but WITHOUT ANY WARRANTY; without even the implied warranty of\n  MERCHANTABILITY or FITNESS FOR A PARTICULAR PURPOSE.  See the\n  GNU General Public License for more details.\n\n  You should have received a copy of the GNU General Public License\n  along with The Colony Network. If not, see <http://www.gnu.org/licenses/>.\n*/\n\npragma solidity 0.5.8;\npragma experimental ABIEncoderV2;\n\nimport \"./lib/colony/IColony.sol\";\nimport \"./lib/colony/OneTxPayment.sol\";\nimport \"./lib/colony/Token.sol\";\nimport \"./lib/dappsys/math.sol\";\nimport \"./lib/uniswap/UniswapFactoryInterface.sol\";\nimport \"./lib/uniswap/UniswapExchangeInterface.sol\";\n\n\ncontract Warsaw is DSMath {\n  uint256 constant UINT256_MAX = 2**256 - 1;\n  uint256 constant ROOT_DOMAIN = 1;\n  uint256 constant ROOT_POT = 1;\n  uint256 constant REWARDS_POT = 0;\n\n  IColony colony;\n  OneTxPayment oneTxPayment;\n  UniswapFactoryInterface uniswapFactory;\n\n  address owner;\n\n  uint256 salePeriod;\n  uint256 periodsPerDay;\n  uint256 saleAmount;\n\n  uint256 dailyMint;\n  uint256 payoutFrequency;\n  uint256 lastRewardPayout;\n\n  mapping (address => mapping (uint256 => Deposit)) deposits;\n  mapping (address => uint256) heads;\n  mapping (address => uint256) tails;\n  mapping (address => uint256) lastSale;\n\n  mapping (uint256 => uint256) periodIncome;\n  uint256 activePeriodIncome;\n  uint256 activePeriod;\n\n  struct Deposit {\n    address payable depositor;\n    uint256 balance;\n  }\n\n  event TokensDeposited(address indexed depositor, address indexed token, uint256 amount);\n  event TokensComposted(address indexed depositor, address indexed token, uint256 amount);\n\n  modifier onlyOwner() {\n    require(owner == msg.sender, \"only-owner\");\n    _;\n  }\n\n  // Note: contract assumes root, funding, and administration permissions in root domain\n  // Note: oneTxPayment assumes funding and administration permissions in root domain\n  // Note: needs reward inverse set to UINT256_MAX (i.e. 0 automatic rewards claims)\n  constructor(address colonyAddress, address oneTxPaymentAddress, address uniswapFactoryAddress) public {\n    owner = msg.sender;\n    colony = IColony(colonyAddress);\n    oneTxPayment = OneTxPayment(oneTxPaymentAddress);\n    uniswapFactory = UniswapFactoryInterface(uniswapFactoryAddress);\n\n    // Defaults!\n    setSaleAmount(WAD);\n    setSalePeriod(1 hours);\n    setDailyMint(100 * WAD);\n    setPayoutFrequency(7 days);\n\n    // Initialize!\n    lastRewardPayout = now;\n    activePeriod = getCurrentPeriod();\n  }\n\n  // Administrative functions\n\n  function transferOwner(address newOwner) public onlyOwner {\n    owner = newOwner;\n  }\n\n  function setSalePeriod(uint256 interval) public onlyOwner {\n    require(interval <= 24 hours, \"interval-too-long\");\n    salePeriod = interval;\n    periodsPerDay = 24 hours / interval;\n  }\n\n  function setSaleAmount(uint256 wad) public onlyOwner {\n    saleAmount = wad;\n  }\n\n  function setDailyMint(uint256 wad) public onlyOwner {\n    dailyMint = wad;\n  }\n\n  function setPayoutFrequency(uint256 frequency) public onlyOwner {\n    require(frequency >= 1 days);\n    payoutFrequency = frequency;\n  }\n\n  // Public functions\n\n  function depositTokens(address token, uint256 wad) public {\n    require(wad >= saleAmount, \"deposit-too-small\");\n\n    Token(token).transferFrom(msg.sender, address(this), wad);\n    deposits[token][tails[token]++] = Deposit({ depositor: msg.sender, balance: wad});\n\n    emit TokensDeposited(msg.sender, token, wad);\n  }\n\n  function sellTokens(address token) public {\n    require(getNumDeposits(token) > 0, \"no-token-deposits\");\n    require(now >= add(lastSale[token], salePeriod), \"sale-too-soon\");\n    lastSale[token] = now;\n\n    Deposit storage deposit = deposits[token][heads[token]];\n    address payable depositor = deposit.depositor;\n    uint256 amount = saleAmount;\n\n    // Subtract from balance\n    deposit.balance -= amount;\n\n    // If *remaining* balance is too small, liquidate and move to next\n    if (deposit.balance < saleAmount) {\n      amount += deposit.balance;\n      delete deposits[token][heads[token]++];\n    }\n\n    // Do the sale\n    uint256 etherValue = executeSale(token, amount);\n    sendEtherToRewardsPot(etherValue);\n\n    // Update active period income\n    updateActivePeriodIncome(etherValue);\n\n    // Get daily income (excluding current period, including current tx)\n    uint256 dailyIncome = add(getDailyIncome(), etherValue);\n\n    // // Figure out percent of daily income depositor gets\n    uint256 percentContribution = wdiv(etherValue, dailyIncome);\n    uint256 tokensToMint = wmul(percentContribution, dailyMint);\n    mintAndSendTokens(depositor, tokensToMint);\n\n    emit TokensComposted(depositor, token, amount);\n  }\n\n  // Public view functions\n\n  function getCurrentPeriod() public view returns(uint256 period) {\n    uint256 secondInDay = now % 24 hours;\n    period = secondInDay / salePeriod;\n    require(period <= periodsPerDay, \"invalid-period\");\n  }\n\n  function getDailyIncome() public view returns(uint256 total) {\n    for (uint256 i; i < periodsPerDay; i++) {\n      total += periodIncome[i];\n    }\n  }\n\n  function getPeriodIncomes() public view returns(uint256[] memory periodIncomes) {\n    periodIncomes = new uint256[](periodsPerDay);\n    for (uint256 i; i < periodsPerDay; i++) {\n      periodIncomes[i] = periodIncome[i];\n    }\n  }\n\n  function getNumDeposits(address token) public view returns(uint256 numDeposits) {\n    numDeposits = sub(tails[token], heads[token]);\n  }\n\n  function getDeposit(address token, uint256 id) public view returns(Deposit memory deposit) {\n    deposit = deposits[token][id];\n  }\n\n  function getNumPeriodsPerDay() public view returns(uint256 numPeriodsPerDay) {\n    numPeriodsPerDay = periodsPerDay;\n  }\n\n  function getTimeToPayout() public view returns(uint256 timeToPayout) {\n    timeToPayout = min(0, add(lastRewardPayout, payoutFrequency) - now);\n  }\n\n  // Internal functions\n\n  function updateActivePeriodIncome(uint256 income) internal {\n    uint256 currentPeriod = getCurrentPeriod();\n    if (currentPeriod == activePeriod) {\n      // Still in the same period, increment running total\n      activePeriodIncome += income;\n    } else {\n      // In a new period, so save and restart\n      periodIncome[currentPeriod] = activePeriodIncome;\n      activePeriodIncome = income;\n      activePeriod = currentPeriod;\n    }\n  }\n\n  // REAL IMPLEMENTATIONS\n\n  function initiateRewardPayout(\n    bytes memory key,\n    bytes memory value,\n    uint256 branchMask,\n    bytes32[] memory siblings\n  )\n    public\n  {\n    require(getTimeToPayout() == 0, \"payout-too-soon\");\n\n    lastRewardPayout = now;\n    colony.startNextRewardPayout(address(0x0), key, value, branchMask, siblings);\n  }\n\n  function executeSale(address token, uint256 wad) internal returns(uint256 etherValue) {\n    address uniswapExchangeAddress = uniswapFactory.getExchange(token);\n    UniswapExchangeInterface uniswapExchange = UniswapExchangeInterface(uniswapExchangeAddress);\n    etherValue = uniswapExchange.tokenToEthSwapInput(wad, 0, now + 1 days); // Conservative, don't want tx to fail\n  }\n\n  function mintAndSendTokens(address payable recipient, uint256 amount) internal {\n    require(colony.getRewardInverse() == UINT256_MAX, \"colony-bad-reward-inverse\");\n\n    address token = colony.getToken();\n    colony.mintTokens(amount);\n    colony.claimColonyFunds(token);\n    oneTxPayment.makePayment(1, 0, 1, 0, recipient, token, amount, ROOT_DOMAIN, 0);\n  }\n\n  function sendEtherToRewardsPot(uint256 amount) internal {\n    require(colony.getRewardInverse() == UINT256_MAX, \"colony-bad-reward-inverse\");\n\n    // Well this is ratchet\n    address colonyAddress = address(colony);\n    address payable colonyAddressPayable = (address(uint160(colonyAddress)));\n    colonyAddressPayable.transfer(amount);\n\n    colony.claimColonyFunds(address(0x0));\n    colony.moveFundsBetweenPots(1, 0, 0, ROOT_POT, REWARDS_POT, amount, address(0x0));\n  }\n\n  // TEST MOCKS\n\n  // function initiateRewardPayout(\n  //   bytes memory key,\n  //   bytes memory value,\n  //   uint256 branchMask,\n  //   bytes32[] memory siblings\n  // )\n  //   public\n  // {\n  //   // Calls to colony\n  // }\n\n  // function executeSale(address token, uint256 wad) internal returns(uint256 etherValue) {\n  //   // Calls to uniswap\n  //   return WAD;\n  // }\n\n  // function mintAndSendTokens(address payable recipient, uint256 amount) internal {\n  //   // Calls to colony\n  // }\n\n  // function sendEtherToRewardsPot(uint256 amount) internal {\n  //   // Calls to colony\n  // }\n\n}\n",
  "sourcePath": "/Users/kronosapiens/code/colony/warsaw/les-contracts/contracts/Warsaw.sol",
  "compiler": {
    "name": "solc",
    "version": "0.5.8+commit.23d335f2.Linux.g++"
  },
  "schemaVersion": "3.0.13",
  "updatedAt": "2019-08-25T02:14:18.767Z",
  "devdoc": {
    "methods": {}
  },
  "userdoc": {
    "methods": {}
  }
}