{
  "contractName": "WarsawBase",
  "abi": [
    {
      "inputs": [
        {
          "name": "colonyAddress",
          "type": "address"
        },
        {
          "name": "oneTxPaymentAddress",
          "type": "address"
        },
        {
          "name": "uniswapFactoryAddress",
          "type": "address"
        }
      ],
      "payable": false,
      "stateMutability": "nonpayable",
      "type": "constructor"
    },
    {
      "constant": false,
      "inputs": [
        {
          "name": "newOwner",
          "type": "address"
        }
      ],
      "name": "transferOwner",
      "outputs": [],
      "payable": false,
      "stateMutability": "nonpayable",
      "type": "function"
    },
    {
      "constant": false,
      "inputs": [
        {
          "name": "interval",
          "type": "uint256"
        }
      ],
      "name": "setSalePeriod",
      "outputs": [],
      "payable": false,
      "stateMutability": "nonpayable",
      "type": "function"
    },
    {
      "constant": false,
      "inputs": [
        {
          "name": "wad",
          "type": "uint256"
        }
      ],
      "name": "setSaleAmount",
      "outputs": [],
      "payable": false,
      "stateMutability": "nonpayable",
      "type": "function"
    },
    {
      "constant": false,
      "inputs": [
        {
          "name": "wad",
          "type": "uint256"
        }
      ],
      "name": "setDailyMint",
      "outputs": [],
      "payable": false,
      "stateMutability": "nonpayable",
      "type": "function"
    },
    {
      "constant": false,
      "inputs": [
        {
          "name": "token",
          "type": "address"
        },
        {
          "name": "wad",
          "type": "uint256"
        }
      ],
      "name": "depositTokens",
      "outputs": [],
      "payable": false,
      "stateMutability": "nonpayable",
      "type": "function"
    },
    {
      "constant": false,
      "inputs": [
        {
          "name": "token",
          "type": "address"
        }
      ],
      "name": "sellTokens",
      "outputs": [],
      "payable": false,
      "stateMutability": "nonpayable",
      "type": "function"
    },
    {
      "constant": true,
      "inputs": [],
      "name": "getCurrentPeriod",
      "outputs": [
        {
          "name": "period",
          "type": "uint256"
        }
      ],
      "payable": false,
      "stateMutability": "view",
      "type": "function"
    },
    {
      "constant": true,
      "inputs": [],
      "name": "getDailyIncome",
      "outputs": [
        {
          "name": "total",
          "type": "uint256"
        }
      ],
      "payable": false,
      "stateMutability": "view",
      "type": "function"
    }
  ],
  "bytecode": "0x60806040523480156200001157600080fd5b5060405160608062000cbe83398101806040526200003391908101906200021f565b60038054336001600160a01b0319918216179091556000805482166001600160a01b03868116919091179091556001805483168583161790556002805490921690831617905562000093678ac7230489e80000620000cb602090811b901c565b620000a6610e106200012060201b60201c565b620000c2670de0b6b3a7640000606402620001c060201b60201c565b50505062000342565b6003546001600160a01b031633146200011b576040517f08c379a00000000000000000000000000000000000000000000000000000000081526004016200011290620002e9565b60405180910390fd5b600655565b6003546001600160a01b0316331462000167576040517f08c379a00000000000000000000000000000000000000000000000000000000081526004016200011290620002e9565b62015180811115620001a7576040517f08c379a00000000000000000000000000000000000000000000000000000000081526004016200011290620002fb565b6004819055806201518081620001b957fe5b0460055550565b6003546001600160a01b0316331462000207576040517f08c379a00000000000000000000000000000000000000000000000000000000081526004016200011290620002e9565b600755565b8051620002198162000328565b92915050565b6000806000606084860312156200023557600080fd5b60006200024386866200020c565b935050602062000256868287016200020c565b925050604062000269868287016200020c565b9150509250925092565b600062000282600a836200030d565b7f6f6e6c792d6f776e657200000000000000000000000000000000000000000000815260200192915050565b6000620002bd6011836200030d565b7f696e74657276616c2d746f302d6c6f6e67000000000000000000000000000000815260200192915050565b60208082528101620002198162000273565b602080825281016200021981620002ae565b90815260200190565b60006001600160a01b03821662000219565b620003338162000316565b81146200033f57600080fd5b50565b61096c80620003526000396000f3fe608060405234801561001057600080fd5b50600436106100885760003560e01c80639a2bcd271161005b5780639a2bcd27146100e6578063da2d265b146100f9578063deff30c614610101578063df53d9fd1461011457610088565b8063086146d21461008d5780634fb2e45d146100ab57806366168bd7146100c05780639821f065146100d3575b600080fd5b610095610127565b6040516100a291906108c5565b60405180910390f35b6100be6100b936600461063a565b61014f565b005b6100be6100ce366004610660565b6101a7565b6100be6100e13660046106b8565b6102b2565b6100be6100f43660046106b8565b61031d565b61009561034f565b6100be61010f36600461063a565b610379565b6100be6101223660046106b8565b6104ba565b60045460009062015180420690818161013c57fe5b04915060055482111561014b57fe5b5090565b6003546001600160a01b0316331461018557604051600160e51b62461bcd02815260040161017c90610875565b60405180910390fd5b600380546001600160a01b0319166001600160a01b0392909216919091179055565b60065481116101cb57604051600160e51b62461bcd02815260040161017c906108a5565b604051600160e01b6323b872dd0281526001600160a01b038316906323b872dd906101fe9033903090869060040161083d565b602060405180830381600087803b15801561021857600080fd5b505af115801561022c573d6000803e3d6000fd5b505050506040513d601f19601f82011682018060405250610250919081019061069a565b5060408051808201825233815260208082019384526001600160a01b03948516600090815260088252838120600a8352848220805460018082019092558352925292909220905181546001600160a01b03191694169390931783559051910155565b6003546001600160a01b031633146102df57604051600160e51b62461bcd02815260040161017c90610875565b6201518081111561030557604051600160e51b62461bcd02815260040161017c906108b5565b600481905580620151808161031657fe5b0460055550565b6003546001600160a01b0316331461034a57604051600160e51b62461bcd02815260040161017c90610875565b600655565b6000805b60055481101561014b576000818152600c60205260409020549190910190600101610353565b6001600160a01b0381166000908152600b602052604090205460045442916103a0916104ec565b10156103c157604051600160e51b62461bcd02815260040161017c90610865565b6001600160a01b03808216600090815260086020908152604080832060098352818420548452909152902080546006805460018401805482900390819055915493949290921692111561045c576001808401546001600160a01b03861660009081526008602090815260408083206009835281842080548088019091558452909152812080546001600160a01b031916815590920191909155015b60006104688583610518565b905061047381610527565b61047c8161052a565b600061048661034f565b905060006104948383610586565b905060006104a4826007546105b7565b90506104b08682610582565b5050505050505050565b6003546001600160a01b031633146104e757604051600160e51b62461bcd02815260040161017c90610875565b600755565b8082018281101561051257604051600160e51b62461bcd02815260040161017c90610895565b92915050565b670de0b6b3a764000092915050565b50565b6000610534610127565b9050600e5481141561054d57600d805483019055610582565b600554600e5482038161055c57fe5b0660011461056657fe5b600d80546000838152600c6020526040902055829055600e8190555b5050565b6000816105a861059e85670de0b6b3a76400006105df565b6002855b046104ec565b816105af57fe5b049392505050565b6000670de0b6b3a76400006105a86105cf85856105df565b6002670de0b6b3a76400006105a2565b60008115806105fa575050808202828282816105f757fe5b04145b61051257604051600160e51b62461bcd02815260040161017c90610885565b80356105128161090c565b805161051281610920565b803561051281610929565b60006020828403121561064c57600080fd5b60006106588484610619565b949350505050565b6000806040838503121561067357600080fd5b600061067f8585610619565b92505060206106908582860161062f565b9150509250929050565b6000602082840312156106ac57600080fd5b60006106588484610624565b6000602082840312156106ca57600080fd5b6000610658848461062f565b6106df816108fb565b82525050565b6106df816108dc565b60006106fb600d836108d3565b7f73616c652d746f6f2d736f6f6e00000000000000000000000000000000000000815260200192915050565b6000610734600a836108d3565b600160b11b6937b7363c96b7bbb732b902815260200192915050565b600061075d6014836108d3565b7f64732d6d6174682d6d756c2d6f766572666c6f77000000000000000000000000815260200192915050565b60006107966014836108d3565b7f64732d6d6174682d6164642d6f766572666c6f77000000000000000000000000815260200192915050565b60006107cf6011836108d3565b7f6465706f7369742d746f6f2d736d616c6c000000000000000000000000000000815260200192915050565b60006108086011836108d3565b7f696e74657276616c2d746f302d6c6f6e67000000000000000000000000000000815260200192915050565b6106df816108f8565b6060810161084b82866106d6565b61085860208301856106e5565b6106586040830184610834565b60208082528101610512816106ee565b6020808252810161051281610727565b6020808252810161051281610750565b6020808252810161051281610789565b60208082528101610512816107c2565b60208082528101610512816107fb565b602081016105128284610834565b90815260200190565b6000610512826108ec565b151590565b6001600160a01b031690565b90565b6000610512826000610512826108dc565b610915816108dc565b811461052757600080fd5b610915816108e7565b610915816108f856fea265627a7a72305820f51e71100054ff7bcd8d8dc24e8b46c8a8104c4f57bc784cbc2251d5c011d7b96c6578706572696d656e74616cf50037",
  "source": "/*\n  This file is part of The Colony Network.\n\n  The Colony Network is free software: you can redistribute it and/or modify\n  it under the terms of the GNU General Public License as published by\n  the Free Software Foundation, either version 3 of the License, or\n  (at your option) any later version.\n\n  The Colony Network is distributed in the hope that it will be useful,\n  but WITHOUT ANY WARRANTY; without even the implied warranty of\n  MERCHANTABILITY or FITNESS FOR A PARTICULAR PURPOSE.  See the\n  GNU General Public License for more details.\n\n  You should have received a copy of the GNU General Public License\n  along with The Colony Network. If not, see <http://www.gnu.org/licenses/>.\n*/\n\npragma solidity 0.5.8;\npragma experimental ABIEncoderV2;\n\nimport \"./lib/colony/IColony.sol\";\nimport \"./lib/colony/OneTxPayment.sol\";\nimport \"./lib/dappsys/math.sol\";\nimport \"./lib/dappsys/erc20.sol\";\nimport \"./lib/uniswap/UniswapFactoryInterface.sol\";\nimport \"./lib/uniswap/UniswapExchangeInterface.sol\";\n\n\ncontract WarsawBase is DSMath {\n  uint256 constant UINT256_MAX = 2**256 - 1;\n  uint256 constant ROOT_DOMAIN = 1;\n  uint256 constant ROOT_POT = 1;\n  uint256 constant REWARDS_POT = 0;\n\n  IColony colony;\n  OneTxPayment oneTxPayment;\n  UniswapFactoryInterface uniswapFactory;\n\n  address owner;\n  uint256 salePeriod;\n  uint256 periodsPerDay;\n  uint256 saleAmount;\n  uint256 dailyMint;\n\n  mapping (address => mapping (uint256 => Deposit)) deposits;\n  mapping (address => uint256) heads;\n  mapping (address => uint256) tails;\n  mapping (address => uint256) lastSale;\n\n  mapping (uint256 => uint256) periodIncome;\n  uint256 activePeriodIncome;\n  uint256 activePeriod;\n\n  struct Deposit {\n    address payable depositor;\n    uint256 balance;\n  }\n\n  modifier onlyOwner() {\n    require(owner == msg.sender, \"only-owner\");\n    _;\n  }\n\n  // Note: contract assumes root, funding, and administration permissions in root domain\n  // Note: oneTxPayment assumes funding and administration permissions in root domain\n  // Note: assumes reward inverse is set to UINT256_MAX (i.e. 0 automatic rewards claims)\n  constructor(address colonyAddress, address oneTxPaymentAddress, address uniswapFactoryAddress) public {\n    owner = msg.sender;\n    colony = IColony(colonyAddress);\n    oneTxPayment = OneTxPayment(oneTxPaymentAddress);\n    uniswapFactory = UniswapFactoryInterface(uniswapFactoryAddress);\n\n    setSaleAmount(10 * WAD);\n    setSalePeriod(1 hours);\n    setDailyMint(100 * WAD);\n  }\n\n  // Administrative functions\n\n  function transferOwner(address newOwner) public onlyOwner {\n    owner = newOwner;\n  }\n\n  function setSalePeriod(uint256 interval) public onlyOwner {\n    require(interval <= 24 hours, \"interval-to0-long\");\n    salePeriod = interval;\n    periodsPerDay = 24 hours / interval;\n  }\n\n  function setSaleAmount(uint256 wad) public onlyOwner {\n    saleAmount = wad;\n  }\n\n  function setDailyMint(uint256 wad) public onlyOwner {\n    dailyMint = wad;\n  }\n\n  // Public functions\n\n  function depositTokens(address token, uint256 wad) public {\n    require(wad > saleAmount, \"deposit-too-small\");\n\n    ERC20(token).transferFrom(msg.sender, address(this), wad);\n    deposits[token][tails[token]++] = Deposit({ depositor: msg.sender, balance: wad});\n  }\n\n  function sellTokens(address token) public {\n    require(add(lastSale[token], salePeriod) >= now, \"sale-too-soon\");\n\n    Deposit storage deposit = deposits[token][heads[token]];\n    address payable depositor = deposit.depositor;\n    uint256 amount = saleAmount;\n\n    // Subtract from balance\n    deposit.balance -= amount;\n\n    // If *remaining* balance is too small, liquidate and move to next\n    if (deposit.balance < saleAmount) {\n      amount += deposit.balance;\n      delete deposits[token][heads[token]++];\n    }\n\n    // Do the sale\n    uint256 etherValue = executeSale(token, amount);\n    sendEtherToRewardsPot(etherValue);\n\n    // Update active period income\n    updateActivePeriodIncome(etherValue);\n\n    // Get daily income (not including current period)\n    uint256 dailyIncome = getDailyIncome();\n\n    // Figure out percent of daily income depositor gets\n    uint256 percentContribution = wdiv(etherValue, dailyIncome);\n    uint256 tokensToMint = wmul(percentContribution, dailyMint);\n    mintAndSendTokens(depositor, tokensToMint);\n  }\n\n  function getCurrentPeriod() public view returns(uint256 period) {\n    uint256 secondInDay = now % 24 hours;\n    period = secondInDay / salePeriod;\n    assert(period <= periodsPerDay);\n  }\n\n  function getDailyIncome() public view returns(uint256 total) {\n    for (uint256 i; i < periodsPerDay; i++) {\n      total += periodIncome[i];\n    }\n  }\n\n  // Internal functions\n\n  function updateActivePeriodIncome(uint256 income) internal {\n    uint256 currentPeriod = getCurrentPeriod();\n    if (currentPeriod == activePeriod) {\n      // Still in the same period, increment running total\n      activePeriodIncome += income;\n    } else {\n      // In a new period, so save and restart\n      assert((currentPeriod - activePeriod) % periodsPerDay == 1);\n      periodIncome[currentPeriod] = activePeriodIncome;\n      activePeriodIncome = income;\n      activePeriod = currentPeriod;\n    }\n  }\n\n  function executeSale(address token, uint256 wad) internal returns(uint256 etherValue) {\n    // Calls to uniswap\n    return WAD;\n  }\n\n  function mintAndSendTokens(address payable recipient, uint256 amount) internal {\n    // Calls to colony\n  }\n\n  function sendEtherToRewardsPot(uint256 amount) internal {\n    // Calls to colony\n  }\n\n}\n",
  "sourcePath": "/Users/kronosapiens/code/colony/warsaw/les-contracts/contracts/WarsawBase.sol",
  "compiler": {
    "name": "solc",
    "version": "0.5.8+commit.23d335f2.Linux.g++"
  },
  "schemaVersion": "3.0.13",
  "updatedAt": "2019-08-24T13:25:06.843Z",
  "devdoc": {
    "methods": {}
  },
  "userdoc": {
    "methods": {}
  }
}