{
  "contractName": "WarsawBase",
  "abi": [
    {
      "inputs": [
        {
          "name": "colonyAddress",
          "type": "address"
        },
        {
          "name": "oneTxPaymentAddress",
          "type": "address"
        },
        {
          "name": "uniswapFactoryAddress",
          "type": "address"
        }
      ],
      "payable": false,
      "stateMutability": "nonpayable",
      "type": "constructor"
    },
    {
      "anonymous": false,
      "inputs": [
        {
          "indexed": true,
          "name": "depositor",
          "type": "address"
        },
        {
          "indexed": true,
          "name": "token",
          "type": "address"
        },
        {
          "indexed": false,
          "name": "amount",
          "type": "uint256"
        }
      ],
      "name": "TokensDeposited",
      "type": "event"
    },
    {
      "anonymous": false,
      "inputs": [
        {
          "indexed": true,
          "name": "depositor",
          "type": "address"
        },
        {
          "indexed": true,
          "name": "token",
          "type": "address"
        },
        {
          "indexed": false,
          "name": "amount",
          "type": "uint256"
        }
      ],
      "name": "TokensComposted",
      "type": "event"
    },
    {
      "constant": false,
      "inputs": [
        {
          "name": "newOwner",
          "type": "address"
        }
      ],
      "name": "transferOwner",
      "outputs": [],
      "payable": false,
      "stateMutability": "nonpayable",
      "type": "function"
    },
    {
      "constant": false,
      "inputs": [
        {
          "name": "interval",
          "type": "uint256"
        }
      ],
      "name": "setSalePeriod",
      "outputs": [],
      "payable": false,
      "stateMutability": "nonpayable",
      "type": "function"
    },
    {
      "constant": false,
      "inputs": [
        {
          "name": "wad",
          "type": "uint256"
        }
      ],
      "name": "setSaleAmount",
      "outputs": [],
      "payable": false,
      "stateMutability": "nonpayable",
      "type": "function"
    },
    {
      "constant": false,
      "inputs": [
        {
          "name": "wad",
          "type": "uint256"
        }
      ],
      "name": "setDailyMint",
      "outputs": [],
      "payable": false,
      "stateMutability": "nonpayable",
      "type": "function"
    },
    {
      "constant": false,
      "inputs": [
        {
          "name": "frequency",
          "type": "uint256"
        }
      ],
      "name": "setPayoutFrequency",
      "outputs": [],
      "payable": false,
      "stateMutability": "nonpayable",
      "type": "function"
    },
    {
      "constant": false,
      "inputs": [
        {
          "name": "token",
          "type": "address"
        },
        {
          "name": "wad",
          "type": "uint256"
        }
      ],
      "name": "depositTokens",
      "outputs": [],
      "payable": false,
      "stateMutability": "nonpayable",
      "type": "function"
    },
    {
      "constant": false,
      "inputs": [
        {
          "name": "token",
          "type": "address"
        }
      ],
      "name": "sellTokens",
      "outputs": [],
      "payable": false,
      "stateMutability": "nonpayable",
      "type": "function"
    },
    {
      "constant": false,
      "inputs": [
        {
          "name": "key",
          "type": "bytes"
        },
        {
          "name": "value",
          "type": "bytes"
        },
        {
          "name": "branchMask",
          "type": "uint256"
        },
        {
          "name": "siblings",
          "type": "bytes32[]"
        }
      ],
      "name": "initiateRewardPayout",
      "outputs": [],
      "payable": false,
      "stateMutability": "nonpayable",
      "type": "function"
    },
    {
      "constant": true,
      "inputs": [],
      "name": "getCurrentPeriod",
      "outputs": [
        {
          "name": "period",
          "type": "uint256"
        }
      ],
      "payable": false,
      "stateMutability": "view",
      "type": "function"
    },
    {
      "constant": true,
      "inputs": [],
      "name": "getDailyIncome",
      "outputs": [
        {
          "name": "total",
          "type": "uint256"
        }
      ],
      "payable": false,
      "stateMutability": "view",
      "type": "function"
    },
    {
      "constant": true,
      "inputs": [],
      "name": "getPeriodIncomes",
      "outputs": [
        {
          "name": "periodIncomes",
          "type": "uint256[]"
        }
      ],
      "payable": false,
      "stateMutability": "view",
      "type": "function"
    },
    {
      "constant": true,
      "inputs": [
        {
          "name": "token",
          "type": "address"
        }
      ],
      "name": "getNumDeposits",
      "outputs": [
        {
          "name": "numDeposits",
          "type": "uint256"
        }
      ],
      "payable": false,
      "stateMutability": "view",
      "type": "function"
    },
    {
      "constant": true,
      "inputs": [
        {
          "name": "token",
          "type": "address"
        },
        {
          "name": "id",
          "type": "uint256"
        }
      ],
      "name": "getDeposit",
      "outputs": [
        {
          "components": [
            {
              "name": "depositor",
              "type": "address"
            },
            {
              "name": "balance",
              "type": "uint256"
            }
          ],
          "name": "deposit",
          "type": "tuple"
        }
      ],
      "payable": false,
      "stateMutability": "view",
      "type": "function"
    },
    {
      "constant": true,
      "inputs": [],
      "name": "getNumPeriodsPerDay",
      "outputs": [
        {
          "name": "numPeriodsPerDay",
          "type": "uint256"
        }
      ],
      "payable": false,
      "stateMutability": "view",
      "type": "function"
    },
    {
      "constant": true,
      "inputs": [],
      "name": "getTimeToPayout",
      "outputs": [
        {
          "name": "timeToPayout",
          "type": "uint256"
        }
      ],
      "payable": false,
      "stateMutability": "view",
      "type": "function"
    }
  ],
  "bytecode": "0x60806040523480156200001157600080fd5b50604051606080620021d983398101806040526200003391908101906200051f565b33600360006101000a81548173ffffffffffffffffffffffffffffffffffffffff021916908373ffffffffffffffffffffffffffffffffffffffff160217905550826000806101000a81548173ffffffffffffffffffffffffffffffffffffffff021916908373ffffffffffffffffffffffffffffffffffffffff16021790555081600160006101000a81548173ffffffffffffffffffffffffffffffffffffffff021916908373ffffffffffffffffffffffffffffffffffffffff16021790555080600260006101000a81548173ffffffffffffffffffffffffffffffffffffffff021916908373ffffffffffffffffffffffffffffffffffffffff1602179055506200014f670de0b6b3a7640000620001b860201b60201c565b62000162610e106200025560201b60201c565b6200017e670de0b6b3a76400006064026200034f60201b60201c565b6200019262093a80620003ec60201b60201c565b42600981905550620001a96200049a60201b60201c565b60108190555050505062000700565b3373ffffffffffffffffffffffffffffffffffffffff16600360009054906101000a900473ffffffffffffffffffffffffffffffffffffffff1673ffffffffffffffffffffffffffffffffffffffff16146200024b576040517f08c379a000000000000000000000000000000000000000000000000000000000815260040162000242906200063b565b60405180910390fd5b8060068190555050565b3373ffffffffffffffffffffffffffffffffffffffff16600360009054906101000a900473ffffffffffffffffffffffffffffffffffffffff1673ffffffffffffffffffffffffffffffffffffffff1614620002e8576040517f08c379a0000000000000000000000000000000000000000000000000000000008152600401620002df906200063b565b60405180910390fd5b6201518081111562000331576040517f08c379a000000000000000000000000000000000000000000000000000000000815260040162000328906200065d565b60405180910390fd5b806004819055508062015180816200034557fe5b0460058190555050565b3373ffffffffffffffffffffffffffffffffffffffff16600360009054906101000a900473ffffffffffffffffffffffffffffffffffffffff1673ffffffffffffffffffffffffffffffffffffffff1614620003e2576040517f08c379a0000000000000000000000000000000000000000000000000000000008152600401620003d9906200063b565b60405180910390fd5b8060078190555050565b3373ffffffffffffffffffffffffffffffffffffffff16600360009054906101000a900473ffffffffffffffffffffffffffffffffffffffff1673ffffffffffffffffffffffffffffffffffffffff16146200047f576040517f08c379a000000000000000000000000000000000000000000000000000000000815260040162000476906200063b565b60405180910390fd5b620151808110156200049057600080fd5b8060088190555050565b600080620151804281620004aa57fe5b0690506004548181620004b957fe5b04915060055482111562000504576040517f08c379a0000000000000000000000000000000000000000000000000000000008152600401620004fb906200067f565b60405180910390fd5b5090565b6000815190506200051981620006e6565b92915050565b6000806000606084860312156200053557600080fd5b6000620005458682870162000508565b9350506020620005588682870162000508565b92505060406200056b8682870162000508565b9150509250925092565b600062000584600a83620006a1565b91507f6f6e6c792d6f776e6572000000000000000000000000000000000000000000006000830152602082019050919050565b6000620005c6601183620006a1565b91507f696e74657276616c2d746f6f2d6c6f6e670000000000000000000000000000006000830152602082019050919050565b600062000608600e83620006a1565b91507f696e76616c69642d706572696f640000000000000000000000000000000000006000830152602082019050919050565b60006020820190508181036000830152620006568162000575565b9050919050565b600060208201905081810360008301526200067881620005b7565b9050919050565b600060208201905081810360008301526200069a81620005f9565b9050919050565b600082825260208201905092915050565b6000620006bf82620006c6565b9050919050565b600073ffffffffffffffffffffffffffffffffffffffff82169050919050565b620006f181620006b2565b8114620006fd57600080fd5b50565b611ac980620007106000396000f3fe608060405234801561001057600080fd5b50600436106100f55760003560e01c80639821f06511610097578063da2d265b11610066578063da2d265b1461025e578063dd4b44f21461027c578063deff30c614610298578063df53d9fd146102b4576100f5565b80639821f065146101d85780639a2bcd27146101f4578063bcffb2ce14610210578063d6e91e911461022e576100f5565b80634fb2e45d116100d35780634fb2e45d1461016457806366168bd7146101805780636654edca1461019c5780636e02de4c146101ba576100f5565b8063086146d2146100fa5780632726b506146101185780633a6b01e114610148575b600080fd5b6101026102d0565b60405161010f91906118a7565b60405180910390f35b610132600480360361012d91908101906112aa565b610339565b60405161013f919061188c565b60405180910390f35b610162600480360361015d919081019061130f565b610404565b005b61017e60048036036101799190810190611281565b61040a565b005b61019a600480360361019591908101906112aa565b6104de565b005b6101a4610738565b6040516101b191906118a7565b60405180910390f35b6101c2610742565b6040516101cf919061174a565b60405180910390f35b6101f260048036036101ed91908101906113ba565b6107c2565b005b61020e600480360361020991908101906113ba565b6108b5565b005b61021861094f565b60405161022591906118a7565b60405180910390f35b61024860048036036102439190810190611281565b610970565b60405161025591906118a7565b60405180910390f35b610266610a01565b60405161027391906118a7565b60405180910390f35b610296600480360361029191908101906113ba565b610a38565b005b6102b260048036036102ad9190810190611281565b610ae2565b005b6102ce60048036036102c991908101906113ba565b610e86565b005b6000806201518042816102df57fe5b06905060045481816102ed57fe5b049150600554821115610335576040517f08c379a000000000000000000000000000000000000000000000000000000000815260040161032c9061186c565b60405180910390fd5b5090565b610341611126565b600a60008473ffffffffffffffffffffffffffffffffffffffff1673ffffffffffffffffffffffffffffffffffffffff16815260200190815260200160002060008381526020019081526020016000206040518060400160405290816000820160009054906101000a900473ffffffffffffffffffffffffffffffffffffffff1673ffffffffffffffffffffffffffffffffffffffff1673ffffffffffffffffffffffffffffffffffffffff168152602001600182015481525050905092915050565b50505050565b3373ffffffffffffffffffffffffffffffffffffffff16600360009054906101000a900473ffffffffffffffffffffffffffffffffffffffff1673ffffffffffffffffffffffffffffffffffffffff161461049a576040517f08c379a0000000000000000000000000000000000000000000000000000000008152600401610491906117cc565b60405180910390fd5b80600360006101000a81548173ffffffffffffffffffffffffffffffffffffffff021916908373ffffffffffffffffffffffffffffffffffffffff16021790555050565b600654811015610523576040517f08c379a000000000000000000000000000000000000000000000000000000000815260040161051a9061182c565b60405180910390fd5b8173ffffffffffffffffffffffffffffffffffffffff166323b872dd3330846040518463ffffffff1660e01b815260040161056093929190611713565b602060405180830381600087803b15801561057a57600080fd5b505af115801561058e573d6000803e3d6000fd5b505050506040513d601f19601f820116820180604052506105b291908101906112e6565b5060405180604001604052803373ffffffffffffffffffffffffffffffffffffffff16815260200182815250600a60008473ffffffffffffffffffffffffffffffffffffffff1673ffffffffffffffffffffffffffffffffffffffff1681526020019081526020016000206000600c60008673ffffffffffffffffffffffffffffffffffffffff1673ffffffffffffffffffffffffffffffffffffffff168152602001908152602001600020600081548092919060010191905055815260200190815260200160002060008201518160000160006101000a81548173ffffffffffffffffffffffffffffffffffffffff021916908373ffffffffffffffffffffffffffffffffffffffff160217905550602082015181600101559050508173ffffffffffffffffffffffffffffffffffffffff163373ffffffffffffffffffffffffffffffffffffffff167fcbc4a4091b012bb1329c38bbbb15455f5cac5aa3673da0a7f38cd61a4f4955178360405161072c91906118a7565b60405180910390a35050565b6000600554905090565b60606005546040519080825280602002602001820160405280156107755781602001602082028038833980820191505090505b50905060005b6005548110156107be57600e6000828152602001908152602001600020548282815181106107a557fe5b602002602001018181525050808060010191505061077b565b5090565b3373ffffffffffffffffffffffffffffffffffffffff16600360009054906101000a900473ffffffffffffffffffffffffffffffffffffffff1673ffffffffffffffffffffffffffffffffffffffff1614610852576040517f08c379a0000000000000000000000000000000000000000000000000000000008152600401610849906117cc565b60405180910390fd5b62015180811115610898576040517f08c379a000000000000000000000000000000000000000000000000000000000815260040161088f9061184c565b60405180910390fd5b806004819055508062015180816108ab57fe5b0460058190555050565b3373ffffffffffffffffffffffffffffffffffffffff16600360009054906101000a900473ffffffffffffffffffffffffffffffffffffffff1673ffffffffffffffffffffffffffffffffffffffff1614610945576040517f08c379a000000000000000000000000000000000000000000000000000000000815260040161093c906117cc565b60405180910390fd5b8060068190555050565b600061096b600042610965600954600854610f20565b03610f70565b905090565b60006109fa600c60008473ffffffffffffffffffffffffffffffffffffffff1673ffffffffffffffffffffffffffffffffffffffff16815260200190815260200160002054600b60008573ffffffffffffffffffffffffffffffffffffffff1673ffffffffffffffffffffffffffffffffffffffff16815260200190815260200160002054610f8a565b9050919050565b6000805b600554811015610a3457600e600082815260200190815260200160002054820191508080600101915050610a05565b5090565b3373ffffffffffffffffffffffffffffffffffffffff16600360009054906101000a900473ffffffffffffffffffffffffffffffffffffffff1673ffffffffffffffffffffffffffffffffffffffff1614610ac8576040517f08c379a0000000000000000000000000000000000000000000000000000000008152600401610abf906117cc565b60405180910390fd5b62015180811015610ad857600080fd5b8060088190555050565b6000610aed82610970565b11610b2d576040517f08c379a0000000000000000000000000000000000000000000000000000000008152600401610b24906117ac565b60405180910390fd5b610b78600d60008373ffffffffffffffffffffffffffffffffffffffff1673ffffffffffffffffffffffffffffffffffffffff16815260200190815260200160002054600454610f20565b421015610bba576040517f08c379a0000000000000000000000000000000000000000000000000000000008152600401610bb19061178c565b60405180910390fd5b42600d60008373ffffffffffffffffffffffffffffffffffffffff1673ffffffffffffffffffffffffffffffffffffffff168152602001908152602001600020819055506000600a60008373ffffffffffffffffffffffffffffffffffffffff1673ffffffffffffffffffffffffffffffffffffffff1681526020019081526020016000206000600b60008573ffffffffffffffffffffffffffffffffffffffff1673ffffffffffffffffffffffffffffffffffffffff168152602001908152602001600020548152602001908152602001600020905060008160000160009054906101000a900473ffffffffffffffffffffffffffffffffffffffff1690506000600654905080836001016000828254039250508190555060065483600101541015610dba57826001015481019050600a60008573ffffffffffffffffffffffffffffffffffffffff1673ffffffffffffffffffffffffffffffffffffffff1681526020019081526020016000206000600b60008773ffffffffffffffffffffffffffffffffffffffff1673ffffffffffffffffffffffffffffffffffffffff1681526020019081526020016000206000815480929190600101919050558152602001908152602001600020600080820160006101000a81549073ffffffffffffffffffffffffffffffffffffffff0219169055600182016000905550505b6000610dc68583610fda565b9050610dd181610fed565b610dda81610ff0565b6000610ded610de7610a01565b83610f20565b90506000610dfb8383611048565b90506000610e0b82600754611080565b9050610e1786826110c0565b8773ffffffffffffffffffffffffffffffffffffffff168673ffffffffffffffffffffffffffffffffffffffff167fc510044739924ca21e51c52c5a40ffed601c2ae0051fe28e7df192e8d7b399db87604051610e7491906118a7565b60405180910390a35050505050505050565b3373ffffffffffffffffffffffffffffffffffffffff16600360009054906101000a900473ffffffffffffffffffffffffffffffffffffffff1673ffffffffffffffffffffffffffffffffffffffff1614610f16576040517f08c379a0000000000000000000000000000000000000000000000000000000008152600401610f0d906117cc565b60405180910390fd5b8060078190555050565b6000828284019150811015610f6a576040517f08c379a0000000000000000000000000000000000000000000000000000000008152600401610f619061180c565b60405180910390fd5b92915050565b600081831115610f805781610f82565b825b905092915050565b6000828284039150811115610fd4576040517f08c379a0000000000000000000000000000000000000000000000000000000008152600401610fcb9061176c565b60405180910390fd5b92915050565b6000670de0b6b3a7640000905092915050565b50565b6000610ffa6102d0565b905060105481141561101b5781600f60008282540192505081905550611044565b600f54600e60008381526020019081526020016000208190555081600f81905550806010819055505b5050565b60008161107061106085670de0b6b3a76400006110c4565b6002858161106a57fe5b04610f20565b8161107757fe5b04905092915050565b6000670de0b6b3a76400006110b061109885856110c4565b6002670de0b6b3a7640000816110aa57fe5b04610f20565b816110b757fe5b04905092915050565b5050565b6000808214806110e157508282838502925082816110de57fe5b04145b611120576040517f08c379a0000000000000000000000000000000000000000000000000000000008152600401611117906117ec565b60405180910390fd5b92915050565b6040518060400160405280600073ffffffffffffffffffffffffffffffffffffffff168152602001600081525090565b60008135905061116581611a33565b92915050565b600082601f83011261117c57600080fd5b813561118f61118a826118ef565b6118c2565b915081818352602084019350602081019050838560208402820111156111b457600080fd5b60005b838110156111e457816111ca8882611203565b8452602084019350602083019250506001810190506111b7565b5050505092915050565b6000815190506111fd81611a4a565b92915050565b60008135905061121281611a61565b92915050565b600082601f83011261122957600080fd5b813561123c61123782611917565b6118c2565b9150808252602083016020830185838301111561125857600080fd5b611263838284611a24565b50505092915050565b60008135905061127b81611a78565b92915050565b60006020828403121561129357600080fd5b60006112a184828501611156565b91505092915050565b600080604083850312156112bd57600080fd5b60006112cb85828601611156565b92505060206112dc8582860161126c565b9150509250929050565b6000602082840312156112f857600080fd5b6000611306848285016111ee565b91505092915050565b6000806000806080858703121561132557600080fd5b600085013567ffffffffffffffff81111561133f57600080fd5b61134b87828801611218565b945050602085013567ffffffffffffffff81111561136857600080fd5b61137487828801611218565b93505060406113858782880161126c565b925050606085013567ffffffffffffffff8111156113a257600080fd5b6113ae8782880161116b565b91505092959194509250565b6000602082840312156113cc57600080fd5b60006113da8482850161126c565b91505092915050565b60006113ef83836116f5565b60208301905092915050565b611404816119ee565b82525050565b6114138161199c565b82525050565b6114228161198a565b82525050565b600061143382611950565b61143d8185611968565b935061144883611943565b8060005b8381101561147957815161146088826113e3565b975061146b8361195b565b92505060018101905061144c565b5085935050505092915050565b6000611493601583611979565b91507f64732d6d6174682d7375622d756e646572666c6f7700000000000000000000006000830152602082019050919050565b60006114d3600d83611979565b91507f73616c652d746f6f2d736f6f6e000000000000000000000000000000000000006000830152602082019050919050565b6000611513601183611979565b91507f6e6f2d746f6b656e2d6465706f736974730000000000000000000000000000006000830152602082019050919050565b6000611553600a83611979565b91507f6f6e6c792d6f776e6572000000000000000000000000000000000000000000006000830152602082019050919050565b6000611593601483611979565b91507f64732d6d6174682d6d756c2d6f766572666c6f770000000000000000000000006000830152602082019050919050565b60006115d3601483611979565b91507f64732d6d6174682d6164642d6f766572666c6f770000000000000000000000006000830152602082019050919050565b6000611613601183611979565b91507f6465706f7369742d746f6f2d736d616c6c0000000000000000000000000000006000830152602082019050919050565b6000611653601183611979565b91507f696e74657276616c2d746f6f2d6c6f6e670000000000000000000000000000006000830152602082019050919050565b6000611693600e83611979565b91507f696e76616c69642d706572696f640000000000000000000000000000000000006000830152602082019050919050565b6040820160008201516116dc600085018261140a565b5060208201516116ef60208501826116f5565b50505050565b6116fe816119e4565b82525050565b61170d816119e4565b82525050565b600060608201905061172860008301866113fb565b6117356020830185611419565b6117426040830184611704565b949350505050565b600060208201905081810360008301526117648184611428565b905092915050565b6000602082019050818103600083015261178581611486565b9050919050565b600060208201905081810360008301526117a5816114c6565b9050919050565b600060208201905081810360008301526117c581611506565b9050919050565b600060208201905081810360008301526117e581611546565b9050919050565b6000602082019050818103600083015261180581611586565b9050919050565b60006020820190508181036000830152611825816115c6565b9050919050565b6000602082019050818103600083015261184581611606565b9050919050565b6000602082019050818103600083015261186581611646565b9050919050565b6000602082019050818103600083015261188581611686565b9050919050565b60006040820190506118a160008301846116c6565b92915050565b60006020820190506118bc6000830184611704565b92915050565b6000604051905081810181811067ffffffffffffffff821117156118e557600080fd5b8060405250919050565b600067ffffffffffffffff82111561190657600080fd5b602082029050602081019050919050565b600067ffffffffffffffff82111561192e57600080fd5b601f19601f8301169050602081019050919050565b6000602082019050919050565b600081519050919050565b6000602082019050919050565b600082825260208201905092915050565b600082825260208201905092915050565b6000611995826119c4565b9050919050565b60006119a7826119c4565b9050919050565b60008115159050919050565b6000819050919050565b600073ffffffffffffffffffffffffffffffffffffffff82169050919050565b6000819050919050565b60006119f982611a00565b9050919050565b6000611a0b82611a12565b9050919050565b6000611a1d826119c4565b9050919050565b82818337600083830152505050565b611a3c8161198a565b8114611a4757600080fd5b50565b611a53816119ae565b8114611a5e57600080fd5b50565b611a6a816119ba565b8114611a7557600080fd5b50565b611a81816119e4565b8114611a8c57600080fd5b5056fea265627a7a72305820074888304eeb1d62d113806be873f2ce0d95f64f275814783fdafc37e7e271d56c6578706572696d656e74616cf50037",
  "source": "/*\n  This file is part of The Colony Network.\n\n  The Colony Network is free software: you can redistribute it and/or modify\n  it under the terms of the GNU General Public License as published by\n  the Free Software Foundation, either version 3 of the License, or\n  (at your option) any later version.\n\n  The Colony Network is distributed in the hope that it will be useful,\n  but WITHOUT ANY WARRANTY; without even the implied warranty of\n  MERCHANTABILITY or FITNESS FOR A PARTICULAR PURPOSE.  See the\n  GNU General Public License for more details.\n\n  You should have received a copy of the GNU General Public License\n  along with The Colony Network. If not, see <http://www.gnu.org/licenses/>.\n*/\n\npragma solidity 0.5.8;\npragma experimental ABIEncoderV2;\n\nimport \"./lib/colony/IColony.sol\";\nimport \"./lib/colony/OneTxPayment.sol\";\nimport \"./lib/colony/Token.sol\";\nimport \"./lib/dappsys/math.sol\";\nimport \"./lib/uniswap/UniswapFactoryInterface.sol\";\nimport \"./lib/uniswap/UniswapExchangeInterface.sol\";\n\n\ncontract WarsawBase is DSMath {\n  uint256 constant UINT256_MAX = 2**256 - 1;\n  uint256 constant ROOT_DOMAIN = 1;\n  uint256 constant ROOT_POT = 1;\n  uint256 constant REWARDS_POT = 0;\n\n  IColony colony;\n  OneTxPayment oneTxPayment;\n  UniswapFactoryInterface uniswapFactory;\n\n  address owner;\n\n  uint256 salePeriod;\n  uint256 periodsPerDay;\n  uint256 saleAmount;\n\n  uint256 dailyMint;\n  uint256 payoutFrequency;\n  uint256 lastRewardPayout;\n\n  mapping (address => mapping (uint256 => Deposit)) deposits;\n  mapping (address => uint256) heads;\n  mapping (address => uint256) tails;\n  mapping (address => uint256) lastSale;\n\n  mapping (uint256 => uint256) periodIncome;\n  uint256 activePeriodIncome;\n  uint256 activePeriod;\n\n  struct Deposit {\n    address payable depositor;\n    uint256 balance;\n  }\n\n  event TokensDeposited(address indexed depositor, address indexed token, uint256 amount);\n  event TokensComposted(address indexed depositor, address indexed token, uint256 amount);\n\n  modifier onlyOwner() {\n    require(owner == msg.sender, \"only-owner\");\n    _;\n  }\n\n  // Note: contract assumes root, funding, and administration permissions in root domain\n  // Note: oneTxPayment assumes funding and administration permissions in root domain\n  // Note: needs reward inverse set to UINT256_MAX (i.e. 0 automatic rewards claims)\n  constructor(address colonyAddress, address oneTxPaymentAddress, address uniswapFactoryAddress) public {\n    owner = msg.sender;\n    colony = IColony(colonyAddress);\n    oneTxPayment = OneTxPayment(oneTxPaymentAddress);\n    uniswapFactory = UniswapFactoryInterface(uniswapFactoryAddress);\n\n    // Defaults!\n    setSaleAmount(WAD);\n    setSalePeriod(1 hours);\n    setDailyMint(100 * WAD);\n    setPayoutFrequency(7 days);\n\n    // Initialize!\n    lastRewardPayout = now;\n    activePeriod = getCurrentPeriod();\n  }\n\n  // Administrative functions\n\n  function transferOwner(address newOwner) public onlyOwner {\n    owner = newOwner;\n  }\n\n  function setSalePeriod(uint256 interval) public onlyOwner {\n    require(interval <= 24 hours, \"interval-too-long\");\n    salePeriod = interval;\n    periodsPerDay = 24 hours / interval;\n  }\n\n  function setSaleAmount(uint256 wad) public onlyOwner {\n    saleAmount = wad;\n  }\n\n  function setDailyMint(uint256 wad) public onlyOwner {\n    dailyMint = wad;\n  }\n\n  function setPayoutFrequency(uint256 frequency) public onlyOwner {\n    require(frequency >= 1 days);\n    payoutFrequency = frequency;\n  }\n\n  // Public functions\n\n  function depositTokens(address token, uint256 wad) public {\n    require(wad >= saleAmount, \"deposit-too-small\");\n\n    Token(token).transferFrom(msg.sender, address(this), wad);\n    deposits[token][tails[token]++] = Deposit({ depositor: msg.sender, balance: wad});\n\n    emit TokensDeposited(msg.sender, token, wad);\n  }\n\n  function sellTokens(address token) public {\n    require(getNumDeposits(token) > 0, \"no-token-deposits\");\n    require(now >= add(lastSale[token], salePeriod), \"sale-too-soon\");\n    lastSale[token] = now;\n\n    Deposit storage deposit = deposits[token][heads[token]];\n    address payable depositor = deposit.depositor;\n    uint256 amount = saleAmount;\n\n    // Subtract from balance\n    deposit.balance -= amount;\n\n    // If *remaining* balance is too small, liquidate and move to next\n    if (deposit.balance < saleAmount) {\n      amount += deposit.balance;\n      delete deposits[token][heads[token]++];\n    }\n\n    // Do the sale\n    uint256 etherValue = executeSale(token, amount);\n    sendEtherToRewardsPot(etherValue);\n\n    // Update active period income\n    updateActivePeriodIncome(etherValue);\n\n    // Get daily income (excluding current period, including current tx)\n    uint256 dailyIncome = add(getDailyIncome(), etherValue);\n\n    // // Figure out percent of daily income depositor gets\n    uint256 percentContribution = wdiv(etherValue, dailyIncome);\n    uint256 tokensToMint = wmul(percentContribution, dailyMint);\n    mintAndSendTokens(depositor, tokensToMint);\n\n    emit TokensComposted(depositor, token, amount);\n  }\n\n  function initiateRewardPayout(\n    bytes memory key,\n    bytes memory value,\n    uint256 branchMask,\n    bytes32[] memory siblings\n  )\n    public\n  {\n    // Calls to colony\n  }\n\n  // Public view functions\n\n  function getCurrentPeriod() public view returns(uint256 period) {\n    uint256 secondInDay = now % 24 hours;\n    period = secondInDay / salePeriod;\n    require(period <= periodsPerDay, \"invalid-period\");\n  }\n\n  function getDailyIncome() public view returns(uint256 total) {\n    for (uint256 i; i < periodsPerDay; i++) {\n      total += periodIncome[i];\n    }\n  }\n\n  function getPeriodIncomes() public view returns(uint256[] memory periodIncomes) {\n    periodIncomes = new uint256[](periodsPerDay);\n    for (uint256 i; i < periodsPerDay; i++) {\n      periodIncomes[i] = periodIncome[i];\n    }\n  }\n\n  function getNumDeposits(address token) public view returns(uint256 numDeposits) {\n    numDeposits = sub(tails[token], heads[token]);\n  }\n\n  function getDeposit(address token, uint256 id) public view returns(Deposit memory deposit) {\n    deposit = deposits[token][id];\n  }\n\n  function getNumPeriodsPerDay() public view returns(uint256 numPeriodsPerDay) {\n    numPeriodsPerDay = periodsPerDay;\n  }\n\n  function getTimeToPayout() public view returns(uint256 timeToPayout) {\n    timeToPayout = min(0, add(lastRewardPayout, payoutFrequency) - now);\n  }\n\n  // Internal functions\n\n  function updateActivePeriodIncome(uint256 income) internal {\n    uint256 currentPeriod = getCurrentPeriod();\n    if (currentPeriod == activePeriod) {\n      // Still in the same period, increment running total\n      activePeriodIncome += income;\n    } else {\n      // In a new period, so save and restart\n      periodIncome[currentPeriod] = activePeriodIncome;\n      activePeriodIncome = income;\n      activePeriod = currentPeriod;\n    }\n  }\n\n  function executeSale(address token, uint256 wad) internal returns(uint256 etherValue) {\n    // Calls to uniswap\n    return WAD;\n  }\n\n  function mintAndSendTokens(address payable recipient, uint256 amount) internal {\n    // Calls to colony\n  }\n\n  function sendEtherToRewardsPot(uint256 amount) internal {\n    // Calls to colony\n  }\n\n}\n",
  "sourcePath": "/Users/kronosapiens/code/colony/warsaw/les-contracts/contracts/WarsawBase.sol",
  "compiler": {
    "name": "solc",
    "version": "0.5.8+commit.23d335f2.Linux.g++"
  },
  "schemaVersion": "3.0.13",
  "updatedAt": "2019-08-24T19:11:56.960Z",
  "devdoc": {
    "methods": {}
  },
  "userdoc": {
    "methods": {}
  }
}